{
  "contracts/Counter.sol": {
    "Counter": {
      "abi": [
        {
          "anonymous": false,
          "inputs": [
            {
              "indexed": false,
              "internalType": "int256",
              "name": "newCount",
              "type": "int256"
            },
            {
              "indexed": false,
              "internalType": "address",
              "name": "triggeredBy",
              "type": "address"
            }
          ],
          "name": "CounterChanged",
          "type": "event"
        },
        {
          "inputs": [],
          "name": "count",
          "outputs": [
            {
              "internalType": "int256",
              "name": "",
              "type": "int256"
            }
          ],
          "stateMutability": "view",
          "type": "function"
        },
        {
          "inputs": [],
          "name": "decrement",
          "outputs": [],
          "stateMutability": "nonpayable",
          "type": "function"
        },
        {
          "inputs": [],
          "name": "increment",
          "outputs": [],
          "stateMutability": "nonpayable",
          "type": "function"
        },
        {
          "inputs": [],
          "name": "reset",
          "outputs": [],
          "stateMutability": "nonpayable",
          "type": "function"
        },
        {
          "inputs": [
            {
              "internalType": "int256",
              "name": "newCount",
              "type": "int256"
            }
          ],
          "name": "setCount",
          "outputs": [],
          "stateMutability": "nonpayable",
          "type": "function"
        }
      ],
      "evm": {
        "bytecode": {
          "linkReferences": {},
          "object": "608060405260008055348015601357600080fd5b506103d7806100236000396000f3fe608060405234801561001057600080fd5b50600436106100575760003560e01c806306661abd1461005c5780632baeceb71461007a578063d09de08a14610084578063d826f88f1461008e578063fc583c8d14610098575b600080fd5b6100646100b4565b6040516100719190610208565b60405180910390f35b6100826100ba565b005b61008c610110565b005b610096610166565b005b6100b260048036038101906100ad9190610254565b6101aa565b005b60005481565b60016000808282546100cc91906102b0565b925050819055507f2371416f596f7d178bec752835988464a33cfb2abf3864a94aa9b3a0ad6099e960005433604051610106929190610334565b60405180910390a1565b6001600080828254610122919061035d565b925050819055507f2371416f596f7d178bec752835988464a33cfb2abf3864a94aa9b3a0ad6099e96000543360405161015c929190610334565b60405180910390a1565b600080819055507f2371416f596f7d178bec752835988464a33cfb2abf3864a94aa9b3a0ad6099e9600054336040516101a0929190610334565b60405180910390a1565b806000819055507f2371416f596f7d178bec752835988464a33cfb2abf3864a94aa9b3a0ad6099e9600054336040516101e4929190610334565b60405180910390a150565b6000819050919050565b610202816101ef565b82525050565b600060208201905061021d60008301846101f9565b92915050565b600080fd5b610231816101ef565b811461023c57600080fd5b50565b60008135905061024e81610228565b92915050565b60006020828403121561026a57610269610223565b5b60006102788482850161023f565b91505092915050565b7f4e487b7100000000000000000000000000000000000000000000000000000000600052601160045260246000fd5b60006102bb826101ef565b91506102c6836101ef565b92508282039050818112600084121682821360008512151617156102ed576102ec610281565b5b92915050565b600073ffffffffffffffffffffffffffffffffffffffff82169050919050565b600061031e826102f3565b9050919050565b61032e81610313565b82525050565b600060408201905061034960008301856101f9565b6103566020830184610325565b9392505050565b6000610368826101ef565b9150610373836101ef565b92508282019050828112156000831216838212600084121516171561039b5761039a610281565b5b9291505056fea2646970667358221220619f6d1051681ebc89c991433f49535abb28e9798fc62b4c8f44e8866736227564736f6c634300081c0033",
          "opcodes": "PUSH1 0x80 PUSH1 0x40 MSTORE PUSH1 0x0 DUP1 SSTORE CALLVALUE DUP1 ISZERO PUSH1 0x13 JUMPI PUSH1 0x0 DUP1 REVERT JUMPDEST POP PUSH2 0x3D7 DUP1 PUSH2 0x23 PUSH1 0x0 CODECOPY PUSH1 0x0 RETURN INVALID PUSH1 0x80 PUSH1 0x40 MSTORE CALLVALUE DUP1 ISZERO PUSH2 0x10 JUMPI PUSH1 0x0 DUP1 REVERT JUMPDEST POP PUSH1 0x4 CALLDATASIZE LT PUSH2 0x57 JUMPI PUSH1 0x0 CALLDATALOAD PUSH1 0xE0 SHR DUP1 PUSH4 0x6661ABD EQ PUSH2 0x5C JUMPI DUP1 PUSH4 0x2BAECEB7 EQ PUSH2 0x7A JUMPI DUP1 PUSH4 0xD09DE08A EQ PUSH2 0x84 JUMPI DUP1 PUSH4 0xD826F88F EQ PUSH2 0x8E JUMPI DUP1 PUSH4 0xFC583C8D EQ PUSH2 0x98 JUMPI JUMPDEST PUSH1 0x0 DUP1 REVERT JUMPDEST PUSH2 0x64 PUSH2 0xB4 JUMP JUMPDEST PUSH1 0x40 MLOAD PUSH2 0x71 SWAP2 SWAP1 PUSH2 0x208 JUMP JUMPDEST PUSH1 0x40 MLOAD DUP1 SWAP2 SUB SWAP1 RETURN JUMPDEST PUSH2 0x82 PUSH2 0xBA JUMP JUMPDEST STOP JUMPDEST PUSH2 0x8C PUSH2 0x110 JUMP JUMPDEST STOP JUMPDEST PUSH2 0x96 PUSH2 0x166 JUMP JUMPDEST STOP JUMPDEST PUSH2 0xB2 PUSH1 0x4 DUP1 CALLDATASIZE SUB DUP2 ADD SWAP1 PUSH2 0xAD SWAP2 SWAP1 PUSH2 0x254 JUMP JUMPDEST PUSH2 0x1AA JUMP JUMPDEST STOP JUMPDEST PUSH1 0x0 SLOAD DUP2 JUMP JUMPDEST PUSH1 0x1 PUSH1 0x0 DUP1 DUP3 DUP3 SLOAD PUSH2 0xCC SWAP2 SWAP1 PUSH2 0x2B0 JUMP JUMPDEST SWAP3 POP POP DUP2 SWAP1 SSTORE POP PUSH32 0x2371416F596F7D178BEC752835988464A33CFB2ABF3864A94AA9B3A0AD6099E9 PUSH1 0x0 SLOAD CALLER PUSH1 0x40 MLOAD PUSH2 0x106 SWAP3 SWAP2 SWAP1 PUSH2 0x334 JUMP JUMPDEST PUSH1 0x40 MLOAD DUP1 SWAP2 SUB SWAP1 LOG1 JUMP JUMPDEST PUSH1 0x1 PUSH1 0x0 DUP1 DUP3 DUP3 SLOAD PUSH2 0x122 SWAP2 SWAP1 PUSH2 0x35D JUMP JUMPDEST SWAP3 POP POP DUP2 SWAP1 SSTORE POP PUSH32 0x2371416F596F7D178BEC752835988464A33CFB2ABF3864A94AA9B3A0AD6099E9 PUSH1 0x0 SLOAD CALLER PUSH1 0x40 MLOAD PUSH2 0x15C SWAP3 SWAP2 SWAP1 PUSH2 0x334 JUMP JUMPDEST PUSH1 0x40 MLOAD DUP1 SWAP2 SUB SWAP1 LOG1 JUMP JUMPDEST PUSH1 0x0 DUP1 DUP2 SWAP1 SSTORE POP PUSH32 0x2371416F596F7D178BEC752835988464A33CFB2ABF3864A94AA9B3A0AD6099E9 PUSH1 0x0 SLOAD CALLER PUSH1 0x40 MLOAD PUSH2 0x1A0 SWAP3 SWAP2 SWAP1 PUSH2 0x334 JUMP JUMPDEST PUSH1 0x40 MLOAD DUP1 SWAP2 SUB SWAP1 LOG1 JUMP JUMPDEST DUP1 PUSH1 0x0 DUP2 SWAP1 SSTORE POP PUSH32 0x2371416F596F7D178BEC752835988464A33CFB2ABF3864A94AA9B3A0AD6099E9 PUSH1 0x0 SLOAD CALLER PUSH1 0x40 MLOAD PUSH2 0x1E4 SWAP3 SWAP2 SWAP1 PUSH2 0x334 JUMP JUMPDEST PUSH1 0x40 MLOAD DUP1 SWAP2 SUB SWAP1 LOG1 POP JUMP JUMPDEST PUSH1 0x0 DUP2 SWAP1 POP SWAP2 SWAP1 POP JUMP JUMPDEST PUSH2 0x202 DUP2 PUSH2 0x1EF JUMP JUMPDEST DUP3 MSTORE POP POP JUMP JUMPDEST PUSH1 0x0 PUSH1 0x20 DUP3 ADD SWAP1 POP PUSH2 0x21D PUSH1 0x0 DUP4 ADD DUP5 PUSH2 0x1F9 JUMP JUMPDEST SWAP3 SWAP2 POP POP JUMP JUMPDEST PUSH1 0x0 DUP1 REVERT JUMPDEST PUSH2 0x231 DUP2 PUSH2 0x1EF JUMP JUMPDEST DUP2 EQ PUSH2 0x23C JUMPI PUSH1 0x0 DUP1 REVERT JUMPDEST POP JUMP JUMPDEST PUSH1 0x0 DUP2 CALLDATALOAD SWAP1 POP PUSH2 0x24E DUP2 PUSH2 0x228 JUMP JUMPDEST SWAP3 SWAP2 POP POP JUMP JUMPDEST PUSH1 0x0 PUSH1 0x20 DUP3 DUP5 SUB SLT ISZERO PUSH2 0x26A JUMPI PUSH2 0x269 PUSH2 0x223 JUMP JUMPDEST JUMPDEST PUSH1 0x0 PUSH2 0x278 DUP5 DUP3 DUP6 ADD PUSH2 0x23F JUMP JUMPDEST SWAP2 POP POP SWAP3 SWAP2 POP POP JUMP JUMPDEST PUSH32 0x4E487B7100000000000000000000000000000000000000000000000000000000 PUSH1 0x0 MSTORE PUSH1 0x11 PUSH1 0x4 MSTORE PUSH1 0x24 PUSH1 0x0 REVERT JUMPDEST PUSH1 0x0 PUSH2 0x2BB DUP3 PUSH2 0x1EF JUMP JUMPDEST SWAP2 POP PUSH2 0x2C6 DUP4 PUSH2 0x1EF JUMP JUMPDEST SWAP3 POP DUP3 DUP3 SUB SWAP1 POP DUP2 DUP2 SLT PUSH1 0x0 DUP5 SLT AND DUP3 DUP3 SGT PUSH1 0x0 DUP6 SLT ISZERO AND OR ISZERO PUSH2 0x2ED JUMPI PUSH2 0x2EC PUSH2 0x281 JUMP JUMPDEST JUMPDEST SWAP3 SWAP2 POP POP JUMP JUMPDEST PUSH1 0x0 PUSH20 0xFFFFFFFFFFFFFFFFFFFFFFFFFFFFFFFFFFFFFFFF DUP3 AND SWAP1 POP SWAP2 SWAP1 POP JUMP JUMPDEST PUSH1 0x0 PUSH2 0x31E DUP3 PUSH2 0x2F3 JUMP JUMPDEST SWAP1 POP SWAP2 SWAP1 POP JUMP JUMPDEST PUSH2 0x32E DUP2 PUSH2 0x313 JUMP JUMPDEST DUP3 MSTORE POP POP JUMP JUMPDEST PUSH1 0x0 PUSH1 0x40 DUP3 ADD SWAP1 POP PUSH2 0x349 PUSH1 0x0 DUP4 ADD DUP6 PUSH2 0x1F9 JUMP JUMPDEST PUSH2 0x356 PUSH1 0x20 DUP4 ADD DUP5 PUSH2 0x325 JUMP JUMPDEST SWAP4 SWAP3 POP POP POP JUMP JUMPDEST PUSH1 0x0 PUSH2 0x368 DUP3 PUSH2 0x1EF JUMP JUMPDEST SWAP2 POP PUSH2 0x373 DUP4 PUSH2 0x1EF JUMP JUMPDEST SWAP3 POP DUP3 DUP3 ADD SWAP1 POP DUP3 DUP2 SLT ISZERO PUSH1 0x0 DUP4 SLT AND DUP4 DUP3 SLT PUSH1 0x0 DUP5 SLT ISZERO AND OR ISZERO PUSH2 0x39B JUMPI PUSH2 0x39A PUSH2 0x281 JUMP JUMPDEST JUMPDEST SWAP3 SWAP2 POP POP JUMP INVALID LOG2 PUSH5 0x6970667358 0x22 SLT KECCAK256 PUSH2 0x9F6D LT MLOAD PUSH9 0x1EBC89C991433F4953 GAS 0xBB 0x28 0xE9 PUSH26 0x8FC62B4C8F44E8866736227564736F6C634300081C0033000000 "
        },
        "methodIdentifiers": {
          "count()": "06661abd",
          "decrement()": "2baeceb7",
          "increment()": "d09de08a",
          "reset()": "d826f88f",
          "setCount(int256)": "fc583c8d"
        }
      }
    }
  }
}