{
  "contracts/Launch.sol": {
    "TokenLauncher": {
      "abi": [
        {
          "inputs": [],
          "name": "ETHRefundFailed",
          "type": "error"
        },
        {
          "inputs": [],
          "name": "EndDateMustBeAfterStart",
          "type": "error"
        },
        {
          "inputs": [],
          "name": "InsufficientLaunchpadTokens",
          "type": "error"
        },
        {
          "inputs": [],
          "name": "InvalidTokenPrice",
          "type": "error"
        },
        {
          "inputs": [],
          "name": "InvalidTotalSupply",
          "type": "error"
        },
        {
          "inputs": [],
          "name": "MinimumDurationNotMet",
          "type": "error"
        },
        {
          "inputs": [],
          "name": "NoFundsToWithdraw",
          "type": "error"
        },
        {
          "inputs": [],
          "name": "NoPayment",
          "type": "error"
        },
        {
          "inputs": [],
          "name": "NoRefundsAvailable",
          "type": "error"
        },
        {
          "inputs": [],
          "name": "NoTokensToRefund",
          "type": "error"
        },
        {
          "inputs": [
            {
              "internalType": "address",
              "name": "caller",
              "type": "address"
            },
            {
              "internalType": "address",
              "name": "creator",
              "type": "address"
            }
          ],
          "name": "NotProjectCreator",
          "type": "error"
        },
        {
          "inputs": [
            {
              "internalType": "uint256",
              "name": "projectId",
              "type": "uint256"
            }
          ],
          "name": "ProjectNotFound",
          "type": "error"
        },
        {
          "inputs": [],
          "name": "ReentrancyGuardReentrantCall",
          "type": "error"
        },
        {
          "inputs": [],
          "name": "RefundTooEarly",
          "type": "error"
        },
        {
          "inputs": [],
          "name": "SaleNotStarted",
          "type": "error"
        },
        {
          "inputs": [],
          "name": "StartDateMustBeFuture",
          "type": "error"
        },
        {
          "inputs": [],
          "name": "TargetRaiseAchieved",
          "type": "error"
        },
        {
          "inputs": [
            {
              "internalType": "uint256",
              "name": "current",
              "type": "uint256"
            },
            {
              "internalType": "uint256",
              "name": "target",
              "type": "uint256"
            }
          ],
          "name": "TargetRaiseNotMet",
          "type": "error"
        },
        {
          "inputs": [],
          "name": "TransferFailed",
          "type": "error"
        },
        {
          "inputs": [
            {
              "internalType": "address",
              "name": "creator",
              "type": "address"
            },
            {
              "internalType": "uint256",
              "name": "amount",
              "type": "uint256"
            }
          ],
          "name": "WithdrawalFailed",
          "type": "error"
        },
        {
          "anonymous": false,
          "inputs": [
            {
              "indexed": false,
              "internalType": "uint256",
              "name": "projectId",
              "type": "uint256"
            },
            {
              "indexed": false,
              "internalType": "address",
              "name": "creator",
              "type": "address"
            },
            {
              "indexed": false,
              "internalType": "uint256",
              "name": "withdrawAmount",
              "type": "uint256"
            },
            {
              "indexed": false,
              "internalType": "uint256",
              "name": "launchpadFee",
              "type": "uint256"
            }
          ],
          "name": "CreatorWithdraw",
          "type": "event"
        },
        {
          "anonymous": false,
          "inputs": [
            {
              "indexed": false,
              "internalType": "address",
              "name": "tokenAddress",
              "type": "address"
            },
            {
              "indexed": false,
              "internalType": "string",
              "name": "name",
              "type": "string"
            },
            {
              "indexed": false,
              "internalType": "string",
              "name": "symbol",
              "type": "string"
            },
            {
              "indexed": false,
              "internalType": "uint256",
              "name": "totalSupply",
              "type": "uint256"
            },
            {
              "indexed": false,
              "internalType": "string",
              "name": "projectName",
              "type": "string"
            },
            {
              "indexed": false,
              "internalType": "string",
              "name": "projectDescription",
              "type": "string"
            },
            {
              "indexed": false,
              "internalType": "uint256",
              "name": "startDate",
              "type": "uint256"
            },
            {
              "indexed": false,
              "internalType": "uint256",
              "name": "endDate",
              "type": "uint256"
            },
            {
              "indexed": false,
              "internalType": "uint256",
              "name": "tokenPrice",
              "type": "uint256"
            },
            {
              "indexed": false,
              "internalType": "address",
              "name": "creator",
              "type": "address"
            },
            {
              "indexed": false,
              "internalType": "uint256",
              "name": "projectId",
              "type": "uint256"
            }
          ],
          "name": "TokenLaunched",
          "type": "event"
        },
        {
          "anonymous": false,
          "inputs": [
            {
              "indexed": false,
              "internalType": "uint256",
              "name": "projectId",
              "type": "uint256"
            },
            {
              "indexed": false,
              "internalType": "address",
              "name": "buyer",
              "type": "address"
            },
            {
              "indexed": false,
              "internalType": "uint256",
              "name": "amount",
              "type": "uint256"
            },
            {
              "indexed": false,
              "internalType": "uint256",
              "name": "cost",
              "type": "uint256"
            },
            {
              "indexed": false,
              "internalType": "uint256",
              "name": "purchaseId",
              "type": "uint256"
            }
          ],
          "name": "TokensPurchased",
          "type": "event"
        },
        {
          "anonymous": false,
          "inputs": [
            {
              "indexed": false,
              "internalType": "uint256",
              "name": "projectId",
              "type": "uint256"
            },
            {
              "indexed": false,
              "internalType": "address",
              "name": "refunder",
              "type": "address"
            },
            {
              "indexed": false,
              "internalType": "uint256",
              "name": "totalRefundAmount",
              "type": "uint256"
            }
          ],
          "name": "TokensRefunded",
          "type": "event"
        },
        {
          "inputs": [
            {
              "internalType": "uint256",
              "name": "projectId",
              "type": "uint256"
            }
          ],
          "name": "buyTokens",
          "outputs": [],
          "stateMutability": "payable",
          "type": "function"
        },
        {
          "inputs": [
            {
              "internalType": "uint256",
              "name": "projectId",
              "type": "uint256"
            },
            {
              "internalType": "uint256",
              "name": "paymentAmount",
              "type": "uint256"
            }
          ],
          "name": "calculateTokenAmount",
          "outputs": [
            {
              "internalType": "uint256",
              "name": "tokenAmount",
              "type": "uint256"
            }
          ],
          "stateMutability": "view",
          "type": "function"
        },
        {
          "inputs": [
            {
              "internalType": "address",
              "name": "",
              "type": "address"
            },
            {
              "internalType": "uint256",
              "name": "",
              "type": "uint256"
            }
          ],
          "name": "creatorToProjectIds",
          "outputs": [
            {
              "internalType": "uint256",
              "name": "",
              "type": "uint256"
            }
          ],
          "stateMutability": "view",
          "type": "function"
        },
        {
          "inputs": [],
          "name": "getAllProjects",
          "outputs": [
            {
              "components": [
                {
                  "internalType": "uint256",
                  "name": "projectId",
                  "type": "uint256"
                },
                {
                  "internalType": "address",
                  "name": "tokenAddress",
                  "type": "address"
                },
                {
                  "internalType": "string",
                  "name": "name",
                  "type": "string"
                },
                {
                  "internalType": "string",
                  "name": "symbol",
                  "type": "string"
                },
                {
                  "internalType": "uint256",
                  "name": "totalSupply",
                  "type": "uint256"
                },
                {
                  "internalType": "string",
                  "name": "projectName",
                  "type": "string"
                },
                {
                  "internalType": "string",
                  "name": "projectDescription",
                  "type": "string"
                },
                {
                  "internalType": "uint256",
                  "name": "startDate",
                  "type": "uint256"
                },
                {
                  "internalType": "uint256",
                  "name": "endDate",
                  "type": "uint256"
                },
                {
                  "internalType": "uint256",
                  "name": "tokenPrice",
                  "type": "uint256"
                },
                {
                  "internalType": "address",
                  "name": "creator",
                  "type": "address"
                },
                {
                  "internalType": "uint256",
                  "name": "launchDate",
                  "type": "uint256"
                },
                {
                  "internalType": "uint256",
                  "name": "participantCount",
                  "type": "uint256"
                }
              ],
              "internalType": "struct TokenLauncher.Project[]",
              "name": "",
              "type": "tuple[]"
            }
          ],
          "stateMutability": "view",
          "type": "function"
        },
        {
          "inputs": [
            {
              "internalType": "uint256",
              "name": "projectId",
              "type": "uint256"
            }
          ],
          "name": "getProjectDetails",
          "outputs": [
            {
              "components": [
                {
                  "components": [
                    {
                      "internalType": "uint256",
                      "name": "projectId",
                      "type": "uint256"
                    },
                    {
                      "internalType": "address",
                      "name": "tokenAddress",
                      "type": "address"
                    },
                    {
                      "internalType": "string",
                      "name": "name",
                      "type": "string"
                    },
                    {
                      "internalType": "string",
                      "name": "symbol",
                      "type": "string"
                    },
                    {
                      "internalType": "uint256",
                      "name": "totalSupply",
                      "type": "uint256"
                    },
                    {
                      "internalType": "string",
                      "name": "projectName",
                      "type": "string"
                    },
                    {
                      "internalType": "string",
                      "name": "projectDescription",
                      "type": "string"
                    },
                    {
                      "internalType": "uint256",
                      "name": "startDate",
                      "type": "uint256"
                    },
                    {
                      "internalType": "uint256",
                      "name": "endDate",
                      "type": "uint256"
                    },
                    {
                      "internalType": "uint256",
                      "name": "tokenPrice",
                      "type": "uint256"
                    },
                    {
                      "internalType": "address",
                      "name": "creator",
                      "type": "address"
                    },
                    {
                      "internalType": "uint256",
                      "name": "launchDate",
                      "type": "uint256"
                    },
                    {
                      "internalType": "uint256",
                      "name": "participantCount",
                      "type": "uint256"
                    }
                  ],
                  "internalType": "struct TokenLauncher.Project",
                  "name": "project",
                  "type": "tuple"
                },
                {
                  "internalType": "uint256",
                  "name": "totalSpent",
                  "type": "uint256"
                },
                {
                  "components": [
                    {
                      "internalType": "uint256",
                      "name": "amount",
                      "type": "uint256"
                    },
                    {
                      "internalType": "uint256",
                      "name": "cost",
                      "type": "uint256"
                    },
                    {
                      "internalType": "uint256",
                      "name": "purchaseDate",
                      "type": "uint256"
                    },
                    {
                      "internalType": "bool",
                      "name": "refunded",
                      "type": "bool"
                    }
                  ],
                  "internalType": "struct TokenLauncher.Purchase[]",
                  "name": "purchases",
                  "type": "tuple[]"
                },
                {
                  "internalType": "bool",
                  "name": "hasParticipated",
                  "type": "bool"
                }
              ],
              "internalType": "struct TokenLauncher.ProjectWithUserInfo",
              "name": "",
              "type": "tuple"
            }
          ],
          "stateMutability": "view",
          "type": "function"
        },
        {
          "inputs": [
            {
              "internalType": "uint256",
              "name": "projectId",
              "type": "uint256"
            },
            {
              "internalType": "address",
              "name": "user",
              "type": "address"
            }
          ],
          "name": "getProjectWithUserInfo",
          "outputs": [
            {
              "components": [
                {
                  "components": [
                    {
                      "internalType": "uint256",
                      "name": "projectId",
                      "type": "uint256"
                    },
                    {
                      "internalType": "address",
                      "name": "tokenAddress",
                      "type": "address"
                    },
                    {
                      "internalType": "string",
                      "name": "name",
                      "type": "string"
                    },
                    {
                      "internalType": "string",
                      "name": "symbol",
                      "type": "string"
                    },
                    {
                      "internalType": "uint256",
                      "name": "totalSupply",
                      "type": "uint256"
                    },
                    {
                      "internalType": "string",
                      "name": "projectName",
                      "type": "string"
                    },
                    {
                      "internalType": "string",
                      "name": "projectDescription",
                      "type": "string"
                    },
                    {
                      "internalType": "uint256",
                      "name": "startDate",
                      "type": "uint256"
                    },
                    {
                      "internalType": "uint256",
                      "name": "endDate",
                      "type": "uint256"
                    },
                    {
                      "internalType": "uint256",
                      "name": "tokenPrice",
                      "type": "uint256"
                    },
                    {
                      "internalType": "address",
                      "name": "creator",
                      "type": "address"
                    },
                    {
                      "internalType": "uint256",
                      "name": "launchDate",
                      "type": "uint256"
                    },
                    {
                      "internalType": "uint256",
                      "name": "participantCount",
                      "type": "uint256"
                    }
                  ],
                  "internalType": "struct TokenLauncher.Project",
                  "name": "project",
                  "type": "tuple"
                },
                {
                  "internalType": "uint256",
                  "name": "totalSpent",
                  "type": "uint256"
                },
                {
                  "components": [
                    {
                      "internalType": "uint256",
                      "name": "amount",
                      "type": "uint256"
                    },
                    {
                      "internalType": "uint256",
                      "name": "cost",
                      "type": "uint256"
                    },
                    {
                      "internalType": "uint256",
                      "name": "purchaseDate",
                      "type": "uint256"
                    },
                    {
                      "internalType": "bool",
                      "name": "refunded",
                      "type": "bool"
                    }
                  ],
                  "internalType": "struct TokenLauncher.Purchase[]",
                  "name": "purchases",
                  "type": "tuple[]"
                },
                {
                  "internalType": "bool",
                  "name": "hasParticipated",
                  "type": "bool"
                }
              ],
              "internalType": "struct TokenLauncher.ProjectWithUserInfo",
              "name": "",
              "type": "tuple"
            }
          ],
          "stateMutability": "view",
          "type": "function"
        },
        {
          "inputs": [
            {
              "internalType": "uint256",
              "name": "projectId",
              "type": "uint256"
            }
          ],
          "name": "getTargetRaise",
          "outputs": [
            {
              "internalType": "uint256",
              "name": "",
              "type": "uint256"
            }
          ],
          "stateMutability": "view",
          "type": "function"
        },
        {
          "inputs": [
            {
              "internalType": "string",
              "name": "name",
              "type": "string"
            },
            {
              "internalType": "string",
              "name": "symbol",
              "type": "string"
            },
            {
              "internalType": "uint256",
              "name": "totalSupply",
              "type": "uint256"
            },
            {
              "internalType": "string",
              "name": "projectName",
              "type": "string"
            },
            {
              "internalType": "string",
              "name": "projectDescription",
              "type": "string"
            },
            {
              "internalType": "uint256",
              "name": "startDate",
              "type": "uint256"
            },
            {
              "internalType": "uint256",
              "name": "endDate",
              "type": "uint256"
            },
            {
              "internalType": "uint256",
              "name": "tokenPrice",
              "type": "uint256"
            }
          ],
          "name": "launchToken",
          "outputs": [
            {
              "internalType": "address",
              "name": "",
              "type": "address"
            }
          ],
          "stateMutability": "nonpayable",
          "type": "function"
        },
        {
          "inputs": [
            {
              "internalType": "uint256",
              "name": "",
              "type": "uint256"
            }
          ],
          "name": "projects",
          "outputs": [
            {
              "internalType": "uint256",
              "name": "projectId",
              "type": "uint256"
            },
            {
              "internalType": "address",
              "name": "tokenAddress",
              "type": "address"
            },
            {
              "internalType": "string",
              "name": "name",
              "type": "string"
            },
            {
              "internalType": "string",
              "name": "symbol",
              "type": "string"
            },
            {
              "internalType": "uint256",
              "name": "totalSupply",
              "type": "uint256"
            },
            {
              "internalType": "string",
              "name": "projectName",
              "type": "string"
            },
            {
              "internalType": "string",
              "name": "projectDescription",
              "type": "string"
            },
            {
              "internalType": "uint256",
              "name": "startDate",
              "type": "uint256"
            },
            {
              "internalType": "uint256",
              "name": "endDate",
              "type": "uint256"
            },
            {
              "internalType": "uint256",
              "name": "tokenPrice",
              "type": "uint256"
            },
            {
              "internalType": "address",
              "name": "creator",
              "type": "address"
            },
            {
              "internalType": "uint256",
              "name": "launchDate",
              "type": "uint256"
            },
            {
              "internalType": "uint256",
              "name": "participantCount",
              "type": "uint256"
            }
          ],
          "stateMutability": "view",
          "type": "function"
        },
        {
          "inputs": [
            {
              "internalType": "uint256",
              "name": "",
              "type": "uint256"
            },
            {
              "internalType": "address",
              "name": "",
              "type": "address"
            },
            {
              "internalType": "uint256",
              "name": "",
              "type": "uint256"
            }
          ],
          "name": "purchases",
          "outputs": [
            {
              "internalType": "uint256",
              "name": "amount",
              "type": "uint256"
            },
            {
              "internalType": "uint256",
              "name": "cost",
              "type": "uint256"
            },
            {
              "internalType": "uint256",
              "name": "purchaseDate",
              "type": "uint256"
            },
            {
              "internalType": "bool",
              "name": "refunded",
              "type": "bool"
            }
          ],
          "stateMutability": "view",
          "type": "function"
        },
        {
          "inputs": [
            {
              "internalType": "uint256",
              "name": "projectId",
              "type": "uint256"
            }
          ],
          "name": "refundTokens",
          "outputs": [],
          "stateMutability": "nonpayable",
          "type": "function"
        },
        {
          "inputs": [
            {
              "internalType": "uint256",
              "name": "",
              "type": "uint256"
            }
          ],
          "name": "totalRaised",
          "outputs": [
            {
              "internalType": "uint256",
              "name": "",
              "type": "uint256"
            }
          ],
          "stateMutability": "view",
          "type": "function"
        },
        {
          "inputs": [
            {
              "internalType": "uint256",
              "name": "projectId",
              "type": "uint256"
            }
          ],
          "name": "withdrawFunds",
          "outputs": [],
          "stateMutability": "nonpayable",
          "type": "function"
        }
      ],
      "evm": {
        "bytecode": {
          "linkReferences": {},
          "object": "60808060405234601a576001600055612f9f90816100208239f35b600080fdfe6080604052600436101561001257600080fd5b60003560e01c806303553835146118535780630c71e114146117f8578063107046bd146116da578063155dd5ee1461157e5780633610724e1461113f5780633922e819146111135780635dfee9bb14610e235780635f8439e314610d7957806361476c951461049757806380d0382914610366578063823c9cd9146102df5780638551b2f8146102b95763a13cf6a8146100ab57600080fd5b346102b45760403660031901126102b4576004356100c7611874565b6000906100d2611d54565b50828252600560205260408220600101546001600160a01b0316156102a15781926020926040516101038582611929565b8181529092909183916001600160a01b038116610162575b508160409161015e9793526005865220936101416040519561013c876118f2565b611dab565b855284015260408301521515606082015260405191829182611af9565b0390f35b8183526008865260408084206001600160a01b03831680865290885281852054848652600989528286209186529088529084205460ff90911695501561011b578183526009865260408084206001600160a01b0390921684529086528220805491959490935091906101d381611d80565b936101e16040519586611929565b81855282528482208290868087015b84841061025a5750505050508290805b84518110156102495760606102158287611d97565b51015115610226575b600101610200565b96610241600191876102388b89611d97565b51015190611ce4565b97905061021e565b50939491939092509061015e61011b565b60019160049160405161026c816118f2565b8554815284860154838201526002860154604082015260ff6003870154161515606082015281520192019201919087906101f0565b5060249163a89b369d60e01b8252600452fd5b600080fd5b346102b45760203660031901126102b45760206102d7600435611e6d565b604051908152f35b346102b45760603660031901126102b4576102f8611874565b60443590600435600052600960205260406000209060018060a01b0316600052602052604060002080548210156102b45760809161033591611bf5565b5080549060018101549060ff6003600283015492015416916040519384526020840152604083015215156060820152f35b346102b45760003660031901126102b45760035461038381611d80565b906103916040519283611929565b8082526103a0601f1991611d80565b0160005b8181106104805760045483908060005b81811061042357836040518091602082016020835281518091526040830190602060408260051b8601019301916000905b8282106103f457505050500390f35b919360019193955060206104138192603f198a82030186528851611a2f565b96019201920185949391926103e5565b60008382101561046c57906104506040826020856004600197522001600090548152600560205220611dab565b61045a8287611d97565b526104658186611d97565b50016103b4565b634e487b7160e01b81526032600452602490fd5b60209061048b611cf1565b828286010152016103a4565b346102b4576101003660031901126102b4576004356001600160401b0381116102b4576104c8903690600401611bae565b6024356001600160401b0381116102b4576104e7903690600401611bae565b90604435916064356001600160401b0381116102b45761050b903690600401611bae565b906084356001600160401b0381116102b45761052b903690600401611bae565b9060a43560c43560e435428310610d685782821115610d575762278d008301808411610d41578210610d30578715610d1f578015610d0e576040516110b78082018281106001600160401b038211176109e0578291611eb3833961014081526105d26105c46105b06105a28d6101408601906119ee565b84810360208601528a6119ee565b8d604085015283810360608501528b6119ee565b8281036080840152896119ee565b908660a08201528560c08201528460e0820152336101008201526101203091015203906000f0918215610d025761060a600154611c93565b80600155604051610651816106436020820194334287916054939183526001600160601b03199060601b16602083015260348201520190565b03601f198101835282611929565b51902060a01c9260018060a01b03169760405161066d8161190d565b84815284602082018b8152604083018481528d60608501908b8252608086019081528d60a087019081528d60c0880190815260e08801918d83526101008901938b85526101208a01958d87526101408b01973389526101608c0199428b526101808d019b60008d52600052600560205260406000209c518d5560018060a01b0390511660018d019060018060a01b03166001600160601b0360a01b82541617905560028c0190518051906001600160401b0382116109e057819061073184546118b8565b601f8111610caf575b50602090601f8311600114610c4a57600092610c3f575b50508160011b916000199060031b1c19161790555b51805160038c01916001600160401b0382116109e057819061078884546118b8565b601f8111610bec575b50602090601f8311600114610b8757600092610b7c575b50508160011b916000199060031b1c19161790555b5160048a015551805160058a01916001600160401b0382116109e05781906107e584546118b8565b601f8111610b29575b50602090601f8311600114610ac457600092610ab9575b50508160011b916000199060031b1c19161790555b51805160068901916001600160401b0382116109e05761083a83546118b8565b601f8111610a71575b50602090601f8311600114610a0157600c999897969594939291600091836109f6575b50508160011b916000199060031b1c19161790555b51600788015551600887015551600986015551600a850180546001600160a01b0319166001600160a01b039290921691909117905551600b84015551910155600454600160401b8110156109e057846108df8260016108f89401600455600461188a565b90919082549060031b91821b91600019901b1916179055565b336000526006602052604060002096875491600160401b8310156109e05760209b7f699920b00afa5868f5bbbb98f98355cdbf8f5466a705966b1764c5fa6be056629a6109968d9a6109886109a9956109626101609f6108df8b8f9260016109b79e01815561188a565b61096d600354611c93565b6003556040519e8f9e8f9081526020829082015201906119ee565b8c810360408e0152906119ee565b9160608b015289820360808b01526119ee565b9087820360a08901526119ee565b9360c086015260e0850152610100840152336101208401526101408301520390a1604051908152f35b634e487b7160e01b600052604160045260246000fd5b015190503880610866565b90601f1983169184600052816000209260005b818110610a595750916001939185600c9d9c9b9a999897969410610a40575b505050811b01905561087b565b015160001960f88460031b161c19169055388080610a33565b92936020600181928786015181550195019301610a14565b836000526020600020601f840160051c81019160208510610aaf575b601f0160051c01905b818110610aa35750610843565b60008155600101610a96565b9091508190610a8d565b015190503880610805565b60008581528281209350601f198516905b818110610b115750908460019594939210610af8575b505050811b01905561081a565b015160001960f88460031b161c19169055388080610aeb565b92936020600181928786015181550195019301610ad5565b909150836000526020600020601f840160051c81019160208510610b72575b90601f859493920160051c01905b818110610b6357506107ee565b60008155849350600101610b56565b9091508190610b48565b0151905038806107a8565b60008581528281209350601f198516905b818110610bd45750908460019594939210610bbb575b505050811b0190556107bd565b015160001960f88460031b161c19169055388080610bae565b92936020600181928786015181550195019301610b98565b909150836000526020600020601f840160051c81019160208510610c35575b90601f859493920160051c01905b818110610c265750610791565b60008155849350600101610c19565b9091508190610c0b565b015190503880610751565b60008581528281209350601f198516905b818110610c975750908460019594939210610c7e575b505050811b019055610766565b015160001960f88460031b161c19169055388080610c71565b92936020600181928786015181550195019301610c5b565b909150836000526020600020601f840160051c81019160208510610cf8575b90601f859493920160051c01905b818110610ce9575061073a565b60008155849350600101610cdc565b9091508190610cce565b6040513d6000823e3d90fd5b637841c2c960e11b60005260046000fd5b6334bbd58560e01b60005260046000fd5b63031f12f360e01b60005260046000fd5b634e487b7160e01b600052601160045260246000fd5b63319d1af960e11b60005260046000fd5b635b7ce02360e11b60005260046000fd5b346102b45760203660031901126102b457600435610d95611d54565b506000610da0611d54565b50818152600560205260408120600101546001600160a01b031615610e115760405161015e92909190610dd4602084611929565b818352815260056020526040812091610df36040519361013c856118f2565b83528160208401526040830152606082015260405191829182611af9565b60249163a89b369d60e01b8252600452fd5b346102b45760203660031901126102b457600435610e3f611e90565b80600052600560205260076040600020015462278d008101809111610d415742106111025780600052600a602052604060002054610e7c82611e6d565b11156110f1576000818152600560205260409020600101546001600160a01b031680156110dc57600082815260086020908152604080832033845290915290205460ff16156110cb5760008281526009602090815260408083203384529091528120815b8154811015610fde57610ef38183611bf5565b50600381019081549160ff831615610f11575b505050600101610ee0565b8160019182610f2d959894549860ff1916179055015490611ce4565b92604051906323b872dd60e01b825233600483015230602483015260448201526020816064816000895af1908115610d0257600091610fb0575b5015610f7557858080610f06565b60405162461bcd60e51b8152602060048201526013602482015272151bdad95b881c995d1d5c9b8819985a5b1959606a1b6044820152606490fd5b610fd1915060203d8111610fd7575b610fc98183611929565b810190611ccc565b86610f67565b503d610fbf565b8483801561108f5781600052600a6020526040600020610fff828254611c86565b9055600080808084335af1611012611c56565b5015611056577f6bdccf7c73e342b75a862529622158cc3e873ad016babc6efaef7c758da4125e916060916040519182523360208301526040820152a16001600055005b60405162461bcd60e51b8152602060048201526011602482015270115512081c99599d5b990819985a5b1959607a1b6044820152606490fd5b60405162461bcd60e51b81526020600482015260146024820152734e6f20726566756e647320617661696c61626c6560601b6044820152606490fd5b6366eabd0760e01b60005260046000fd5b5063a89b369d60e01b60005260045260246000fd5b63547f093760e01b60005260046000fd5b634a01daaf60e11b60005260046000fd5b346102b45760203660031901126102b457600435600052600a6020526020604060002054604051908152f35b60203660031901126102b457600435611156611e90565b60008181526005602052604090206001810180549091906001600160a01b03161561156957600781015442111561155857341561154757600083815260086020908152604080832033845290915290205460ff16156114c7575b506111bb3483611c11565b90546040516370a0823160e01b81523060048201526001600160a01b039091169290602081602481875afa908115610d0257600091611495575b5060405163313ce56760e01b8152602081600481885afa908115610d025761122f9161122991600091611465575b50611cbb565b84611c43565b116114845761123f600254611c93565b80600255604051611278816106436020820194334287916054939183526001600160601b03199060601b16602083015260348201520190565b51902060a01c9260405163313ce56760e01b8152602081600481855afa908115610d02576112b191611229916000916114655750611cbb565b604051906112be826118f2565b81523460208083019182524260408085019182526000606086018181528882526009855282822033835290945220805492949392600160401b8110156109e05761130d91600182018155611bf5565b92909261144f57600393518355516001830155516002820155019051151560ff801983541691161790556040519063313ce56760e01b8252602082600481845afa908115610d0257604461137561136f60209460009687916114225750611cbb565b87611c43565b604051948593849263a9059cbb60e01b845233600485015260248401525af1908115610d0257600091611403575b50156113f2577f75f77114b0b88da95841d46a17da78c266e2c6cfbeafaf83dc456ad9669c33c39260a09260405192835233602084015260408301523460608301526080820152a16001600055005b6312171d8360e31b60005260046000fd5b61141c915060203d602011610fd757610fc98183611929565b846113a3565b6114429150863d8811611448575b61143a8183611929565b810190611ca2565b8a611223565b503d611430565b634e487b7160e01b600052600060045260246000fd5b61147e915060203d6020116114485761143a8183611929565b87611223565b6324aef33160e11b60005260046000fd5b90506020813d6020116114bf575b816114b060209383611929565b810103126102b45751846111f5565b3d91506114a3565b60008381526008602090815260408083203384528252808320805460ff191660011790558583526007909152902080549190600160401b8310156109e05782611517916001600c9501815561188a565b81546001600160a01b0360039290921b91821b19163390911b17905501805461153f90611c93565b9055826111b0565b63bd1fa9d360e01b60005260046000fd5b6316851a3760e11b60005260046000fd5b8263a89b369d60e01b60005260045260246000fd5b346102b45760203660031901126102b45760043561159a611e90565b600081815260056020526040902060018101546001600160a01b0316156110dc57600a0180546001600160a01b03169190338390036116c15781600052600a602052604060002054906115ec83611e6d565b8083106116a9575081156116985760638202828104606303610d415760008080606481940480985af161161d611c56565b501561167f57547f8946817b7f4dc96368878328f63b61efddac421daaf0d041668e7566f067a0e193608093926001600160a01b0390921691611661908290611c86565b91604051938452602084015260408301526060820152a16001600055005b836392873d1360e01b6000523360045260245260446000fd5b6367e3990d60e01b60005260046000fd5b82630e39a22560e31b60005260045260245260446000fd5b82630bcf9e5b60e41b6000523360045260245260446000fd5b346102b45760203660031901126102b4576004356000908152600560205260409020805460018201546001600160a01b0316916117196002820161194a565b6117256003830161194a565b600483015492906117386005830161194a565b936117456006840161194a565b94600784015495600885015491600986015493600160a01b60019003600a8801541695600b88015497600c0154986040519c8d9c8d5260208d015260408c016101a090526101a08c01611797916119ee565b8b810360608d01526117a8916119ee565b9060808b015289810360a08b01526117bf916119ee565b88810360c08a01526117d0916119ee565b9560e08801526101008701526101208601526101408501526101608401526101808301520390f35b346102b45760403660031901126102b4576004356001600160a01b038116908190036102b457602435906000526006602052604060002080548210156102b4576020916118449161188a565b90549060031b1c604051908152f35b346102b45760403660031901126102b45760206102d7602435600435611c11565b602435906001600160a01b03821682036102b457565b80548210156118a25760005260206000200190600090565b634e487b7160e01b600052603260045260246000fd5b90600182811c921680156118e8575b60208310146118d257565b634e487b7160e01b600052602260045260246000fd5b91607f16916118c7565b608081019081106001600160401b038211176109e057604052565b6101a081019081106001600160401b038211176109e057604052565b90601f801991011681019081106001600160401b038211176109e057604052565b906040519182600082549261195e846118b8565b80845293600181169081156119cc5750600114611985575b5061198392500383611929565b565b90506000929192526020600020906000915b8183106119b05750509060206119839282010138611976565b6020919350806001915483858901015201910190918492611997565b90506020925061198394915060ff191682840152151560051b82010138611976565b919082519283825260005b848110611a1a575050826000602080949584010152601f8019910116010190565b806020809284010151828286010152016119f9565b908151815260018060a01b03602083015116602082015261018080611aae611a9c611a80611a6e60408801516101a060408901526101a08801906119ee565b606088015187820360608901526119ee565b6080870151608087015260a087015186820360a08801526119ee565b60c086015185820360c08701526119ee565b9360e081015160e085015261010081015161010085015261012081015161012085015260018060a01b0361014082015116610140850152610160810151610160850152015191015290565b60208152611b1382516080602084015260a0830190611a2f565b9160208101516040830152604081015192601f198382030160608401526020808551928381520194019060005b818110611b595750505060606080910151151591015290565b9091946020608060019260608951805183528481015185840152604081015160408401520151151560608201520196019101919091611b40565b6001600160401b0381116109e057601f01601f191660200190565b81601f820112156102b457803590611bc582611b93565b92611bd36040519485611929565b828452602083830101116102b457816000926020809301838601378301015290565b80548210156118a25760005260206000209060021b0190600090565b6000526005602052600960406000200154908115611c2d570490565b634e487b7160e01b600052601260045260246000fd5b81810292918115918404141715610d4157565b3d15611c81573d90611c6782611b93565b91611c756040519384611929565b82523d6000602084013e565b606090565b91908203918211610d4157565b6000198114610d415760010190565b908160209103126102b4575160ff811681036102b45790565b60ff16604d8111610d4157600a0a90565b908160209103126102b4575180151581036102b45790565b91908201809211610d4157565b60405190611cfe8261190d565b60006101808382815282602082015260606040820152606080820152826080820152606060a0820152606060c08201528260e0820152826101008201528261012082015282610140820152826101608201520152565b60405190611d61826118f2565b6000606083611d6e611cf1565b81528260208201528160408201520152565b6001600160401b0381116109e05760051b60200190565b80518210156118a25760209160051b010190565b90604051611db88161190d565b8254815260018301546001600160a01b0316602082015291829061018090600c90611de56002820161194a565b6040850152611df66003820161194a565b606085015260048101546080850152611e116005820161194a565b60a0850152611e226006820161194a565b60c0850152600781015460e085015260088101546101008501526009810154610120850152600a8101546001600160a01b0316610140850152600b8101546101608501520154910152565b6000526005602052611e8d60406000206009600482015491015490611c43565b90565b600260005414611ea1576002600055565b633ee5aeb560e01b60005260046000fdfe60c060405234610707576110b7803803806100198161070c565b928339810190610140818303126107075780516001600160401b0381116107075782610046918301610731565b60208201519091906001600160401b0381116107075783610068918301610731565b604082015160608301519094906001600160401b038111610707578161008f918501610731565b608084015190916001600160401b038211610707576100af918501610731565b60a08401519060c08501519260e0860151946100db6101206100d46101008a0161079c565b980161079c565b885190986001600160401b0382116104465760035490600182811c921680156106fd575b60208310146104265781601f84931161068d575b50602090601f83116001146106255760009261061a575b50508160011b916000199060031b1c1916176003555b8051906001600160401b0382116104465760045490600182811c92168015610610575b60208310146104265781601f8493116105a0575b50602090601f83116001146105385760009261052d575b50508160011b916000199060031b1c1916176004555b8051906001600160401b0382116104465760055490600182811c92168015610523575b60208310146104265781601f8493116104cf575b50602090601f83116001146104675760009261045c575b50508160011b916000199060031b1c1916176005555b8051906001600160401b0382116104465760065490600182811c9216801561043c575b60208310146104265781601f8493116103b6575b50602090601f831160011461034e57600092610343575b50508160011b916000199060031b1c1916176006555b60075560085560805260a052670de0b6b3a7640000820291808304670de0b6b3a76400001490151715610317576001600160a01b031690811561032d57600254818101809111610317576002557fddf252ad1be2c89b69c2b068fc378daa952ba7f163c4a11628f55a4df523b3ef602060009284845283825260408420818154019055604051908152a360405161090690816107b182396080518161037c015260a051816107670152f35b634e487b7160e01b600052601160045260246000fd5b63ec442f0560e01b600052600060045260246000fd5b015190503880610256565b600660009081528281209350601f198516905b81811061039e5750908460019594939210610385575b505050811b0160065561026c565b015160001960f88460031b161c19169055388080610377565b92936020600181928786015181550195019301610361565b60066000529091507ff652222313e28459528d920b65115c16c04f3efc82aaedc97be59f3f377c0d3f601f840160051c8101916020851061041c575b90601f859493920160051c01905b81811061040d575061023f565b60008155849350600101610400565b90915081906103f2565b634e487b7160e01b600052602260045260246000fd5b91607f169161022b565b634e487b7160e01b600052604160045260246000fd5b0151905038806101f2565b600560009081528281209350601f198516905b8181106104b7575090846001959493921061049e575b505050811b01600555610208565b015160001960f88460031b161c19169055388080610490565b9293602060018192878601518155019501930161047a565b90915060056000526020600020601f840160051c81019160208510610519575b90601f859493920160051c01905b81811061050a57506101db565b600081558493506001016104fd565b90915081906104ef565b91607f16916101c7565b01519050388061018e565b600460009081528281209350601f198516905b818110610588575090846001959493921061056f575b505050811b016004556101a4565b015160001960f88460031b161c19169055388080610561565b9293602060018192878601518155019501930161054b565b60046000529091507f8a35acfbc15ff81a39ae7d344fd709f28e8600b4aa8c65c6b64bfe7fe36bd19b601f840160051c81019160208510610606575b90601f859493920160051c01905b8181106105f75750610177565b600081558493506001016105ea565b90915081906105dc565b91607f1691610163565b01519050388061012a565b600360009081528281209350601f198516905b818110610675575090846001959493921061065c575b505050811b01600355610140565b015160001960f88460031b161c1916905538808061064e565b92936020600181928786015181550195019301610638565b60036000529091507fc2575a0e9e593c00f959f8c92f12db2869c3395a3b0502d05e2516446f71f85b601f840160051c810191602085106106f3575b90601f859493920160051c01905b8181106106e45750610113565b600081558493506001016106d7565b90915081906106c9565b91607f16916100ff565b600080fd5b6040519190601f01601f191682016001600160401b0381118382101761044657604052565b81601f82011215610707578051906001600160401b03821161044657610760601f8301601f191660200161070c565b92828452602083830101116107075760005b82811061078757505060206000918301015290565b80602080928401015182828701015201610772565b51906001600160a01b03821682036107075756fe608080604052600436101561001357600080fd5b60003560e01c90816302d05d3f146107545750806306fdde031461067c578063095ea7b3146105f65780630b97bc86146105d857806318160ddd146105ba57806323b872dd146104cd578063313ce567146104b157806370a0823114610477578063755f047b1461039f5780637ff9b5961461036457806395d89b411461028c5780639a33e30014610169578063a9059cbb14610138578063c24a0f8b1461011a5763dd62ed3e146100c457600080fd5b34610115576040366003190112610115576100dd6107df565b6100e56107f5565b6001600160a01b039182166000908152600160209081526040808320949093168252928352819020549051908152f35b600080fd5b34610115576000366003190112610115576020600854604051908152f35b346101155760403660031901126101155761015e6101546107df565b602435903361080b565b602060405160018152f35b346101155760003660031901126101155760405160006005548060011c90600181168015610282575b60208310811461026e5782855290811561025257506001146101fb575b50819003601f01601f191681019067ffffffffffffffff8211818310176101e557604082905281906101e19082610796565b0390f35b634e487b7160e01b600052604160045260246000fd5b600560009081529091507f036b6384b5eca791c62761152d0c79bb0604c104a5fb6f4eb0703f3154bb3db05b82821061023c575060209150820101826101af565b6001816020925483858801015201910190610227565b90506020925060ff191682840152151560051b820101826101af565b634e487b7160e01b84526022600452602484fd5b91607f1691610192565b346101155760003660031901126101155760405160006004548060011c9060018116801561035a575b60208310811461026e5782855290811561025257506001146103035750819003601f01601f191681019067ffffffffffffffff8211818310176101e557604082905281906101e19082610796565b600460009081529091507f8a35acfbc15ff81a39ae7d344fd709f28e8600b4aa8c65c6b64bfe7fe36bd19b5b828210610344575060209150820101826101af565b600181602092548385880101520191019061032f565b91607f16916102b5565b346101155760003660031901126101155760206040517f00000000000000000000000000000000000000000000000000000000000000008152f35b346101155760003660031901126101155760405160006006548060011c9060018116801561046d575b60208310811461026e5782855290811561025257506001146104165750819003601f01601f191681019067ffffffffffffffff8211818310176101e557604082905281906101e19082610796565b600660009081529091507ff652222313e28459528d920b65115c16c04f3efc82aaedc97be59f3f377c0d3f5b828210610457575060209150820101826101af565b6001816020925483858801015201910190610442565b91607f16916103c8565b34610115576020366003190112610115576001600160a01b036104986107df565b1660005260006020526020604060002054604051908152f35b3461011557600036600319011261011557602060405160128152f35b34610115576060366003190112610115576104e66107df565b6104ee6107f5565b6001600160a01b038216600081815260016020818152604080842033855290915290912054919360443593929091810161052e575b5061015e935061080b565b83811061059d5784156105875733156105715761015e946000526001602052604060002060018060a01b0333166000526020528360406000209103905584610523565b634a1406b160e11b600052600060045260246000fd5b63e602df0560e01b600052600060045260246000fd5b8390637dc7a0d960e11b6000523360045260245260445260646000fd5b34610115576000366003190112610115576020600254604051908152f35b34610115576000366003190112610115576020600754604051908152f35b346101155760403660031901126101155761060f6107df565b602435903315610587576001600160a01b031690811561057157336000526001602052604060002082600052602052806040600020556040519081527f8c5be1e5ebec7d5bd14f71427d1e84f3dd0314c0f7b2291e5b200ac8c7c3b92560203392a3602060405160018152f35b346101155760003660031901126101155760405160006003548060011c9060018116801561074a575b60208310811461026e5782855290811561025257506001146106f35750819003601f01601f191681019067ffffffffffffffff8211818310176101e557604082905281906101e19082610796565b600360009081529091507fc2575a0e9e593c00f959f8c92f12db2869c3395a3b0502d05e2516446f71f85b5b828210610734575060209150820101826101af565b600181602092548385880101520191019061071f565b91607f16916106a5565b34610115576000366003190112610115577f00000000000000000000000000000000000000000000000000000000000000006001600160a01b03168152602090f35b91909160208152825180602083015260005b8181106107c9575060409293506000838284010152601f8019910116010190565b80602080928701015160408286010152016107a8565b600435906001600160a01b038216820361011557565b602435906001600160a01b038216820361011557565b6001600160a01b03169081156108ba576001600160a01b03169182156108a457600082815280602052604081205482811061088a5791604082827fddf252ad1be2c89b69c2b068fc378daa952ba7f163c4a11628f55a4df523b3ef958760209652828652038282205586815280845220818154019055604051908152a3565b916064928463391434e360e21b8452600452602452604452fd5b63ec442f0560e01b600052600060045260246000fd5b634b637e8f60e11b600052600060045260246000fdfea2646970667358221220fcce09720b23325bed0cf1b915cb28923b05e52294db7fc50720b0a129ec39b964736f6c634300081c0033a2646970667358221220c38372538f0031dd84bd2c737782f33eaba194c98df96730c1781338aa11be2c64736f6c634300081c0033",
          "opcodes": "PUSH1 0x80 DUP1 PUSH1 0x40 MSTORE CALLVALUE PUSH1 0x1A JUMPI PUSH1 0x1 PUSH1 0x0 SSTORE PUSH2 0x2F9F SWAP1 DUP2 PUSH2 0x20 DUP3 CODECOPY RETURN JUMPDEST PUSH1 0x0 DUP1 REVERT INVALID PUSH1 0x80 PUSH1 0x40 MSTORE PUSH1 0x4 CALLDATASIZE LT ISZERO PUSH2 0x12 JUMPI PUSH1 0x0 DUP1 REVERT JUMPDEST PUSH1 0x0 CALLDATALOAD PUSH1 0xE0 SHR DUP1 PUSH4 0x3553835 EQ PUSH2 0x1853 JUMPI DUP1 PUSH4 0xC71E114 EQ PUSH2 0x17F8 JUMPI DUP1 PUSH4 0x107046BD EQ PUSH2 0x16DA JUMPI DUP1 PUSH4 0x155DD5EE EQ PUSH2 0x157E JUMPI DUP1 PUSH4 0x3610724E EQ PUSH2 0x113F JUMPI DUP1 PUSH4 0x3922E819 EQ PUSH2 0x1113 JUMPI DUP1 PUSH4 0x5DFEE9BB EQ PUSH2 0xE23 JUMPI DUP1 PUSH4 0x5F8439E3 EQ PUSH2 0xD79 JUMPI DUP1 PUSH4 0x61476C95 EQ PUSH2 0x497 JUMPI DUP1 PUSH4 0x80D03829 EQ PUSH2 0x366 JUMPI DUP1 PUSH4 0x823C9CD9 EQ PUSH2 0x2DF JUMPI DUP1 PUSH4 0x8551B2F8 EQ PUSH2 0x2B9 JUMPI PUSH4 0xA13CF6A8 EQ PUSH2 0xAB JUMPI PUSH1 0x0 DUP1 REVERT JUMPDEST CALLVALUE PUSH2 0x2B4 JUMPI PUSH1 0x40 CALLDATASIZE PUSH1 0x3 NOT ADD SLT PUSH2 0x2B4 JUMPI PUSH1 0x4 CALLDATALOAD PUSH2 0xC7 PUSH2 0x1874 JUMP JUMPDEST PUSH1 0x0 SWAP1 PUSH2 0xD2 PUSH2 0x1D54 JUMP JUMPDEST POP DUP3 DUP3 MSTORE PUSH1 0x5 PUSH1 0x20 MSTORE PUSH1 0x40 DUP3 KECCAK256 PUSH1 0x1 ADD SLOAD PUSH1 0x1 PUSH1 0x1 PUSH1 0xA0 SHL SUB AND ISZERO PUSH2 0x2A1 JUMPI DUP2 SWAP3 PUSH1 0x20 SWAP3 PUSH1 0x40 MLOAD PUSH2 0x103 DUP6 DUP3 PUSH2 0x1929 JUMP JUMPDEST DUP2 DUP2 MSTORE SWAP1 SWAP3 SWAP1 SWAP2 DUP4 SWAP2 PUSH1 0x1 PUSH1 0x1 PUSH1 0xA0 SHL SUB DUP2 AND PUSH2 0x162 JUMPI JUMPDEST POP DUP2 PUSH1 0x40 SWAP2 PUSH2 0x15E SWAP8 SWAP4 MSTORE PUSH1 0x5 DUP7 MSTORE KECCAK256 SWAP4 PUSH2 0x141 PUSH1 0x40 MLOAD SWAP6 PUSH2 0x13C DUP8 PUSH2 0x18F2 JUMP JUMPDEST PUSH2 0x1DAB JUMP JUMPDEST DUP6 MSTORE DUP5 ADD MSTORE PUSH1 0x40 DUP4 ADD MSTORE ISZERO ISZERO PUSH1 0x60 DUP3 ADD MSTORE PUSH1 0x40 MLOAD SWAP2 DUP3 SWAP2 DUP3 PUSH2 0x1AF9 JUMP JUMPDEST SUB SWAP1 RETURN JUMPDEST DUP2 DUP4 MSTORE PUSH1 0x8 DUP7 MSTORE PUSH1 0x40 DUP1 DUP5 KECCAK256 PUSH1 0x1 PUSH1 0x1 PUSH1 0xA0 SHL SUB DUP4 AND DUP1 DUP7 MSTORE SWAP1 DUP9 MSTORE DUP2 DUP6 KECCAK256 SLOAD DUP5 DUP7 MSTORE PUSH1 0x9 DUP10 MSTORE DUP3 DUP7 KECCAK256 SWAP2 DUP7 MSTORE SWAP1 DUP9 MSTORE SWAP1 DUP5 KECCAK256 SLOAD PUSH1 0xFF SWAP1 SWAP2 AND SWAP6 POP ISZERO PUSH2 0x11B JUMPI DUP2 DUP4 MSTORE PUSH1 0x9 DUP7 MSTORE PUSH1 0x40 DUP1 DUP5 KECCAK256 PUSH1 0x1 PUSH1 0x1 PUSH1 0xA0 SHL SUB SWAP1 SWAP3 AND DUP5 MSTORE SWAP1 DUP7 MSTORE DUP3 KECCAK256 DUP1 SLOAD SWAP2 SWAP6 SWAP5 SWAP1 SWAP4 POP SWAP2 SWAP1 PUSH2 0x1D3 DUP2 PUSH2 0x1D80 JUMP JUMPDEST SWAP4 PUSH2 0x1E1 PUSH1 0x40 MLOAD SWAP6 DUP7 PUSH2 0x1929 JUMP JUMPDEST DUP2 DUP6 MSTORE DUP3 MSTORE DUP5 DUP3 KECCAK256 DUP3 SWAP1 DUP7 DUP1 DUP8 ADD JUMPDEST DUP5 DUP5 LT PUSH2 0x25A JUMPI POP POP POP POP POP DUP3 SWAP1 DUP1 JUMPDEST DUP5 MLOAD DUP2 LT ISZERO PUSH2 0x249 JUMPI PUSH1 0x60 PUSH2 0x215 DUP3 DUP8 PUSH2 0x1D97 JUMP JUMPDEST MLOAD ADD MLOAD ISZERO PUSH2 0x226 JUMPI JUMPDEST PUSH1 0x1 ADD PUSH2 0x200 JUMP JUMPDEST SWAP7 PUSH2 0x241 PUSH1 0x1 SWAP2 DUP8 PUSH2 0x238 DUP12 DUP10 PUSH2 0x1D97 JUMP JUMPDEST MLOAD ADD MLOAD SWAP1 PUSH2 0x1CE4 JUMP JUMPDEST SWAP8 SWAP1 POP PUSH2 0x21E JUMP JUMPDEST POP SWAP4 SWAP5 SWAP2 SWAP4 SWAP1 SWAP3 POP SWAP1 PUSH2 0x15E PUSH2 0x11B JUMP JUMPDEST PUSH1 0x1 SWAP2 PUSH1 0x4 SWAP2 PUSH1 0x40 MLOAD PUSH2 0x26C DUP2 PUSH2 0x18F2 JUMP JUMPDEST DUP6 SLOAD DUP2 MSTORE DUP5 DUP7 ADD SLOAD DUP4 DUP3 ADD MSTORE PUSH1 0x2 DUP7 ADD SLOAD PUSH1 0x40 DUP3 ADD MSTORE PUSH1 0xFF PUSH1 0x3 DUP8 ADD SLOAD AND ISZERO ISZERO PUSH1 0x60 DUP3 ADD MSTORE DUP2 MSTORE ADD SWAP3 ADD SWAP3 ADD SWAP2 SWAP1 DUP8 SWAP1 PUSH2 0x1F0 JUMP JUMPDEST POP PUSH1 0x24 SWAP2 PUSH4 0xA89B369D PUSH1 0xE0 SHL DUP3 MSTORE PUSH1 0x4 MSTORE REVERT JUMPDEST PUSH1 0x0 DUP1 REVERT JUMPDEST CALLVALUE PUSH2 0x2B4 JUMPI PUSH1 0x20 CALLDATASIZE PUSH1 0x3 NOT ADD SLT PUSH2 0x2B4 JUMPI PUSH1 0x20 PUSH2 0x2D7 PUSH1 0x4 CALLDATALOAD PUSH2 0x1E6D JUMP JUMPDEST PUSH1 0x40 MLOAD SWAP1 DUP2 MSTORE RETURN JUMPDEST CALLVALUE PUSH2 0x2B4 JUMPI PUSH1 0x60 CALLDATASIZE PUSH1 0x3 NOT ADD SLT PUSH2 0x2B4 JUMPI PUSH2 0x2F8 PUSH2 0x1874 JUMP JUMPDEST PUSH1 0x44 CALLDATALOAD SWAP1 PUSH1 0x4 CALLDATALOAD PUSH1 0x0 MSTORE PUSH1 0x9 PUSH1 0x20 MSTORE PUSH1 0x40 PUSH1 0x0 KECCAK256 SWAP1 PUSH1 0x1 DUP1 PUSH1 0xA0 SHL SUB AND PUSH1 0x0 MSTORE PUSH1 0x20 MSTORE PUSH1 0x40 PUSH1 0x0 KECCAK256 DUP1 SLOAD DUP3 LT ISZERO PUSH2 0x2B4 JUMPI PUSH1 0x80 SWAP2 PUSH2 0x335 SWAP2 PUSH2 0x1BF5 JUMP JUMPDEST POP DUP1 SLOAD SWAP1 PUSH1 0x1 DUP2 ADD SLOAD SWAP1 PUSH1 0xFF PUSH1 0x3 PUSH1 0x2 DUP4 ADD SLOAD SWAP3 ADD SLOAD AND SWAP2 PUSH1 0x40 MLOAD SWAP4 DUP5 MSTORE PUSH1 0x20 DUP5 ADD MSTORE PUSH1 0x40 DUP4 ADD MSTORE ISZERO ISZERO PUSH1 0x60 DUP3 ADD MSTORE RETURN JUMPDEST CALLVALUE PUSH2 0x2B4 JUMPI PUSH1 0x0 CALLDATASIZE PUSH1 0x3 NOT ADD SLT PUSH2 0x2B4 JUMPI PUSH1 0x3 SLOAD PUSH2 0x383 DUP2 PUSH2 0x1D80 JUMP JUMPDEST SWAP1 PUSH2 0x391 PUSH1 0x40 MLOAD SWAP3 DUP4 PUSH2 0x1929 JUMP JUMPDEST DUP1 DUP3 MSTORE PUSH2 0x3A0 PUSH1 0x1F NOT SWAP2 PUSH2 0x1D80 JUMP JUMPDEST ADD PUSH1 0x0 JUMPDEST DUP2 DUP2 LT PUSH2 0x480 JUMPI PUSH1 0x4 SLOAD DUP4 SWAP1 DUP1 PUSH1 0x0 JUMPDEST DUP2 DUP2 LT PUSH2 0x423 JUMPI DUP4 PUSH1 0x40 MLOAD DUP1 SWAP2 PUSH1 0x20 DUP3 ADD PUSH1 0x20 DUP4 MSTORE DUP2 MLOAD DUP1 SWAP2 MSTORE PUSH1 0x40 DUP4 ADD SWAP1 PUSH1 0x20 PUSH1 0x40 DUP3 PUSH1 0x5 SHL DUP7 ADD ADD SWAP4 ADD SWAP2 PUSH1 0x0 SWAP1 JUMPDEST DUP3 DUP3 LT PUSH2 0x3F4 JUMPI POP POP POP POP SUB SWAP1 RETURN JUMPDEST SWAP2 SWAP4 PUSH1 0x1 SWAP2 SWAP4 SWAP6 POP PUSH1 0x20 PUSH2 0x413 DUP2 SWAP3 PUSH1 0x3F NOT DUP11 DUP3 SUB ADD DUP7 MSTORE DUP9 MLOAD PUSH2 0x1A2F JUMP JUMPDEST SWAP7 ADD SWAP3 ADD SWAP3 ADD DUP6 SWAP5 SWAP4 SWAP2 SWAP3 PUSH2 0x3E5 JUMP JUMPDEST PUSH1 0x0 DUP4 DUP3 LT ISZERO PUSH2 0x46C JUMPI SWAP1 PUSH2 0x450 PUSH1 0x40 DUP3 PUSH1 0x20 DUP6 PUSH1 0x4 PUSH1 0x1 SWAP8 MSTORE KECCAK256 ADD PUSH1 0x0 SWAP1 SLOAD DUP2 MSTORE PUSH1 0x5 PUSH1 0x20 MSTORE KECCAK256 PUSH2 0x1DAB JUMP JUMPDEST PUSH2 0x45A DUP3 DUP8 PUSH2 0x1D97 JUMP JUMPDEST MSTORE PUSH2 0x465 DUP2 DUP7 PUSH2 0x1D97 JUMP JUMPDEST POP ADD PUSH2 0x3B4 JUMP JUMPDEST PUSH4 0x4E487B71 PUSH1 0xE0 SHL DUP2 MSTORE PUSH1 0x32 PUSH1 0x4 MSTORE PUSH1 0x24 SWAP1 REVERT JUMPDEST PUSH1 0x20 SWAP1 PUSH2 0x48B PUSH2 0x1CF1 JUMP JUMPDEST DUP3 DUP3 DUP7 ADD ADD MSTORE ADD PUSH2 0x3A4 JUMP JUMPDEST CALLVALUE PUSH2 0x2B4 JUMPI PUSH2 0x100 CALLDATASIZE PUSH1 0x3 NOT ADD SLT PUSH2 0x2B4 JUMPI PUSH1 0x4 CALLDATALOAD PUSH1 0x1 PUSH1 0x1 PUSH1 0x40 SHL SUB DUP2 GT PUSH2 0x2B4 JUMPI PUSH2 0x4C8 SWAP1 CALLDATASIZE SWAP1 PUSH1 0x4 ADD PUSH2 0x1BAE JUMP JUMPDEST PUSH1 0x24 CALLDATALOAD PUSH1 0x1 PUSH1 0x1 PUSH1 0x40 SHL SUB DUP2 GT PUSH2 0x2B4 JUMPI PUSH2 0x4E7 SWAP1 CALLDATASIZE SWAP1 PUSH1 0x4 ADD PUSH2 0x1BAE JUMP JUMPDEST SWAP1 PUSH1 0x44 CALLDATALOAD SWAP2 PUSH1 0x64 CALLDATALOAD PUSH1 0x1 PUSH1 0x1 PUSH1 0x40 SHL SUB DUP2 GT PUSH2 0x2B4 JUMPI PUSH2 0x50B SWAP1 CALLDATASIZE SWAP1 PUSH1 0x4 ADD PUSH2 0x1BAE JUMP JUMPDEST SWAP1 PUSH1 0x84 CALLDATALOAD PUSH1 0x1 PUSH1 0x1 PUSH1 0x40 SHL SUB DUP2 GT PUSH2 0x2B4 JUMPI PUSH2 0x52B SWAP1 CALLDATASIZE SWAP1 PUSH1 0x4 ADD PUSH2 0x1BAE JUMP JUMPDEST SWAP1 PUSH1 0xA4 CALLDATALOAD PUSH1 0xC4 CALLDATALOAD PUSH1 0xE4 CALLDATALOAD TIMESTAMP DUP4 LT PUSH2 0xD68 JUMPI DUP3 DUP3 GT ISZERO PUSH2 0xD57 JUMPI PUSH3 0x278D00 DUP4 ADD DUP1 DUP5 GT PUSH2 0xD41 JUMPI DUP3 LT PUSH2 0xD30 JUMPI DUP8 ISZERO PUSH2 0xD1F JUMPI DUP1 ISZERO PUSH2 0xD0E JUMPI PUSH1 0x40 MLOAD PUSH2 0x10B7 DUP1 DUP3 ADD DUP3 DUP2 LT PUSH1 0x1 PUSH1 0x1 PUSH1 0x40 SHL SUB DUP3 GT OR PUSH2 0x9E0 JUMPI DUP3 SWAP2 PUSH2 0x1EB3 DUP4 CODECOPY PUSH2 0x140 DUP2 MSTORE PUSH2 0x5D2 PUSH2 0x5C4 PUSH2 0x5B0 PUSH2 0x5A2 DUP14 PUSH2 0x140 DUP7 ADD SWAP1 PUSH2 0x19EE JUMP JUMPDEST DUP5 DUP2 SUB PUSH1 0x20 DUP7 ADD MSTORE DUP11 PUSH2 0x19EE JUMP JUMPDEST DUP14 PUSH1 0x40 DUP6 ADD MSTORE DUP4 DUP2 SUB PUSH1 0x60 DUP6 ADD MSTORE DUP12 PUSH2 0x19EE JUMP JUMPDEST DUP3 DUP2 SUB PUSH1 0x80 DUP5 ADD MSTORE DUP10 PUSH2 0x19EE JUMP JUMPDEST SWAP1 DUP7 PUSH1 0xA0 DUP3 ADD MSTORE DUP6 PUSH1 0xC0 DUP3 ADD MSTORE DUP5 PUSH1 0xE0 DUP3 ADD MSTORE CALLER PUSH2 0x100 DUP3 ADD MSTORE PUSH2 0x120 ADDRESS SWAP2 ADD MSTORE SUB SWAP1 PUSH1 0x0 CREATE SWAP2 DUP3 ISZERO PUSH2 0xD02 JUMPI PUSH2 0x60A PUSH1 0x1 SLOAD PUSH2 0x1C93 JUMP JUMPDEST DUP1 PUSH1 0x1 SSTORE PUSH1 0x40 MLOAD PUSH2 0x651 DUP2 PUSH2 0x643 PUSH1 0x20 DUP3 ADD SWAP5 CALLER TIMESTAMP DUP8 SWAP2 PUSH1 0x54 SWAP4 SWAP2 DUP4 MSTORE PUSH1 0x1 PUSH1 0x1 PUSH1 0x60 SHL SUB NOT SWAP1 PUSH1 0x60 SHL AND PUSH1 0x20 DUP4 ADD MSTORE PUSH1 0x34 DUP3 ADD MSTORE ADD SWAP1 JUMP JUMPDEST SUB PUSH1 0x1F NOT DUP2 ADD DUP4 MSTORE DUP3 PUSH2 0x1929 JUMP JUMPDEST MLOAD SWAP1 KECCAK256 PUSH1 0xA0 SHR SWAP3 PUSH1 0x1 DUP1 PUSH1 0xA0 SHL SUB AND SWAP8 PUSH1 0x40 MLOAD PUSH2 0x66D DUP2 PUSH2 0x190D JUMP JUMPDEST DUP5 DUP2 MSTORE DUP5 PUSH1 0x20 DUP3 ADD DUP12 DUP2 MSTORE PUSH1 0x40 DUP4 ADD DUP5 DUP2 MSTORE DUP14 PUSH1 0x60 DUP6 ADD SWAP1 DUP12 DUP3 MSTORE PUSH1 0x80 DUP7 ADD SWAP1 DUP2 MSTORE DUP14 PUSH1 0xA0 DUP8 ADD SWAP1 DUP2 MSTORE DUP14 PUSH1 0xC0 DUP9 ADD SWAP1 DUP2 MSTORE PUSH1 0xE0 DUP9 ADD SWAP2 DUP14 DUP4 MSTORE PUSH2 0x100 DUP10 ADD SWAP4 DUP12 DUP6 MSTORE PUSH2 0x120 DUP11 ADD SWAP6 DUP14 DUP8 MSTORE PUSH2 0x140 DUP12 ADD SWAP8 CALLER DUP10 MSTORE PUSH2 0x160 DUP13 ADD SWAP10 TIMESTAMP DUP12 MSTORE PUSH2 0x180 DUP14 ADD SWAP12 PUSH1 0x0 DUP14 MSTORE PUSH1 0x0 MSTORE PUSH1 0x5 PUSH1 0x20 MSTORE PUSH1 0x40 PUSH1 0x0 KECCAK256 SWAP13 MLOAD DUP14 SSTORE PUSH1 0x1 DUP1 PUSH1 0xA0 SHL SUB SWAP1 MLOAD AND PUSH1 0x1 DUP14 ADD SWAP1 PUSH1 0x1 DUP1 PUSH1 0xA0 SHL SUB AND PUSH1 0x1 PUSH1 0x1 PUSH1 0x60 SHL SUB PUSH1 0xA0 SHL DUP3 SLOAD AND OR SWAP1 SSTORE PUSH1 0x2 DUP13 ADD SWAP1 MLOAD DUP1 MLOAD SWAP1 PUSH1 0x1 PUSH1 0x1 PUSH1 0x40 SHL SUB DUP3 GT PUSH2 0x9E0 JUMPI DUP2 SWAP1 PUSH2 0x731 DUP5 SLOAD PUSH2 0x18B8 JUMP JUMPDEST PUSH1 0x1F DUP2 GT PUSH2 0xCAF JUMPI JUMPDEST POP PUSH1 0x20 SWAP1 PUSH1 0x1F DUP4 GT PUSH1 0x1 EQ PUSH2 0xC4A JUMPI PUSH1 0x0 SWAP3 PUSH2 0xC3F JUMPI JUMPDEST POP POP DUP2 PUSH1 0x1 SHL SWAP2 PUSH1 0x0 NOT SWAP1 PUSH1 0x3 SHL SHR NOT AND OR SWAP1 SSTORE JUMPDEST MLOAD DUP1 MLOAD PUSH1 0x3 DUP13 ADD SWAP2 PUSH1 0x1 PUSH1 0x1 PUSH1 0x40 SHL SUB DUP3 GT PUSH2 0x9E0 JUMPI DUP2 SWAP1 PUSH2 0x788 DUP5 SLOAD PUSH2 0x18B8 JUMP JUMPDEST PUSH1 0x1F DUP2 GT PUSH2 0xBEC JUMPI JUMPDEST POP PUSH1 0x20 SWAP1 PUSH1 0x1F DUP4 GT PUSH1 0x1 EQ PUSH2 0xB87 JUMPI PUSH1 0x0 SWAP3 PUSH2 0xB7C JUMPI JUMPDEST POP POP DUP2 PUSH1 0x1 SHL SWAP2 PUSH1 0x0 NOT SWAP1 PUSH1 0x3 SHL SHR NOT AND OR SWAP1 SSTORE JUMPDEST MLOAD PUSH1 0x4 DUP11 ADD SSTORE MLOAD DUP1 MLOAD PUSH1 0x5 DUP11 ADD SWAP2 PUSH1 0x1 PUSH1 0x1 PUSH1 0x40 SHL SUB DUP3 GT PUSH2 0x9E0 JUMPI DUP2 SWAP1 PUSH2 0x7E5 DUP5 SLOAD PUSH2 0x18B8 JUMP JUMPDEST PUSH1 0x1F DUP2 GT PUSH2 0xB29 JUMPI JUMPDEST POP PUSH1 0x20 SWAP1 PUSH1 0x1F DUP4 GT PUSH1 0x1 EQ PUSH2 0xAC4 JUMPI PUSH1 0x0 SWAP3 PUSH2 0xAB9 JUMPI JUMPDEST POP POP DUP2 PUSH1 0x1 SHL SWAP2 PUSH1 0x0 NOT SWAP1 PUSH1 0x3 SHL SHR NOT AND OR SWAP1 SSTORE JUMPDEST MLOAD DUP1 MLOAD PUSH1 0x6 DUP10 ADD SWAP2 PUSH1 0x1 PUSH1 0x1 PUSH1 0x40 SHL SUB DUP3 GT PUSH2 0x9E0 JUMPI PUSH2 0x83A DUP4 SLOAD PUSH2 0x18B8 JUMP JUMPDEST PUSH1 0x1F DUP2 GT PUSH2 0xA71 JUMPI JUMPDEST POP PUSH1 0x20 SWAP1 PUSH1 0x1F DUP4 GT PUSH1 0x1 EQ PUSH2 0xA01 JUMPI PUSH1 0xC SWAP10 SWAP9 SWAP8 SWAP7 SWAP6 SWAP5 SWAP4 SWAP3 SWAP2 PUSH1 0x0 SWAP2 DUP4 PUSH2 0x9F6 JUMPI JUMPDEST POP POP DUP2 PUSH1 0x1 SHL SWAP2 PUSH1 0x0 NOT SWAP1 PUSH1 0x3 SHL SHR NOT AND OR SWAP1 SSTORE JUMPDEST MLOAD PUSH1 0x7 DUP9 ADD SSTORE MLOAD PUSH1 0x8 DUP8 ADD SSTORE MLOAD PUSH1 0x9 DUP7 ADD SSTORE MLOAD PUSH1 0xA DUP6 ADD DUP1 SLOAD PUSH1 0x1 PUSH1 0x1 PUSH1 0xA0 SHL SUB NOT AND PUSH1 0x1 PUSH1 0x1 PUSH1 0xA0 SHL SUB SWAP3 SWAP1 SWAP3 AND SWAP2 SWAP1 SWAP2 OR SWAP1 SSTORE MLOAD PUSH1 0xB DUP5 ADD SSTORE MLOAD SWAP2 ADD SSTORE PUSH1 0x4 SLOAD PUSH1 0x1 PUSH1 0x40 SHL DUP2 LT ISZERO PUSH2 0x9E0 JUMPI DUP5 PUSH2 0x8DF DUP3 PUSH1 0x1 PUSH2 0x8F8 SWAP5 ADD PUSH1 0x4 SSTORE PUSH1 0x4 PUSH2 0x188A JUMP JUMPDEST SWAP1 SWAP2 SWAP1 DUP3 SLOAD SWAP1 PUSH1 0x3 SHL SWAP2 DUP3 SHL SWAP2 PUSH1 0x0 NOT SWAP1 SHL NOT AND OR SWAP1 SSTORE JUMP JUMPDEST CALLER PUSH1 0x0 MSTORE PUSH1 0x6 PUSH1 0x20 MSTORE PUSH1 0x40 PUSH1 0x0 KECCAK256 SWAP7 DUP8 SLOAD SWAP2 PUSH1 0x1 PUSH1 0x40 SHL DUP4 LT ISZERO PUSH2 0x9E0 JUMPI PUSH1 0x20 SWAP12 PUSH32 0x699920B00AFA5868F5BBBB98F98355CDBF8F5466A705966B1764C5FA6BE05662 SWAP11 PUSH2 0x996 DUP14 SWAP11 PUSH2 0x988 PUSH2 0x9A9 SWAP6 PUSH2 0x962 PUSH2 0x160 SWAP16 PUSH2 0x8DF DUP12 DUP16 SWAP3 PUSH1 0x1 PUSH2 0x9B7 SWAP15 ADD DUP2 SSTORE PUSH2 0x188A JUMP JUMPDEST PUSH2 0x96D PUSH1 0x3 SLOAD PUSH2 0x1C93 JUMP JUMPDEST PUSH1 0x3 SSTORE PUSH1 0x40 MLOAD SWAP15 DUP16 SWAP15 DUP16 SWAP1 DUP2 MSTORE PUSH1 0x20 DUP3 SWAP1 DUP3 ADD MSTORE ADD SWAP1 PUSH2 0x19EE JUMP JUMPDEST DUP13 DUP2 SUB PUSH1 0x40 DUP15 ADD MSTORE SWAP1 PUSH2 0x19EE JUMP JUMPDEST SWAP2 PUSH1 0x60 DUP12 ADD MSTORE DUP10 DUP3 SUB PUSH1 0x80 DUP12 ADD MSTORE PUSH2 0x19EE JUMP JUMPDEST SWAP1 DUP8 DUP3 SUB PUSH1 0xA0 DUP10 ADD MSTORE PUSH2 0x19EE JUMP JUMPDEST SWAP4 PUSH1 0xC0 DUP7 ADD MSTORE PUSH1 0xE0 DUP6 ADD MSTORE PUSH2 0x100 DUP5 ADD MSTORE CALLER PUSH2 0x120 DUP5 ADD MSTORE PUSH2 0x140 DUP4 ADD MSTORE SUB SWAP1 LOG1 PUSH1 0x40 MLOAD SWAP1 DUP2 MSTORE RETURN JUMPDEST PUSH4 0x4E487B71 PUSH1 0xE0 SHL PUSH1 0x0 MSTORE PUSH1 0x41 PUSH1 0x4 MSTORE PUSH1 0x24 PUSH1 0x0 REVERT JUMPDEST ADD MLOAD SWAP1 POP CODESIZE DUP1 PUSH2 0x866 JUMP JUMPDEST SWAP1 PUSH1 0x1F NOT DUP4 AND SWAP2 DUP5 PUSH1 0x0 MSTORE DUP2 PUSH1 0x0 KECCAK256 SWAP3 PUSH1 0x0 JUMPDEST DUP2 DUP2 LT PUSH2 0xA59 JUMPI POP SWAP2 PUSH1 0x1 SWAP4 SWAP2 DUP6 PUSH1 0xC SWAP14 SWAP13 SWAP12 SWAP11 SWAP10 SWAP9 SWAP8 SWAP7 SWAP5 LT PUSH2 0xA40 JUMPI JUMPDEST POP POP POP DUP2 SHL ADD SWAP1 SSTORE PUSH2 0x87B JUMP JUMPDEST ADD MLOAD PUSH1 0x0 NOT PUSH1 0xF8 DUP5 PUSH1 0x3 SHL AND SHR NOT AND SWAP1 SSTORE CODESIZE DUP1 DUP1 PUSH2 0xA33 JUMP JUMPDEST SWAP3 SWAP4 PUSH1 0x20 PUSH1 0x1 DUP2 SWAP3 DUP8 DUP7 ADD MLOAD DUP2 SSTORE ADD SWAP6 ADD SWAP4 ADD PUSH2 0xA14 JUMP JUMPDEST DUP4 PUSH1 0x0 MSTORE PUSH1 0x20 PUSH1 0x0 KECCAK256 PUSH1 0x1F DUP5 ADD PUSH1 0x5 SHR DUP2 ADD SWAP2 PUSH1 0x20 DUP6 LT PUSH2 0xAAF JUMPI JUMPDEST PUSH1 0x1F ADD PUSH1 0x5 SHR ADD SWAP1 JUMPDEST DUP2 DUP2 LT PUSH2 0xAA3 JUMPI POP PUSH2 0x843 JUMP JUMPDEST PUSH1 0x0 DUP2 SSTORE PUSH1 0x1 ADD PUSH2 0xA96 JUMP JUMPDEST SWAP1 SWAP2 POP DUP2 SWAP1 PUSH2 0xA8D JUMP JUMPDEST ADD MLOAD SWAP1 POP CODESIZE DUP1 PUSH2 0x805 JUMP JUMPDEST PUSH1 0x0 DUP6 DUP2 MSTORE DUP3 DUP2 KECCAK256 SWAP4 POP PUSH1 0x1F NOT DUP6 AND SWAP1 JUMPDEST DUP2 DUP2 LT PUSH2 0xB11 JUMPI POP SWAP1 DUP5 PUSH1 0x1 SWAP6 SWAP5 SWAP4 SWAP3 LT PUSH2 0xAF8 JUMPI JUMPDEST POP POP POP DUP2 SHL ADD SWAP1 SSTORE PUSH2 0x81A JUMP JUMPDEST ADD MLOAD PUSH1 0x0 NOT PUSH1 0xF8 DUP5 PUSH1 0x3 SHL AND SHR NOT AND SWAP1 SSTORE CODESIZE DUP1 DUP1 PUSH2 0xAEB JUMP JUMPDEST SWAP3 SWAP4 PUSH1 0x20 PUSH1 0x1 DUP2 SWAP3 DUP8 DUP7 ADD MLOAD DUP2 SSTORE ADD SWAP6 ADD SWAP4 ADD PUSH2 0xAD5 JUMP JUMPDEST SWAP1 SWAP2 POP DUP4 PUSH1 0x0 MSTORE PUSH1 0x20 PUSH1 0x0 KECCAK256 PUSH1 0x1F DUP5 ADD PUSH1 0x5 SHR DUP2 ADD SWAP2 PUSH1 0x20 DUP6 LT PUSH2 0xB72 JUMPI JUMPDEST SWAP1 PUSH1 0x1F DUP6 SWAP5 SWAP4 SWAP3 ADD PUSH1 0x5 SHR ADD SWAP1 JUMPDEST DUP2 DUP2 LT PUSH2 0xB63 JUMPI POP PUSH2 0x7EE JUMP JUMPDEST PUSH1 0x0 DUP2 SSTORE DUP5 SWAP4 POP PUSH1 0x1 ADD PUSH2 0xB56 JUMP JUMPDEST SWAP1 SWAP2 POP DUP2 SWAP1 PUSH2 0xB48 JUMP JUMPDEST ADD MLOAD SWAP1 POP CODESIZE DUP1 PUSH2 0x7A8 JUMP JUMPDEST PUSH1 0x0 DUP6 DUP2 MSTORE DUP3 DUP2 KECCAK256 SWAP4 POP PUSH1 0x1F NOT DUP6 AND SWAP1 JUMPDEST DUP2 DUP2 LT PUSH2 0xBD4 JUMPI POP SWAP1 DUP5 PUSH1 0x1 SWAP6 SWAP5 SWAP4 SWAP3 LT PUSH2 0xBBB JUMPI JUMPDEST POP POP POP DUP2 SHL ADD SWAP1 SSTORE PUSH2 0x7BD JUMP JUMPDEST ADD MLOAD PUSH1 0x0 NOT PUSH1 0xF8 DUP5 PUSH1 0x3 SHL AND SHR NOT AND SWAP1 SSTORE CODESIZE DUP1 DUP1 PUSH2 0xBAE JUMP JUMPDEST SWAP3 SWAP4 PUSH1 0x20 PUSH1 0x1 DUP2 SWAP3 DUP8 DUP7 ADD MLOAD DUP2 SSTORE ADD SWAP6 ADD SWAP4 ADD PUSH2 0xB98 JUMP JUMPDEST SWAP1 SWAP2 POP DUP4 PUSH1 0x0 MSTORE PUSH1 0x20 PUSH1 0x0 KECCAK256 PUSH1 0x1F DUP5 ADD PUSH1 0x5 SHR DUP2 ADD SWAP2 PUSH1 0x20 DUP6 LT PUSH2 0xC35 JUMPI JUMPDEST SWAP1 PUSH1 0x1F DUP6 SWAP5 SWAP4 SWAP3 ADD PUSH1 0x5 SHR ADD SWAP1 JUMPDEST DUP2 DUP2 LT PUSH2 0xC26 JUMPI POP PUSH2 0x791 JUMP JUMPDEST PUSH1 0x0 DUP2 SSTORE DUP5 SWAP4 POP PUSH1 0x1 ADD PUSH2 0xC19 JUMP JUMPDEST SWAP1 SWAP2 POP DUP2 SWAP1 PUSH2 0xC0B JUMP JUMPDEST ADD MLOAD SWAP1 POP CODESIZE DUP1 PUSH2 0x751 JUMP JUMPDEST PUSH1 0x0 DUP6 DUP2 MSTORE DUP3 DUP2 KECCAK256 SWAP4 POP PUSH1 0x1F NOT DUP6 AND SWAP1 JUMPDEST DUP2 DUP2 LT PUSH2 0xC97 JUMPI POP SWAP1 DUP5 PUSH1 0x1 SWAP6 SWAP5 SWAP4 SWAP3 LT PUSH2 0xC7E JUMPI JUMPDEST POP POP POP DUP2 SHL ADD SWAP1 SSTORE PUSH2 0x766 JUMP JUMPDEST ADD MLOAD PUSH1 0x0 NOT PUSH1 0xF8 DUP5 PUSH1 0x3 SHL AND SHR NOT AND SWAP1 SSTORE CODESIZE DUP1 DUP1 PUSH2 0xC71 JUMP JUMPDEST SWAP3 SWAP4 PUSH1 0x20 PUSH1 0x1 DUP2 SWAP3 DUP8 DUP7 ADD MLOAD DUP2 SSTORE ADD SWAP6 ADD SWAP4 ADD PUSH2 0xC5B JUMP JUMPDEST SWAP1 SWAP2 POP DUP4 PUSH1 0x0 MSTORE PUSH1 0x20 PUSH1 0x0 KECCAK256 PUSH1 0x1F DUP5 ADD PUSH1 0x5 SHR DUP2 ADD SWAP2 PUSH1 0x20 DUP6 LT PUSH2 0xCF8 JUMPI JUMPDEST SWAP1 PUSH1 0x1F DUP6 SWAP5 SWAP4 SWAP3 ADD PUSH1 0x5 SHR ADD SWAP1 JUMPDEST DUP2 DUP2 LT PUSH2 0xCE9 JUMPI POP PUSH2 0x73A JUMP JUMPDEST PUSH1 0x0 DUP2 SSTORE DUP5 SWAP4 POP PUSH1 0x1 ADD PUSH2 0xCDC JUMP JUMPDEST SWAP1 SWAP2 POP DUP2 SWAP1 PUSH2 0xCCE JUMP JUMPDEST PUSH1 0x40 MLOAD RETURNDATASIZE PUSH1 0x0 DUP3 RETURNDATACOPY RETURNDATASIZE SWAP1 REVERT JUMPDEST PUSH4 0x7841C2C9 PUSH1 0xE1 SHL PUSH1 0x0 MSTORE PUSH1 0x4 PUSH1 0x0 REVERT JUMPDEST PUSH4 0x34BBD585 PUSH1 0xE0 SHL PUSH1 0x0 MSTORE PUSH1 0x4 PUSH1 0x0 REVERT JUMPDEST PUSH4 0x31F12F3 PUSH1 0xE0 SHL PUSH1 0x0 MSTORE PUSH1 0x4 PUSH1 0x0 REVERT JUMPDEST PUSH4 0x4E487B71 PUSH1 0xE0 SHL PUSH1 0x0 MSTORE PUSH1 0x11 PUSH1 0x4 MSTORE PUSH1 0x24 PUSH1 0x0 REVERT JUMPDEST PUSH4 0x319D1AF9 PUSH1 0xE1 SHL PUSH1 0x0 MSTORE PUSH1 0x4 PUSH1 0x0 REVERT JUMPDEST PUSH4 0x5B7CE023 PUSH1 0xE1 SHL PUSH1 0x0 MSTORE PUSH1 0x4 PUSH1 0x0 REVERT JUMPDEST CALLVALUE PUSH2 0x2B4 JUMPI PUSH1 0x20 CALLDATASIZE PUSH1 0x3 NOT ADD SLT PUSH2 0x2B4 JUMPI PUSH1 0x4 CALLDATALOAD PUSH2 0xD95 PUSH2 0x1D54 JUMP JUMPDEST POP PUSH1 0x0 PUSH2 0xDA0 PUSH2 0x1D54 JUMP JUMPDEST POP DUP2 DUP2 MSTORE PUSH1 0x5 PUSH1 0x20 MSTORE PUSH1 0x40 DUP2 KECCAK256 PUSH1 0x1 ADD SLOAD PUSH1 0x1 PUSH1 0x1 PUSH1 0xA0 SHL SUB AND ISZERO PUSH2 0xE11 JUMPI PUSH1 0x40 MLOAD PUSH2 0x15E SWAP3 SWAP1 SWAP2 SWAP1 PUSH2 0xDD4 PUSH1 0x20 DUP5 PUSH2 0x1929 JUMP JUMPDEST DUP2 DUP4 MSTORE DUP2 MSTORE PUSH1 0x5 PUSH1 0x20 MSTORE PUSH1 0x40 DUP2 KECCAK256 SWAP2 PUSH2 0xDF3 PUSH1 0x40 MLOAD SWAP4 PUSH2 0x13C DUP6 PUSH2 0x18F2 JUMP JUMPDEST DUP4 MSTORE DUP2 PUSH1 0x20 DUP5 ADD MSTORE PUSH1 0x40 DUP4 ADD MSTORE PUSH1 0x60 DUP3 ADD MSTORE PUSH1 0x40 MLOAD SWAP2 DUP3 SWAP2 DUP3 PUSH2 0x1AF9 JUMP JUMPDEST PUSH1 0x24 SWAP2 PUSH4 0xA89B369D PUSH1 0xE0 SHL DUP3 MSTORE PUSH1 0x4 MSTORE REVERT JUMPDEST CALLVALUE PUSH2 0x2B4 JUMPI PUSH1 0x20 CALLDATASIZE PUSH1 0x3 NOT ADD SLT PUSH2 0x2B4 JUMPI PUSH1 0x4 CALLDATALOAD PUSH2 0xE3F PUSH2 0x1E90 JUMP JUMPDEST DUP1 PUSH1 0x0 MSTORE PUSH1 0x5 PUSH1 0x20 MSTORE PUSH1 0x7 PUSH1 0x40 PUSH1 0x0 KECCAK256 ADD SLOAD PUSH3 0x278D00 DUP2 ADD DUP1 SWAP2 GT PUSH2 0xD41 JUMPI TIMESTAMP LT PUSH2 0x1102 JUMPI DUP1 PUSH1 0x0 MSTORE PUSH1 0xA PUSH1 0x20 MSTORE PUSH1 0x40 PUSH1 0x0 KECCAK256 SLOAD PUSH2 0xE7C DUP3 PUSH2 0x1E6D JUMP JUMPDEST GT ISZERO PUSH2 0x10F1 JUMPI PUSH1 0x0 DUP2 DUP2 MSTORE PUSH1 0x5 PUSH1 0x20 MSTORE PUSH1 0x40 SWAP1 KECCAK256 PUSH1 0x1 ADD SLOAD PUSH1 0x1 PUSH1 0x1 PUSH1 0xA0 SHL SUB AND DUP1 ISZERO PUSH2 0x10DC JUMPI PUSH1 0x0 DUP3 DUP2 MSTORE PUSH1 0x8 PUSH1 0x20 SWAP1 DUP2 MSTORE PUSH1 0x40 DUP1 DUP4 KECCAK256 CALLER DUP5 MSTORE SWAP1 SWAP2 MSTORE SWAP1 KECCAK256 SLOAD PUSH1 0xFF AND ISZERO PUSH2 0x10CB JUMPI PUSH1 0x0 DUP3 DUP2 MSTORE PUSH1 0x9 PUSH1 0x20 SWAP1 DUP2 MSTORE PUSH1 0x40 DUP1 DUP4 KECCAK256 CALLER DUP5 MSTORE SWAP1 SWAP2 MSTORE DUP2 KECCAK256 DUP2 JUMPDEST DUP2 SLOAD DUP2 LT ISZERO PUSH2 0xFDE JUMPI PUSH2 0xEF3 DUP2 DUP4 PUSH2 0x1BF5 JUMP JUMPDEST POP PUSH1 0x3 DUP2 ADD SWAP1 DUP2 SLOAD SWAP2 PUSH1 0xFF DUP4 AND ISZERO PUSH2 0xF11 JUMPI JUMPDEST POP POP POP PUSH1 0x1 ADD PUSH2 0xEE0 JUMP JUMPDEST DUP2 PUSH1 0x1 SWAP2 DUP3 PUSH2 0xF2D SWAP6 SWAP9 SWAP5 SLOAD SWAP9 PUSH1 0xFF NOT AND OR SWAP1 SSTORE ADD SLOAD SWAP1 PUSH2 0x1CE4 JUMP JUMPDEST SWAP3 PUSH1 0x40 MLOAD SWAP1 PUSH4 0x23B872DD PUSH1 0xE0 SHL DUP3 MSTORE CALLER PUSH1 0x4 DUP4 ADD MSTORE ADDRESS PUSH1 0x24 DUP4 ADD MSTORE PUSH1 0x44 DUP3 ADD MSTORE PUSH1 0x20 DUP2 PUSH1 0x64 DUP2 PUSH1 0x0 DUP10 GAS CALL SWAP1 DUP2 ISZERO PUSH2 0xD02 JUMPI PUSH1 0x0 SWAP2 PUSH2 0xFB0 JUMPI JUMPDEST POP ISZERO PUSH2 0xF75 JUMPI DUP6 DUP1 DUP1 PUSH2 0xF06 JUMP JUMPDEST PUSH1 0x40 MLOAD PUSH3 0x461BCD PUSH1 0xE5 SHL DUP2 MSTORE PUSH1 0x20 PUSH1 0x4 DUP3 ADD MSTORE PUSH1 0x13 PUSH1 0x24 DUP3 ADD MSTORE PUSH19 0x151BDAD95B881C995D1D5C9B8819985A5B1959 PUSH1 0x6A SHL PUSH1 0x44 DUP3 ADD MSTORE PUSH1 0x64 SWAP1 REVERT JUMPDEST PUSH2 0xFD1 SWAP2 POP PUSH1 0x20 RETURNDATASIZE DUP2 GT PUSH2 0xFD7 JUMPI JUMPDEST PUSH2 0xFC9 DUP2 DUP4 PUSH2 0x1929 JUMP JUMPDEST DUP2 ADD SWAP1 PUSH2 0x1CCC JUMP JUMPDEST DUP7 PUSH2 0xF67 JUMP JUMPDEST POP RETURNDATASIZE PUSH2 0xFBF JUMP JUMPDEST DUP5 DUP4 DUP1 ISZERO PUSH2 0x108F JUMPI DUP2 PUSH1 0x0 MSTORE PUSH1 0xA PUSH1 0x20 MSTORE PUSH1 0x40 PUSH1 0x0 KECCAK256 PUSH2 0xFFF DUP3 DUP3 SLOAD PUSH2 0x1C86 JUMP JUMPDEST SWAP1 SSTORE PUSH1 0x0 DUP1 DUP1 DUP1 DUP5 CALLER GAS CALL PUSH2 0x1012 PUSH2 0x1C56 JUMP JUMPDEST POP ISZERO PUSH2 0x1056 JUMPI PUSH32 0x6BDCCF7C73E342B75A862529622158CC3E873AD016BABC6EFAEF7C758DA4125E SWAP2 PUSH1 0x60 SWAP2 PUSH1 0x40 MLOAD SWAP2 DUP3 MSTORE CALLER PUSH1 0x20 DUP4 ADD MSTORE PUSH1 0x40 DUP3 ADD MSTORE LOG1 PUSH1 0x1 PUSH1 0x0 SSTORE STOP JUMPDEST PUSH1 0x40 MLOAD PUSH3 0x461BCD PUSH1 0xE5 SHL DUP2 MSTORE PUSH1 0x20 PUSH1 0x4 DUP3 ADD MSTORE PUSH1 0x11 PUSH1 0x24 DUP3 ADD MSTORE PUSH17 0x115512081C99599D5B990819985A5B1959 PUSH1 0x7A SHL PUSH1 0x44 DUP3 ADD MSTORE PUSH1 0x64 SWAP1 REVERT JUMPDEST PUSH1 0x40 MLOAD PUSH3 0x461BCD PUSH1 0xE5 SHL DUP2 MSTORE PUSH1 0x20 PUSH1 0x4 DUP3 ADD MSTORE PUSH1 0x14 PUSH1 0x24 DUP3 ADD MSTORE PUSH20 0x4E6F20726566756E647320617661696C61626C65 PUSH1 0x60 SHL PUSH1 0x44 DUP3 ADD MSTORE PUSH1 0x64 SWAP1 REVERT JUMPDEST PUSH4 0x66EABD07 PUSH1 0xE0 SHL PUSH1 0x0 MSTORE PUSH1 0x4 PUSH1 0x0 REVERT JUMPDEST POP PUSH4 0xA89B369D PUSH1 0xE0 SHL PUSH1 0x0 MSTORE PUSH1 0x4 MSTORE PUSH1 0x24 PUSH1 0x0 REVERT JUMPDEST PUSH4 0x547F0937 PUSH1 0xE0 SHL PUSH1 0x0 MSTORE PUSH1 0x4 PUSH1 0x0 REVERT JUMPDEST PUSH4 0x4A01DAAF PUSH1 0xE1 SHL PUSH1 0x0 MSTORE PUSH1 0x4 PUSH1 0x0 REVERT JUMPDEST CALLVALUE PUSH2 0x2B4 JUMPI PUSH1 0x20 CALLDATASIZE PUSH1 0x3 NOT ADD SLT PUSH2 0x2B4 JUMPI PUSH1 0x4 CALLDATALOAD PUSH1 0x0 MSTORE PUSH1 0xA PUSH1 0x20 MSTORE PUSH1 0x20 PUSH1 0x40 PUSH1 0x0 KECCAK256 SLOAD PUSH1 0x40 MLOAD SWAP1 DUP2 MSTORE RETURN JUMPDEST PUSH1 0x20 CALLDATASIZE PUSH1 0x3 NOT ADD SLT PUSH2 0x2B4 JUMPI PUSH1 0x4 CALLDATALOAD PUSH2 0x1156 PUSH2 0x1E90 JUMP JUMPDEST PUSH1 0x0 DUP2 DUP2 MSTORE PUSH1 0x5 PUSH1 0x20 MSTORE PUSH1 0x40 SWAP1 KECCAK256 PUSH1 0x1 DUP2 ADD DUP1 SLOAD SWAP1 SWAP2 SWAP1 PUSH1 0x1 PUSH1 0x1 PUSH1 0xA0 SHL SUB AND ISZERO PUSH2 0x1569 JUMPI PUSH1 0x7 DUP2 ADD SLOAD TIMESTAMP GT ISZERO PUSH2 0x1558 JUMPI CALLVALUE ISZERO PUSH2 0x1547 JUMPI PUSH1 0x0 DUP4 DUP2 MSTORE PUSH1 0x8 PUSH1 0x20 SWAP1 DUP2 MSTORE PUSH1 0x40 DUP1 DUP4 KECCAK256 CALLER DUP5 MSTORE SWAP1 SWAP2 MSTORE SWAP1 KECCAK256 SLOAD PUSH1 0xFF AND ISZERO PUSH2 0x14C7 JUMPI JUMPDEST POP PUSH2 0x11BB CALLVALUE DUP4 PUSH2 0x1C11 JUMP JUMPDEST SWAP1 SLOAD PUSH1 0x40 MLOAD PUSH4 0x70A08231 PUSH1 0xE0 SHL DUP2 MSTORE ADDRESS PUSH1 0x4 DUP3 ADD MSTORE PUSH1 0x1 PUSH1 0x1 PUSH1 0xA0 SHL SUB SWAP1 SWAP2 AND SWAP3 SWAP1 PUSH1 0x20 DUP2 PUSH1 0x24 DUP2 DUP8 GAS STATICCALL SWAP1 DUP2 ISZERO PUSH2 0xD02 JUMPI PUSH1 0x0 SWAP2 PUSH2 0x1495 JUMPI JUMPDEST POP PUSH1 0x40 MLOAD PUSH4 0x313CE567 PUSH1 0xE0 SHL DUP2 MSTORE PUSH1 0x20 DUP2 PUSH1 0x4 DUP2 DUP9 GAS STATICCALL SWAP1 DUP2 ISZERO PUSH2 0xD02 JUMPI PUSH2 0x122F SWAP2 PUSH2 0x1229 SWAP2 PUSH1 0x0 SWAP2 PUSH2 0x1465 JUMPI JUMPDEST POP PUSH2 0x1CBB JUMP JUMPDEST DUP5 PUSH2 0x1C43 JUMP JUMPDEST GT PUSH2 0x1484 JUMPI PUSH2 0x123F PUSH1 0x2 SLOAD PUSH2 0x1C93 JUMP JUMPDEST DUP1 PUSH1 0x2 SSTORE PUSH1 0x40 MLOAD PUSH2 0x1278 DUP2 PUSH2 0x643 PUSH1 0x20 DUP3 ADD SWAP5 CALLER TIMESTAMP DUP8 SWAP2 PUSH1 0x54 SWAP4 SWAP2 DUP4 MSTORE PUSH1 0x1 PUSH1 0x1 PUSH1 0x60 SHL SUB NOT SWAP1 PUSH1 0x60 SHL AND PUSH1 0x20 DUP4 ADD MSTORE PUSH1 0x34 DUP3 ADD MSTORE ADD SWAP1 JUMP JUMPDEST MLOAD SWAP1 KECCAK256 PUSH1 0xA0 SHR SWAP3 PUSH1 0x40 MLOAD PUSH4 0x313CE567 PUSH1 0xE0 SHL DUP2 MSTORE PUSH1 0x20 DUP2 PUSH1 0x4 DUP2 DUP6 GAS STATICCALL SWAP1 DUP2 ISZERO PUSH2 0xD02 JUMPI PUSH2 0x12B1 SWAP2 PUSH2 0x1229 SWAP2 PUSH1 0x0 SWAP2 PUSH2 0x1465 JUMPI POP PUSH2 0x1CBB JUMP JUMPDEST PUSH1 0x40 MLOAD SWAP1 PUSH2 0x12BE DUP3 PUSH2 0x18F2 JUMP JUMPDEST DUP2 MSTORE CALLVALUE PUSH1 0x20 DUP1 DUP4 ADD SWAP2 DUP3 MSTORE TIMESTAMP PUSH1 0x40 DUP1 DUP6 ADD SWAP2 DUP3 MSTORE PUSH1 0x0 PUSH1 0x60 DUP7 ADD DUP2 DUP2 MSTORE DUP9 DUP3 MSTORE PUSH1 0x9 DUP6 MSTORE DUP3 DUP3 KECCAK256 CALLER DUP4 MSTORE SWAP1 SWAP5 MSTORE KECCAK256 DUP1 SLOAD SWAP3 SWAP5 SWAP4 SWAP3 PUSH1 0x1 PUSH1 0x40 SHL DUP2 LT ISZERO PUSH2 0x9E0 JUMPI PUSH2 0x130D SWAP2 PUSH1 0x1 DUP3 ADD DUP2 SSTORE PUSH2 0x1BF5 JUMP JUMPDEST SWAP3 SWAP1 SWAP3 PUSH2 0x144F JUMPI PUSH1 0x3 SWAP4 MLOAD DUP4 SSTORE MLOAD PUSH1 0x1 DUP4 ADD SSTORE MLOAD PUSH1 0x2 DUP3 ADD SSTORE ADD SWAP1 MLOAD ISZERO ISZERO PUSH1 0xFF DUP1 NOT DUP4 SLOAD AND SWAP2 AND OR SWAP1 SSTORE PUSH1 0x40 MLOAD SWAP1 PUSH4 0x313CE567 PUSH1 0xE0 SHL DUP3 MSTORE PUSH1 0x20 DUP3 PUSH1 0x4 DUP2 DUP5 GAS STATICCALL SWAP1 DUP2 ISZERO PUSH2 0xD02 JUMPI PUSH1 0x44 PUSH2 0x1375 PUSH2 0x136F PUSH1 0x20 SWAP5 PUSH1 0x0 SWAP7 DUP8 SWAP2 PUSH2 0x1422 JUMPI POP PUSH2 0x1CBB JUMP JUMPDEST DUP8 PUSH2 0x1C43 JUMP JUMPDEST PUSH1 0x40 MLOAD SWAP5 DUP6 SWAP4 DUP5 SWAP3 PUSH4 0xA9059CBB PUSH1 0xE0 SHL DUP5 MSTORE CALLER PUSH1 0x4 DUP6 ADD MSTORE PUSH1 0x24 DUP5 ADD MSTORE GAS CALL SWAP1 DUP2 ISZERO PUSH2 0xD02 JUMPI PUSH1 0x0 SWAP2 PUSH2 0x1403 JUMPI JUMPDEST POP ISZERO PUSH2 0x13F2 JUMPI PUSH32 0x75F77114B0B88DA95841D46A17DA78C266E2C6CFBEAFAF83DC456AD9669C33C3 SWAP3 PUSH1 0xA0 SWAP3 PUSH1 0x40 MLOAD SWAP3 DUP4 MSTORE CALLER PUSH1 0x20 DUP5 ADD MSTORE PUSH1 0x40 DUP4 ADD MSTORE CALLVALUE PUSH1 0x60 DUP4 ADD MSTORE PUSH1 0x80 DUP3 ADD MSTORE LOG1 PUSH1 0x1 PUSH1 0x0 SSTORE STOP JUMPDEST PUSH4 0x12171D83 PUSH1 0xE3 SHL PUSH1 0x0 MSTORE PUSH1 0x4 PUSH1 0x0 REVERT JUMPDEST PUSH2 0x141C SWAP2 POP PUSH1 0x20 RETURNDATASIZE PUSH1 0x20 GT PUSH2 0xFD7 JUMPI PUSH2 0xFC9 DUP2 DUP4 PUSH2 0x1929 JUMP JUMPDEST DUP5 PUSH2 0x13A3 JUMP JUMPDEST PUSH2 0x1442 SWAP2 POP DUP7 RETURNDATASIZE DUP9 GT PUSH2 0x1448 JUMPI JUMPDEST PUSH2 0x143A DUP2 DUP4 PUSH2 0x1929 JUMP JUMPDEST DUP2 ADD SWAP1 PUSH2 0x1CA2 JUMP JUMPDEST DUP11 PUSH2 0x1223 JUMP JUMPDEST POP RETURNDATASIZE PUSH2 0x1430 JUMP JUMPDEST PUSH4 0x4E487B71 PUSH1 0xE0 SHL PUSH1 0x0 MSTORE PUSH1 0x0 PUSH1 0x4 MSTORE PUSH1 0x24 PUSH1 0x0 REVERT JUMPDEST PUSH2 0x147E SWAP2 POP PUSH1 0x20 RETURNDATASIZE PUSH1 0x20 GT PUSH2 0x1448 JUMPI PUSH2 0x143A DUP2 DUP4 PUSH2 0x1929 JUMP JUMPDEST DUP8 PUSH2 0x1223 JUMP JUMPDEST PUSH4 0x24AEF331 PUSH1 0xE1 SHL PUSH1 0x0 MSTORE PUSH1 0x4 PUSH1 0x0 REVERT JUMPDEST SWAP1 POP PUSH1 0x20 DUP2 RETURNDATASIZE PUSH1 0x20 GT PUSH2 0x14BF JUMPI JUMPDEST DUP2 PUSH2 0x14B0 PUSH1 0x20 SWAP4 DUP4 PUSH2 0x1929 JUMP JUMPDEST DUP2 ADD SUB SLT PUSH2 0x2B4 JUMPI MLOAD DUP5 PUSH2 0x11F5 JUMP JUMPDEST RETURNDATASIZE SWAP2 POP PUSH2 0x14A3 JUMP JUMPDEST PUSH1 0x0 DUP4 DUP2 MSTORE PUSH1 0x8 PUSH1 0x20 SWAP1 DUP2 MSTORE PUSH1 0x40 DUP1 DUP4 KECCAK256 CALLER DUP5 MSTORE DUP3 MSTORE DUP1 DUP4 KECCAK256 DUP1 SLOAD PUSH1 0xFF NOT AND PUSH1 0x1 OR SWAP1 SSTORE DUP6 DUP4 MSTORE PUSH1 0x7 SWAP1 SWAP2 MSTORE SWAP1 KECCAK256 DUP1 SLOAD SWAP2 SWAP1 PUSH1 0x1 PUSH1 0x40 SHL DUP4 LT ISZERO PUSH2 0x9E0 JUMPI DUP3 PUSH2 0x1517 SWAP2 PUSH1 0x1 PUSH1 0xC SWAP6 ADD DUP2 SSTORE PUSH2 0x188A JUMP JUMPDEST DUP2 SLOAD PUSH1 0x1 PUSH1 0x1 PUSH1 0xA0 SHL SUB PUSH1 0x3 SWAP3 SWAP1 SWAP3 SHL SWAP2 DUP3 SHL NOT AND CALLER SWAP1 SWAP2 SHL OR SWAP1 SSTORE ADD DUP1 SLOAD PUSH2 0x153F SWAP1 PUSH2 0x1C93 JUMP JUMPDEST SWAP1 SSTORE DUP3 PUSH2 0x11B0 JUMP JUMPDEST PUSH4 0xBD1FA9D3 PUSH1 0xE0 SHL PUSH1 0x0 MSTORE PUSH1 0x4 PUSH1 0x0 REVERT JUMPDEST PUSH4 0x16851A37 PUSH1 0xE1 SHL PUSH1 0x0 MSTORE PUSH1 0x4 PUSH1 0x0 REVERT JUMPDEST DUP3 PUSH4 0xA89B369D PUSH1 0xE0 SHL PUSH1 0x0 MSTORE PUSH1 0x4 MSTORE PUSH1 0x24 PUSH1 0x0 REVERT JUMPDEST CALLVALUE PUSH2 0x2B4 JUMPI PUSH1 0x20 CALLDATASIZE PUSH1 0x3 NOT ADD SLT PUSH2 0x2B4 JUMPI PUSH1 0x4 CALLDATALOAD PUSH2 0x159A PUSH2 0x1E90 JUMP JUMPDEST PUSH1 0x0 DUP2 DUP2 MSTORE PUSH1 0x5 PUSH1 0x20 MSTORE PUSH1 0x40 SWAP1 KECCAK256 PUSH1 0x1 DUP2 ADD SLOAD PUSH1 0x1 PUSH1 0x1 PUSH1 0xA0 SHL SUB AND ISZERO PUSH2 0x10DC JUMPI PUSH1 0xA ADD DUP1 SLOAD PUSH1 0x1 PUSH1 0x1 PUSH1 0xA0 SHL SUB AND SWAP2 SWAP1 CALLER DUP4 SWAP1 SUB PUSH2 0x16C1 JUMPI DUP2 PUSH1 0x0 MSTORE PUSH1 0xA PUSH1 0x20 MSTORE PUSH1 0x40 PUSH1 0x0 KECCAK256 SLOAD SWAP1 PUSH2 0x15EC DUP4 PUSH2 0x1E6D JUMP JUMPDEST DUP1 DUP4 LT PUSH2 0x16A9 JUMPI POP DUP2 ISZERO PUSH2 0x1698 JUMPI PUSH1 0x63 DUP3 MUL DUP3 DUP2 DIV PUSH1 0x63 SUB PUSH2 0xD41 JUMPI PUSH1 0x0 DUP1 DUP1 PUSH1 0x64 DUP2 SWAP5 DIV DUP1 SWAP9 GAS CALL PUSH2 0x161D PUSH2 0x1C56 JUMP JUMPDEST POP ISZERO PUSH2 0x167F JUMPI SLOAD PUSH32 0x8946817B7F4DC96368878328F63B61EFDDAC421DAAF0D041668E7566F067A0E1 SWAP4 PUSH1 0x80 SWAP4 SWAP3 PUSH1 0x1 PUSH1 0x1 PUSH1 0xA0 SHL SUB SWAP1 SWAP3 AND SWAP2 PUSH2 0x1661 SWAP1 DUP3 SWAP1 PUSH2 0x1C86 JUMP JUMPDEST SWAP2 PUSH1 0x40 MLOAD SWAP4 DUP5 MSTORE PUSH1 0x20 DUP5 ADD MSTORE PUSH1 0x40 DUP4 ADD MSTORE PUSH1 0x60 DUP3 ADD MSTORE LOG1 PUSH1 0x1 PUSH1 0x0 SSTORE STOP JUMPDEST DUP4 PUSH4 0x92873D13 PUSH1 0xE0 SHL PUSH1 0x0 MSTORE CALLER PUSH1 0x4 MSTORE PUSH1 0x24 MSTORE PUSH1 0x44 PUSH1 0x0 REVERT JUMPDEST PUSH4 0x67E3990D PUSH1 0xE0 SHL PUSH1 0x0 MSTORE PUSH1 0x4 PUSH1 0x0 REVERT JUMPDEST DUP3 PUSH4 0xE39A225 PUSH1 0xE3 SHL PUSH1 0x0 MSTORE PUSH1 0x4 MSTORE PUSH1 0x24 MSTORE PUSH1 0x44 PUSH1 0x0 REVERT JUMPDEST DUP3 PUSH4 0xBCF9E5B PUSH1 0xE4 SHL PUSH1 0x0 MSTORE CALLER PUSH1 0x4 MSTORE PUSH1 0x24 MSTORE PUSH1 0x44 PUSH1 0x0 REVERT JUMPDEST CALLVALUE PUSH2 0x2B4 JUMPI PUSH1 0x20 CALLDATASIZE PUSH1 0x3 NOT ADD SLT PUSH2 0x2B4 JUMPI PUSH1 0x4 CALLDATALOAD PUSH1 0x0 SWAP1 DUP2 MSTORE PUSH1 0x5 PUSH1 0x20 MSTORE PUSH1 0x40 SWAP1 KECCAK256 DUP1 SLOAD PUSH1 0x1 DUP3 ADD SLOAD PUSH1 0x1 PUSH1 0x1 PUSH1 0xA0 SHL SUB AND SWAP2 PUSH2 0x1719 PUSH1 0x2 DUP3 ADD PUSH2 0x194A JUMP JUMPDEST PUSH2 0x1725 PUSH1 0x3 DUP4 ADD PUSH2 0x194A JUMP JUMPDEST PUSH1 0x4 DUP4 ADD SLOAD SWAP3 SWAP1 PUSH2 0x1738 PUSH1 0x5 DUP4 ADD PUSH2 0x194A JUMP JUMPDEST SWAP4 PUSH2 0x1745 PUSH1 0x6 DUP5 ADD PUSH2 0x194A JUMP JUMPDEST SWAP5 PUSH1 0x7 DUP5 ADD SLOAD SWAP6 PUSH1 0x8 DUP6 ADD SLOAD SWAP2 PUSH1 0x9 DUP7 ADD SLOAD SWAP4 PUSH1 0x1 PUSH1 0xA0 SHL PUSH1 0x1 SWAP1 SUB PUSH1 0xA DUP9 ADD SLOAD AND SWAP6 PUSH1 0xB DUP9 ADD SLOAD SWAP8 PUSH1 0xC ADD SLOAD SWAP9 PUSH1 0x40 MLOAD SWAP13 DUP14 SWAP13 DUP14 MSTORE PUSH1 0x20 DUP14 ADD MSTORE PUSH1 0x40 DUP13 ADD PUSH2 0x1A0 SWAP1 MSTORE PUSH2 0x1A0 DUP13 ADD PUSH2 0x1797 SWAP2 PUSH2 0x19EE JUMP JUMPDEST DUP12 DUP2 SUB PUSH1 0x60 DUP14 ADD MSTORE PUSH2 0x17A8 SWAP2 PUSH2 0x19EE JUMP JUMPDEST SWAP1 PUSH1 0x80 DUP12 ADD MSTORE DUP10 DUP2 SUB PUSH1 0xA0 DUP12 ADD MSTORE PUSH2 0x17BF SWAP2 PUSH2 0x19EE JUMP JUMPDEST DUP9 DUP2 SUB PUSH1 0xC0 DUP11 ADD MSTORE PUSH2 0x17D0 SWAP2 PUSH2 0x19EE JUMP JUMPDEST SWAP6 PUSH1 0xE0 DUP9 ADD MSTORE PUSH2 0x100 DUP8 ADD MSTORE PUSH2 0x120 DUP7 ADD MSTORE PUSH2 0x140 DUP6 ADD MSTORE PUSH2 0x160 DUP5 ADD MSTORE PUSH2 0x180 DUP4 ADD MSTORE SUB SWAP1 RETURN JUMPDEST CALLVALUE PUSH2 0x2B4 JUMPI PUSH1 0x40 CALLDATASIZE PUSH1 0x3 NOT ADD SLT PUSH2 0x2B4 JUMPI PUSH1 0x4 CALLDATALOAD PUSH1 0x1 PUSH1 0x1 PUSH1 0xA0 SHL SUB DUP2 AND SWAP1 DUP2 SWAP1 SUB PUSH2 0x2B4 JUMPI PUSH1 0x24 CALLDATALOAD SWAP1 PUSH1 0x0 MSTORE PUSH1 0x6 PUSH1 0x20 MSTORE PUSH1 0x40 PUSH1 0x0 KECCAK256 DUP1 SLOAD DUP3 LT ISZERO PUSH2 0x2B4 JUMPI PUSH1 0x20 SWAP2 PUSH2 0x1844 SWAP2 PUSH2 0x188A JUMP JUMPDEST SWAP1 SLOAD SWAP1 PUSH1 0x3 SHL SHR PUSH1 0x40 MLOAD SWAP1 DUP2 MSTORE RETURN JUMPDEST CALLVALUE PUSH2 0x2B4 JUMPI PUSH1 0x40 CALLDATASIZE PUSH1 0x3 NOT ADD SLT PUSH2 0x2B4 JUMPI PUSH1 0x20 PUSH2 0x2D7 PUSH1 0x24 CALLDATALOAD PUSH1 0x4 CALLDATALOAD PUSH2 0x1C11 JUMP JUMPDEST PUSH1 0x24 CALLDATALOAD SWAP1 PUSH1 0x1 PUSH1 0x1 PUSH1 0xA0 SHL SUB DUP3 AND DUP3 SUB PUSH2 0x2B4 JUMPI JUMP JUMPDEST DUP1 SLOAD DUP3 LT ISZERO PUSH2 0x18A2 JUMPI PUSH1 0x0 MSTORE PUSH1 0x20 PUSH1 0x0 KECCAK256 ADD SWAP1 PUSH1 0x0 SWAP1 JUMP JUMPDEST PUSH4 0x4E487B71 PUSH1 0xE0 SHL PUSH1 0x0 MSTORE PUSH1 0x32 PUSH1 0x4 MSTORE PUSH1 0x24 PUSH1 0x0 REVERT JUMPDEST SWAP1 PUSH1 0x1 DUP3 DUP2 SHR SWAP3 AND DUP1 ISZERO PUSH2 0x18E8 JUMPI JUMPDEST PUSH1 0x20 DUP4 LT EQ PUSH2 0x18D2 JUMPI JUMP JUMPDEST PUSH4 0x4E487B71 PUSH1 0xE0 SHL PUSH1 0x0 MSTORE PUSH1 0x22 PUSH1 0x4 MSTORE PUSH1 0x24 PUSH1 0x0 REVERT JUMPDEST SWAP2 PUSH1 0x7F AND SWAP2 PUSH2 0x18C7 JUMP JUMPDEST PUSH1 0x80 DUP2 ADD SWAP1 DUP2 LT PUSH1 0x1 PUSH1 0x1 PUSH1 0x40 SHL SUB DUP3 GT OR PUSH2 0x9E0 JUMPI PUSH1 0x40 MSTORE JUMP JUMPDEST PUSH2 0x1A0 DUP2 ADD SWAP1 DUP2 LT PUSH1 0x1 PUSH1 0x1 PUSH1 0x40 SHL SUB DUP3 GT OR PUSH2 0x9E0 JUMPI PUSH1 0x40 MSTORE JUMP JUMPDEST SWAP1 PUSH1 0x1F DUP1 NOT SWAP2 ADD AND DUP2 ADD SWAP1 DUP2 LT PUSH1 0x1 PUSH1 0x1 PUSH1 0x40 SHL SUB DUP3 GT OR PUSH2 0x9E0 JUMPI PUSH1 0x40 MSTORE JUMP JUMPDEST SWAP1 PUSH1 0x40 MLOAD SWAP2 DUP3 PUSH1 0x0 DUP3 SLOAD SWAP3 PUSH2 0x195E DUP5 PUSH2 0x18B8 JUMP JUMPDEST DUP1 DUP5 MSTORE SWAP4 PUSH1 0x1 DUP2 AND SWAP1 DUP2 ISZERO PUSH2 0x19CC JUMPI POP PUSH1 0x1 EQ PUSH2 0x1985 JUMPI JUMPDEST POP PUSH2 0x1983 SWAP3 POP SUB DUP4 PUSH2 0x1929 JUMP JUMPDEST JUMP JUMPDEST SWAP1 POP PUSH1 0x0 SWAP3 SWAP2 SWAP3 MSTORE PUSH1 0x20 PUSH1 0x0 KECCAK256 SWAP1 PUSH1 0x0 SWAP2 JUMPDEST DUP2 DUP4 LT PUSH2 0x19B0 JUMPI POP POP SWAP1 PUSH1 0x20 PUSH2 0x1983 SWAP3 DUP3 ADD ADD CODESIZE PUSH2 0x1976 JUMP JUMPDEST PUSH1 0x20 SWAP2 SWAP4 POP DUP1 PUSH1 0x1 SWAP2 SLOAD DUP4 DUP6 DUP10 ADD ADD MSTORE ADD SWAP2 ADD SWAP1 SWAP2 DUP5 SWAP3 PUSH2 0x1997 JUMP JUMPDEST SWAP1 POP PUSH1 0x20 SWAP3 POP PUSH2 0x1983 SWAP5 SWAP2 POP PUSH1 0xFF NOT AND DUP3 DUP5 ADD MSTORE ISZERO ISZERO PUSH1 0x5 SHL DUP3 ADD ADD CODESIZE PUSH2 0x1976 JUMP JUMPDEST SWAP2 SWAP1 DUP3 MLOAD SWAP3 DUP4 DUP3 MSTORE PUSH1 0x0 JUMPDEST DUP5 DUP2 LT PUSH2 0x1A1A JUMPI POP POP DUP3 PUSH1 0x0 PUSH1 0x20 DUP1 SWAP5 SWAP6 DUP5 ADD ADD MSTORE PUSH1 0x1F DUP1 NOT SWAP2 ADD AND ADD ADD SWAP1 JUMP JUMPDEST DUP1 PUSH1 0x20 DUP1 SWAP3 DUP5 ADD ADD MLOAD DUP3 DUP3 DUP7 ADD ADD MSTORE ADD PUSH2 0x19F9 JUMP JUMPDEST SWAP1 DUP2 MLOAD DUP2 MSTORE PUSH1 0x1 DUP1 PUSH1 0xA0 SHL SUB PUSH1 0x20 DUP4 ADD MLOAD AND PUSH1 0x20 DUP3 ADD MSTORE PUSH2 0x180 DUP1 PUSH2 0x1AAE PUSH2 0x1A9C PUSH2 0x1A80 PUSH2 0x1A6E PUSH1 0x40 DUP9 ADD MLOAD PUSH2 0x1A0 PUSH1 0x40 DUP10 ADD MSTORE PUSH2 0x1A0 DUP9 ADD SWAP1 PUSH2 0x19EE JUMP JUMPDEST PUSH1 0x60 DUP9 ADD MLOAD DUP8 DUP3 SUB PUSH1 0x60 DUP10 ADD MSTORE PUSH2 0x19EE JUMP JUMPDEST PUSH1 0x80 DUP8 ADD MLOAD PUSH1 0x80 DUP8 ADD MSTORE PUSH1 0xA0 DUP8 ADD MLOAD DUP7 DUP3 SUB PUSH1 0xA0 DUP9 ADD MSTORE PUSH2 0x19EE JUMP JUMPDEST PUSH1 0xC0 DUP7 ADD MLOAD DUP6 DUP3 SUB PUSH1 0xC0 DUP8 ADD MSTORE PUSH2 0x19EE JUMP JUMPDEST SWAP4 PUSH1 0xE0 DUP2 ADD MLOAD PUSH1 0xE0 DUP6 ADD MSTORE PUSH2 0x100 DUP2 ADD MLOAD PUSH2 0x100 DUP6 ADD MSTORE PUSH2 0x120 DUP2 ADD MLOAD PUSH2 0x120 DUP6 ADD MSTORE PUSH1 0x1 DUP1 PUSH1 0xA0 SHL SUB PUSH2 0x140 DUP3 ADD MLOAD AND PUSH2 0x140 DUP6 ADD MSTORE PUSH2 0x160 DUP2 ADD MLOAD PUSH2 0x160 DUP6 ADD MSTORE ADD MLOAD SWAP2 ADD MSTORE SWAP1 JUMP JUMPDEST PUSH1 0x20 DUP2 MSTORE PUSH2 0x1B13 DUP3 MLOAD PUSH1 0x80 PUSH1 0x20 DUP5 ADD MSTORE PUSH1 0xA0 DUP4 ADD SWAP1 PUSH2 0x1A2F JUMP JUMPDEST SWAP2 PUSH1 0x20 DUP2 ADD MLOAD PUSH1 0x40 DUP4 ADD MSTORE PUSH1 0x40 DUP2 ADD MLOAD SWAP3 PUSH1 0x1F NOT DUP4 DUP3 SUB ADD PUSH1 0x60 DUP5 ADD MSTORE PUSH1 0x20 DUP1 DUP6 MLOAD SWAP3 DUP4 DUP2 MSTORE ADD SWAP5 ADD SWAP1 PUSH1 0x0 JUMPDEST DUP2 DUP2 LT PUSH2 0x1B59 JUMPI POP POP POP PUSH1 0x60 PUSH1 0x80 SWAP2 ADD MLOAD ISZERO ISZERO SWAP2 ADD MSTORE SWAP1 JUMP JUMPDEST SWAP1 SWAP2 SWAP5 PUSH1 0x20 PUSH1 0x80 PUSH1 0x1 SWAP3 PUSH1 0x60 DUP10 MLOAD DUP1 MLOAD DUP4 MSTORE DUP5 DUP2 ADD MLOAD DUP6 DUP5 ADD MSTORE PUSH1 0x40 DUP2 ADD MLOAD PUSH1 0x40 DUP5 ADD MSTORE ADD MLOAD ISZERO ISZERO PUSH1 0x60 DUP3 ADD MSTORE ADD SWAP7 ADD SWAP2 ADD SWAP2 SWAP1 SWAP2 PUSH2 0x1B40 JUMP JUMPDEST PUSH1 0x1 PUSH1 0x1 PUSH1 0x40 SHL SUB DUP2 GT PUSH2 0x9E0 JUMPI PUSH1 0x1F ADD PUSH1 0x1F NOT AND PUSH1 0x20 ADD SWAP1 JUMP JUMPDEST DUP2 PUSH1 0x1F DUP3 ADD SLT ISZERO PUSH2 0x2B4 JUMPI DUP1 CALLDATALOAD SWAP1 PUSH2 0x1BC5 DUP3 PUSH2 0x1B93 JUMP JUMPDEST SWAP3 PUSH2 0x1BD3 PUSH1 0x40 MLOAD SWAP5 DUP6 PUSH2 0x1929 JUMP JUMPDEST DUP3 DUP5 MSTORE PUSH1 0x20 DUP4 DUP4 ADD ADD GT PUSH2 0x2B4 JUMPI DUP2 PUSH1 0x0 SWAP3 PUSH1 0x20 DUP1 SWAP4 ADD DUP4 DUP7 ADD CALLDATACOPY DUP4 ADD ADD MSTORE SWAP1 JUMP JUMPDEST DUP1 SLOAD DUP3 LT ISZERO PUSH2 0x18A2 JUMPI PUSH1 0x0 MSTORE PUSH1 0x20 PUSH1 0x0 KECCAK256 SWAP1 PUSH1 0x2 SHL ADD SWAP1 PUSH1 0x0 SWAP1 JUMP JUMPDEST PUSH1 0x0 MSTORE PUSH1 0x5 PUSH1 0x20 MSTORE PUSH1 0x9 PUSH1 0x40 PUSH1 0x0 KECCAK256 ADD SLOAD SWAP1 DUP2 ISZERO PUSH2 0x1C2D JUMPI DIV SWAP1 JUMP JUMPDEST PUSH4 0x4E487B71 PUSH1 0xE0 SHL PUSH1 0x0 MSTORE PUSH1 0x12 PUSH1 0x4 MSTORE PUSH1 0x24 PUSH1 0x0 REVERT JUMPDEST DUP2 DUP2 MUL SWAP3 SWAP2 DUP2 ISZERO SWAP2 DUP5 DIV EQ OR ISZERO PUSH2 0xD41 JUMPI JUMP JUMPDEST RETURNDATASIZE ISZERO PUSH2 0x1C81 JUMPI RETURNDATASIZE SWAP1 PUSH2 0x1C67 DUP3 PUSH2 0x1B93 JUMP JUMPDEST SWAP2 PUSH2 0x1C75 PUSH1 0x40 MLOAD SWAP4 DUP5 PUSH2 0x1929 JUMP JUMPDEST DUP3 MSTORE RETURNDATASIZE PUSH1 0x0 PUSH1 0x20 DUP5 ADD RETURNDATACOPY JUMP JUMPDEST PUSH1 0x60 SWAP1 JUMP JUMPDEST SWAP2 SWAP1 DUP3 SUB SWAP2 DUP3 GT PUSH2 0xD41 JUMPI JUMP JUMPDEST PUSH1 0x0 NOT DUP2 EQ PUSH2 0xD41 JUMPI PUSH1 0x1 ADD SWAP1 JUMP JUMPDEST SWAP1 DUP2 PUSH1 0x20 SWAP2 SUB SLT PUSH2 0x2B4 JUMPI MLOAD PUSH1 0xFF DUP2 AND DUP2 SUB PUSH2 0x2B4 JUMPI SWAP1 JUMP JUMPDEST PUSH1 0xFF AND PUSH1 0x4D DUP2 GT PUSH2 0xD41 JUMPI PUSH1 0xA EXP SWAP1 JUMP JUMPDEST SWAP1 DUP2 PUSH1 0x20 SWAP2 SUB SLT PUSH2 0x2B4 JUMPI MLOAD DUP1 ISZERO ISZERO DUP2 SUB PUSH2 0x2B4 JUMPI SWAP1 JUMP JUMPDEST SWAP2 SWAP1 DUP3 ADD DUP1 SWAP3 GT PUSH2 0xD41 JUMPI JUMP JUMPDEST PUSH1 0x40 MLOAD SWAP1 PUSH2 0x1CFE DUP3 PUSH2 0x190D JUMP JUMPDEST PUSH1 0x0 PUSH2 0x180 DUP4 DUP3 DUP2 MSTORE DUP3 PUSH1 0x20 DUP3 ADD MSTORE PUSH1 0x60 PUSH1 0x40 DUP3 ADD MSTORE PUSH1 0x60 DUP1 DUP3 ADD MSTORE DUP3 PUSH1 0x80 DUP3 ADD MSTORE PUSH1 0x60 PUSH1 0xA0 DUP3 ADD MSTORE PUSH1 0x60 PUSH1 0xC0 DUP3 ADD MSTORE DUP3 PUSH1 0xE0 DUP3 ADD MSTORE DUP3 PUSH2 0x100 DUP3 ADD MSTORE DUP3 PUSH2 0x120 DUP3 ADD MSTORE DUP3 PUSH2 0x140 DUP3 ADD MSTORE DUP3 PUSH2 0x160 DUP3 ADD MSTORE ADD MSTORE JUMP JUMPDEST PUSH1 0x40 MLOAD SWAP1 PUSH2 0x1D61 DUP3 PUSH2 0x18F2 JUMP JUMPDEST PUSH1 0x0 PUSH1 0x60 DUP4 PUSH2 0x1D6E PUSH2 0x1CF1 JUMP JUMPDEST DUP2 MSTORE DUP3 PUSH1 0x20 DUP3 ADD MSTORE DUP2 PUSH1 0x40 DUP3 ADD MSTORE ADD MSTORE JUMP JUMPDEST PUSH1 0x1 PUSH1 0x1 PUSH1 0x40 SHL SUB DUP2 GT PUSH2 0x9E0 JUMPI PUSH1 0x5 SHL PUSH1 0x20 ADD SWAP1 JUMP JUMPDEST DUP1 MLOAD DUP3 LT ISZERO PUSH2 0x18A2 JUMPI PUSH1 0x20 SWAP2 PUSH1 0x5 SHL ADD ADD SWAP1 JUMP JUMPDEST SWAP1 PUSH1 0x40 MLOAD PUSH2 0x1DB8 DUP2 PUSH2 0x190D JUMP JUMPDEST DUP3 SLOAD DUP2 MSTORE PUSH1 0x1 DUP4 ADD SLOAD PUSH1 0x1 PUSH1 0x1 PUSH1 0xA0 SHL SUB AND PUSH1 0x20 DUP3 ADD MSTORE SWAP2 DUP3 SWAP1 PUSH2 0x180 SWAP1 PUSH1 0xC SWAP1 PUSH2 0x1DE5 PUSH1 0x2 DUP3 ADD PUSH2 0x194A JUMP JUMPDEST PUSH1 0x40 DUP6 ADD MSTORE PUSH2 0x1DF6 PUSH1 0x3 DUP3 ADD PUSH2 0x194A JUMP JUMPDEST PUSH1 0x60 DUP6 ADD MSTORE PUSH1 0x4 DUP2 ADD SLOAD PUSH1 0x80 DUP6 ADD MSTORE PUSH2 0x1E11 PUSH1 0x5 DUP3 ADD PUSH2 0x194A JUMP JUMPDEST PUSH1 0xA0 DUP6 ADD MSTORE PUSH2 0x1E22 PUSH1 0x6 DUP3 ADD PUSH2 0x194A JUMP JUMPDEST PUSH1 0xC0 DUP6 ADD MSTORE PUSH1 0x7 DUP2 ADD SLOAD PUSH1 0xE0 DUP6 ADD MSTORE PUSH1 0x8 DUP2 ADD SLOAD PUSH2 0x100 DUP6 ADD MSTORE PUSH1 0x9 DUP2 ADD SLOAD PUSH2 0x120 DUP6 ADD MSTORE PUSH1 0xA DUP2 ADD SLOAD PUSH1 0x1 PUSH1 0x1 PUSH1 0xA0 SHL SUB AND PUSH2 0x140 DUP6 ADD MSTORE PUSH1 0xB DUP2 ADD SLOAD PUSH2 0x160 DUP6 ADD MSTORE ADD SLOAD SWAP2 ADD MSTORE JUMP JUMPDEST PUSH1 0x0 MSTORE PUSH1 0x5 PUSH1 0x20 MSTORE PUSH2 0x1E8D PUSH1 0x40 PUSH1 0x0 KECCAK256 PUSH1 0x9 PUSH1 0x4 DUP3 ADD SLOAD SWAP2 ADD SLOAD SWAP1 PUSH2 0x1C43 JUMP JUMPDEST SWAP1 JUMP JUMPDEST PUSH1 0x2 PUSH1 0x0 SLOAD EQ PUSH2 0x1EA1 JUMPI PUSH1 0x2 PUSH1 0x0 SSTORE JUMP JUMPDEST PUSH4 0x3EE5AEB5 PUSH1 0xE0 SHL PUSH1 0x0 MSTORE PUSH1 0x4 PUSH1 0x0 REVERT INVALID PUSH1 0xC0 PUSH1 0x40 MSTORE CALLVALUE PUSH2 0x707 JUMPI PUSH2 0x10B7 DUP1 CODESIZE SUB DUP1 PUSH2 0x19 DUP2 PUSH2 0x70C JUMP JUMPDEST SWAP3 DUP4 CODECOPY DUP2 ADD SWAP1 PUSH2 0x140 DUP2 DUP4 SUB SLT PUSH2 0x707 JUMPI DUP1 MLOAD PUSH1 0x1 PUSH1 0x1 PUSH1 0x40 SHL SUB DUP2 GT PUSH2 0x707 JUMPI DUP3 PUSH2 0x46 SWAP2 DUP4 ADD PUSH2 0x731 JUMP JUMPDEST PUSH1 0x20 DUP3 ADD MLOAD SWAP1 SWAP2 SWAP1 PUSH1 0x1 PUSH1 0x1 PUSH1 0x40 SHL SUB DUP2 GT PUSH2 0x707 JUMPI DUP4 PUSH2 0x68 SWAP2 DUP4 ADD PUSH2 0x731 JUMP JUMPDEST PUSH1 0x40 DUP3 ADD MLOAD PUSH1 0x60 DUP4 ADD MLOAD SWAP1 SWAP5 SWAP1 PUSH1 0x1 PUSH1 0x1 PUSH1 0x40 SHL SUB DUP2 GT PUSH2 0x707 JUMPI DUP2 PUSH2 0x8F SWAP2 DUP6 ADD PUSH2 0x731 JUMP JUMPDEST PUSH1 0x80 DUP5 ADD MLOAD SWAP1 SWAP2 PUSH1 0x1 PUSH1 0x1 PUSH1 0x40 SHL SUB DUP3 GT PUSH2 0x707 JUMPI PUSH2 0xAF SWAP2 DUP6 ADD PUSH2 0x731 JUMP JUMPDEST PUSH1 0xA0 DUP5 ADD MLOAD SWAP1 PUSH1 0xC0 DUP6 ADD MLOAD SWAP3 PUSH1 0xE0 DUP7 ADD MLOAD SWAP5 PUSH2 0xDB PUSH2 0x120 PUSH2 0xD4 PUSH2 0x100 DUP11 ADD PUSH2 0x79C JUMP JUMPDEST SWAP9 ADD PUSH2 0x79C JUMP JUMPDEST DUP9 MLOAD SWAP1 SWAP9 PUSH1 0x1 PUSH1 0x1 PUSH1 0x40 SHL SUB DUP3 GT PUSH2 0x446 JUMPI PUSH1 0x3 SLOAD SWAP1 PUSH1 0x1 DUP3 DUP2 SHR SWAP3 AND DUP1 ISZERO PUSH2 0x6FD JUMPI JUMPDEST PUSH1 0x20 DUP4 LT EQ PUSH2 0x426 JUMPI DUP2 PUSH1 0x1F DUP5 SWAP4 GT PUSH2 0x68D JUMPI JUMPDEST POP PUSH1 0x20 SWAP1 PUSH1 0x1F DUP4 GT PUSH1 0x1 EQ PUSH2 0x625 JUMPI PUSH1 0x0 SWAP3 PUSH2 0x61A JUMPI JUMPDEST POP POP DUP2 PUSH1 0x1 SHL SWAP2 PUSH1 0x0 NOT SWAP1 PUSH1 0x3 SHL SHR NOT AND OR PUSH1 0x3 SSTORE JUMPDEST DUP1 MLOAD SWAP1 PUSH1 0x1 PUSH1 0x1 PUSH1 0x40 SHL SUB DUP3 GT PUSH2 0x446 JUMPI PUSH1 0x4 SLOAD SWAP1 PUSH1 0x1 DUP3 DUP2 SHR SWAP3 AND DUP1 ISZERO PUSH2 0x610 JUMPI JUMPDEST PUSH1 0x20 DUP4 LT EQ PUSH2 0x426 JUMPI DUP2 PUSH1 0x1F DUP5 SWAP4 GT PUSH2 0x5A0 JUMPI JUMPDEST POP PUSH1 0x20 SWAP1 PUSH1 0x1F DUP4 GT PUSH1 0x1 EQ PUSH2 0x538 JUMPI PUSH1 0x0 SWAP3 PUSH2 0x52D JUMPI JUMPDEST POP POP DUP2 PUSH1 0x1 SHL SWAP2 PUSH1 0x0 NOT SWAP1 PUSH1 0x3 SHL SHR NOT AND OR PUSH1 0x4 SSTORE JUMPDEST DUP1 MLOAD SWAP1 PUSH1 0x1 PUSH1 0x1 PUSH1 0x40 SHL SUB DUP3 GT PUSH2 0x446 JUMPI PUSH1 0x5 SLOAD SWAP1 PUSH1 0x1 DUP3 DUP2 SHR SWAP3 AND DUP1 ISZERO PUSH2 0x523 JUMPI JUMPDEST PUSH1 0x20 DUP4 LT EQ PUSH2 0x426 JUMPI DUP2 PUSH1 0x1F DUP5 SWAP4 GT PUSH2 0x4CF JUMPI JUMPDEST POP PUSH1 0x20 SWAP1 PUSH1 0x1F DUP4 GT PUSH1 0x1 EQ PUSH2 0x467 JUMPI PUSH1 0x0 SWAP3 PUSH2 0x45C JUMPI JUMPDEST POP POP DUP2 PUSH1 0x1 SHL SWAP2 PUSH1 0x0 NOT SWAP1 PUSH1 0x3 SHL SHR NOT AND OR PUSH1 0x5 SSTORE JUMPDEST DUP1 MLOAD SWAP1 PUSH1 0x1 PUSH1 0x1 PUSH1 0x40 SHL SUB DUP3 GT PUSH2 0x446 JUMPI PUSH1 0x6 SLOAD SWAP1 PUSH1 0x1 DUP3 DUP2 SHR SWAP3 AND DUP1 ISZERO PUSH2 0x43C JUMPI JUMPDEST PUSH1 0x20 DUP4 LT EQ PUSH2 0x426 JUMPI DUP2 PUSH1 0x1F DUP5 SWAP4 GT PUSH2 0x3B6 JUMPI JUMPDEST POP PUSH1 0x20 SWAP1 PUSH1 0x1F DUP4 GT PUSH1 0x1 EQ PUSH2 0x34E JUMPI PUSH1 0x0 SWAP3 PUSH2 0x343 JUMPI JUMPDEST POP POP DUP2 PUSH1 0x1 SHL SWAP2 PUSH1 0x0 NOT SWAP1 PUSH1 0x3 SHL SHR NOT AND OR PUSH1 0x6 SSTORE JUMPDEST PUSH1 0x7 SSTORE PUSH1 0x8 SSTORE PUSH1 0x80 MSTORE PUSH1 0xA0 MSTORE PUSH8 0xDE0B6B3A7640000 DUP3 MUL SWAP2 DUP1 DUP4 DIV PUSH8 0xDE0B6B3A7640000 EQ SWAP1 ISZERO OR ISZERO PUSH2 0x317 JUMPI PUSH1 0x1 PUSH1 0x1 PUSH1 0xA0 SHL SUB AND SWAP1 DUP2 ISZERO PUSH2 0x32D JUMPI PUSH1 0x2 SLOAD DUP2 DUP2 ADD DUP1 SWAP2 GT PUSH2 0x317 JUMPI PUSH1 0x2 SSTORE PUSH32 0xDDF252AD1BE2C89B69C2B068FC378DAA952BA7F163C4A11628F55A4DF523B3EF PUSH1 0x20 PUSH1 0x0 SWAP3 DUP5 DUP5 MSTORE DUP4 DUP3 MSTORE PUSH1 0x40 DUP5 KECCAK256 DUP2 DUP2 SLOAD ADD SWAP1 SSTORE PUSH1 0x40 MLOAD SWAP1 DUP2 MSTORE LOG3 PUSH1 0x40 MLOAD PUSH2 0x906 SWAP1 DUP2 PUSH2 0x7B1 DUP3 CODECOPY PUSH1 0x80 MLOAD DUP2 PUSH2 0x37C ADD MSTORE PUSH1 0xA0 MLOAD DUP2 PUSH2 0x767 ADD MSTORE RETURN JUMPDEST PUSH4 0x4E487B71 PUSH1 0xE0 SHL PUSH1 0x0 MSTORE PUSH1 0x11 PUSH1 0x4 MSTORE PUSH1 0x24 PUSH1 0x0 REVERT JUMPDEST PUSH4 0xEC442F05 PUSH1 0xE0 SHL PUSH1 0x0 MSTORE PUSH1 0x0 PUSH1 0x4 MSTORE PUSH1 0x24 PUSH1 0x0 REVERT JUMPDEST ADD MLOAD SWAP1 POP CODESIZE DUP1 PUSH2 0x256 JUMP JUMPDEST PUSH1 0x6 PUSH1 0x0 SWAP1 DUP2 MSTORE DUP3 DUP2 KECCAK256 SWAP4 POP PUSH1 0x1F NOT DUP6 AND SWAP1 JUMPDEST DUP2 DUP2 LT PUSH2 0x39E JUMPI POP SWAP1 DUP5 PUSH1 0x1 SWAP6 SWAP5 SWAP4 SWAP3 LT PUSH2 0x385 JUMPI JUMPDEST POP POP POP DUP2 SHL ADD PUSH1 0x6 SSTORE PUSH2 0x26C JUMP JUMPDEST ADD MLOAD PUSH1 0x0 NOT PUSH1 0xF8 DUP5 PUSH1 0x3 SHL AND SHR NOT AND SWAP1 SSTORE CODESIZE DUP1 DUP1 PUSH2 0x377 JUMP JUMPDEST SWAP3 SWAP4 PUSH1 0x20 PUSH1 0x1 DUP2 SWAP3 DUP8 DUP7 ADD MLOAD DUP2 SSTORE ADD SWAP6 ADD SWAP4 ADD PUSH2 0x361 JUMP JUMPDEST PUSH1 0x6 PUSH1 0x0 MSTORE SWAP1 SWAP2 POP PUSH32 0xF652222313E28459528D920B65115C16C04F3EFC82AAEDC97BE59F3F377C0D3F PUSH1 0x1F DUP5 ADD PUSH1 0x5 SHR DUP2 ADD SWAP2 PUSH1 0x20 DUP6 LT PUSH2 0x41C JUMPI JUMPDEST SWAP1 PUSH1 0x1F DUP6 SWAP5 SWAP4 SWAP3 ADD PUSH1 0x5 SHR ADD SWAP1 JUMPDEST DUP2 DUP2 LT PUSH2 0x40D JUMPI POP PUSH2 0x23F JUMP JUMPDEST PUSH1 0x0 DUP2 SSTORE DUP5 SWAP4 POP PUSH1 0x1 ADD PUSH2 0x400 JUMP JUMPDEST SWAP1 SWAP2 POP DUP2 SWAP1 PUSH2 0x3F2 JUMP JUMPDEST PUSH4 0x4E487B71 PUSH1 0xE0 SHL PUSH1 0x0 MSTORE PUSH1 0x22 PUSH1 0x4 MSTORE PUSH1 0x24 PUSH1 0x0 REVERT JUMPDEST SWAP2 PUSH1 0x7F AND SWAP2 PUSH2 0x22B JUMP JUMPDEST PUSH4 0x4E487B71 PUSH1 0xE0 SHL PUSH1 0x0 MSTORE PUSH1 0x41 PUSH1 0x4 MSTORE PUSH1 0x24 PUSH1 0x0 REVERT JUMPDEST ADD MLOAD SWAP1 POP CODESIZE DUP1 PUSH2 0x1F2 JUMP JUMPDEST PUSH1 0x5 PUSH1 0x0 SWAP1 DUP2 MSTORE DUP3 DUP2 KECCAK256 SWAP4 POP PUSH1 0x1F NOT DUP6 AND SWAP1 JUMPDEST DUP2 DUP2 LT PUSH2 0x4B7 JUMPI POP SWAP1 DUP5 PUSH1 0x1 SWAP6 SWAP5 SWAP4 SWAP3 LT PUSH2 0x49E JUMPI JUMPDEST POP POP POP DUP2 SHL ADD PUSH1 0x5 SSTORE PUSH2 0x208 JUMP JUMPDEST ADD MLOAD PUSH1 0x0 NOT PUSH1 0xF8 DUP5 PUSH1 0x3 SHL AND SHR NOT AND SWAP1 SSTORE CODESIZE DUP1 DUP1 PUSH2 0x490 JUMP JUMPDEST SWAP3 SWAP4 PUSH1 0x20 PUSH1 0x1 DUP2 SWAP3 DUP8 DUP7 ADD MLOAD DUP2 SSTORE ADD SWAP6 ADD SWAP4 ADD PUSH2 0x47A JUMP JUMPDEST SWAP1 SWAP2 POP PUSH1 0x5 PUSH1 0x0 MSTORE PUSH1 0x20 PUSH1 0x0 KECCAK256 PUSH1 0x1F DUP5 ADD PUSH1 0x5 SHR DUP2 ADD SWAP2 PUSH1 0x20 DUP6 LT PUSH2 0x519 JUMPI JUMPDEST SWAP1 PUSH1 0x1F DUP6 SWAP5 SWAP4 SWAP3 ADD PUSH1 0x5 SHR ADD SWAP1 JUMPDEST DUP2 DUP2 LT PUSH2 0x50A JUMPI POP PUSH2 0x1DB JUMP JUMPDEST PUSH1 0x0 DUP2 SSTORE DUP5 SWAP4 POP PUSH1 0x1 ADD PUSH2 0x4FD JUMP JUMPDEST SWAP1 SWAP2 POP DUP2 SWAP1 PUSH2 0x4EF JUMP JUMPDEST SWAP2 PUSH1 0x7F AND SWAP2 PUSH2 0x1C7 JUMP JUMPDEST ADD MLOAD SWAP1 POP CODESIZE DUP1 PUSH2 0x18E JUMP JUMPDEST PUSH1 0x4 PUSH1 0x0 SWAP1 DUP2 MSTORE DUP3 DUP2 KECCAK256 SWAP4 POP PUSH1 0x1F NOT DUP6 AND SWAP1 JUMPDEST DUP2 DUP2 LT PUSH2 0x588 JUMPI POP SWAP1 DUP5 PUSH1 0x1 SWAP6 SWAP5 SWAP4 SWAP3 LT PUSH2 0x56F JUMPI JUMPDEST POP POP POP DUP2 SHL ADD PUSH1 0x4 SSTORE PUSH2 0x1A4 JUMP JUMPDEST ADD MLOAD PUSH1 0x0 NOT PUSH1 0xF8 DUP5 PUSH1 0x3 SHL AND SHR NOT AND SWAP1 SSTORE CODESIZE DUP1 DUP1 PUSH2 0x561 JUMP JUMPDEST SWAP3 SWAP4 PUSH1 0x20 PUSH1 0x1 DUP2 SWAP3 DUP8 DUP7 ADD MLOAD DUP2 SSTORE ADD SWAP6 ADD SWAP4 ADD PUSH2 0x54B JUMP JUMPDEST PUSH1 0x4 PUSH1 0x0 MSTORE SWAP1 SWAP2 POP PUSH32 0x8A35ACFBC15FF81A39AE7D344FD709F28E8600B4AA8C65C6B64BFE7FE36BD19B PUSH1 0x1F DUP5 ADD PUSH1 0x5 SHR DUP2 ADD SWAP2 PUSH1 0x20 DUP6 LT PUSH2 0x606 JUMPI JUMPDEST SWAP1 PUSH1 0x1F DUP6 SWAP5 SWAP4 SWAP3 ADD PUSH1 0x5 SHR ADD SWAP1 JUMPDEST DUP2 DUP2 LT PUSH2 0x5F7 JUMPI POP PUSH2 0x177 JUMP JUMPDEST PUSH1 0x0 DUP2 SSTORE DUP5 SWAP4 POP PUSH1 0x1 ADD PUSH2 0x5EA JUMP JUMPDEST SWAP1 SWAP2 POP DUP2 SWAP1 PUSH2 0x5DC JUMP JUMPDEST SWAP2 PUSH1 0x7F AND SWAP2 PUSH2 0x163 JUMP JUMPDEST ADD MLOAD SWAP1 POP CODESIZE DUP1 PUSH2 0x12A JUMP JUMPDEST PUSH1 0x3 PUSH1 0x0 SWAP1 DUP2 MSTORE DUP3 DUP2 KECCAK256 SWAP4 POP PUSH1 0x1F NOT DUP6 AND SWAP1 JUMPDEST DUP2 DUP2 LT PUSH2 0x675 JUMPI POP SWAP1 DUP5 PUSH1 0x1 SWAP6 SWAP5 SWAP4 SWAP3 LT PUSH2 0x65C JUMPI JUMPDEST POP POP POP DUP2 SHL ADD PUSH1 0x3 SSTORE PUSH2 0x140 JUMP JUMPDEST ADD MLOAD PUSH1 0x0 NOT PUSH1 0xF8 DUP5 PUSH1 0x3 SHL AND SHR NOT AND SWAP1 SSTORE CODESIZE DUP1 DUP1 PUSH2 0x64E JUMP JUMPDEST SWAP3 SWAP4 PUSH1 0x20 PUSH1 0x1 DUP2 SWAP3 DUP8 DUP7 ADD MLOAD DUP2 SSTORE ADD SWAP6 ADD SWAP4 ADD PUSH2 0x638 JUMP JUMPDEST PUSH1 0x3 PUSH1 0x0 MSTORE SWAP1 SWAP2 POP PUSH32 0xC2575A0E9E593C00F959F8C92F12DB2869C3395A3B0502D05E2516446F71F85B PUSH1 0x1F DUP5 ADD PUSH1 0x5 SHR DUP2 ADD SWAP2 PUSH1 0x20 DUP6 LT PUSH2 0x6F3 JUMPI JUMPDEST SWAP1 PUSH1 0x1F DUP6 SWAP5 SWAP4 SWAP3 ADD PUSH1 0x5 SHR ADD SWAP1 JUMPDEST DUP2 DUP2 LT PUSH2 0x6E4 JUMPI POP PUSH2 0x113 JUMP JUMPDEST PUSH1 0x0 DUP2 SSTORE DUP5 SWAP4 POP PUSH1 0x1 ADD PUSH2 0x6D7 JUMP JUMPDEST SWAP1 SWAP2 POP DUP2 SWAP1 PUSH2 0x6C9 JUMP JUMPDEST SWAP2 PUSH1 0x7F AND SWAP2 PUSH2 0xFF JUMP JUMPDEST PUSH1 0x0 DUP1 REVERT JUMPDEST PUSH1 0x40 MLOAD SWAP2 SWAP1 PUSH1 0x1F ADD PUSH1 0x1F NOT AND DUP3 ADD PUSH1 0x1 PUSH1 0x1 PUSH1 0x40 SHL SUB DUP2 GT DUP4 DUP3 LT OR PUSH2 0x446 JUMPI PUSH1 0x40 MSTORE JUMP JUMPDEST DUP2 PUSH1 0x1F DUP3 ADD SLT ISZERO PUSH2 0x707 JUMPI DUP1 MLOAD SWAP1 PUSH1 0x1 PUSH1 0x1 PUSH1 0x40 SHL SUB DUP3 GT PUSH2 0x446 JUMPI PUSH2 0x760 PUSH1 0x1F DUP4 ADD PUSH1 0x1F NOT AND PUSH1 0x20 ADD PUSH2 0x70C JUMP JUMPDEST SWAP3 DUP3 DUP5 MSTORE PUSH1 0x20 DUP4 DUP4 ADD ADD GT PUSH2 0x707 JUMPI PUSH1 0x0 JUMPDEST DUP3 DUP2 LT PUSH2 0x787 JUMPI POP POP PUSH1 0x20 PUSH1 0x0 SWAP2 DUP4 ADD ADD MSTORE SWAP1 JUMP JUMPDEST DUP1 PUSH1 0x20 DUP1 SWAP3 DUP5 ADD ADD MLOAD DUP3 DUP3 DUP8 ADD ADD MSTORE ADD PUSH2 0x772 JUMP JUMPDEST MLOAD SWAP1 PUSH1 0x1 PUSH1 0x1 PUSH1 0xA0 SHL SUB DUP3 AND DUP3 SUB PUSH2 0x707 JUMPI JUMP INVALID PUSH1 0x80 DUP1 PUSH1 0x40 MSTORE PUSH1 0x4 CALLDATASIZE LT ISZERO PUSH2 0x13 JUMPI PUSH1 0x0 DUP1 REVERT JUMPDEST PUSH1 0x0 CALLDATALOAD PUSH1 0xE0 SHR SWAP1 DUP2 PUSH4 0x2D05D3F EQ PUSH2 0x754 JUMPI POP DUP1 PUSH4 0x6FDDE03 EQ PUSH2 0x67C JUMPI DUP1 PUSH4 0x95EA7B3 EQ PUSH2 0x5F6 JUMPI DUP1 PUSH4 0xB97BC86 EQ PUSH2 0x5D8 JUMPI DUP1 PUSH4 0x18160DDD EQ PUSH2 0x5BA JUMPI DUP1 PUSH4 0x23B872DD EQ PUSH2 0x4CD JUMPI DUP1 PUSH4 0x313CE567 EQ PUSH2 0x4B1 JUMPI DUP1 PUSH4 0x70A08231 EQ PUSH2 0x477 JUMPI DUP1 PUSH4 0x755F047B EQ PUSH2 0x39F JUMPI DUP1 PUSH4 0x7FF9B596 EQ PUSH2 0x364 JUMPI DUP1 PUSH4 0x95D89B41 EQ PUSH2 0x28C JUMPI DUP1 PUSH4 0x9A33E300 EQ PUSH2 0x169 JUMPI DUP1 PUSH4 0xA9059CBB EQ PUSH2 0x138 JUMPI DUP1 PUSH4 0xC24A0F8B EQ PUSH2 0x11A JUMPI PUSH4 0xDD62ED3E EQ PUSH2 0xC4 JUMPI PUSH1 0x0 DUP1 REVERT JUMPDEST CALLVALUE PUSH2 0x115 JUMPI PUSH1 0x40 CALLDATASIZE PUSH1 0x3 NOT ADD SLT PUSH2 0x115 JUMPI PUSH2 0xDD PUSH2 0x7DF JUMP JUMPDEST PUSH2 0xE5 PUSH2 0x7F5 JUMP JUMPDEST PUSH1 0x1 PUSH1 0x1 PUSH1 0xA0 SHL SUB SWAP2 DUP3 AND PUSH1 0x0 SWAP1 DUP2 MSTORE PUSH1 0x1 PUSH1 0x20 SWAP1 DUP2 MSTORE PUSH1 0x40 DUP1 DUP4 KECCAK256 SWAP5 SWAP1 SWAP4 AND DUP3 MSTORE SWAP3 DUP4 MSTORE DUP2 SWAP1 KECCAK256 SLOAD SWAP1 MLOAD SWAP1 DUP2 MSTORE RETURN JUMPDEST PUSH1 0x0 DUP1 REVERT JUMPDEST CALLVALUE PUSH2 0x115 JUMPI PUSH1 0x0 CALLDATASIZE PUSH1 0x3 NOT ADD SLT PUSH2 0x115 JUMPI PUSH1 0x20 PUSH1 0x8 SLOAD PUSH1 0x40 MLOAD SWAP1 DUP2 MSTORE RETURN JUMPDEST CALLVALUE PUSH2 0x115 JUMPI PUSH1 0x40 CALLDATASIZE PUSH1 0x3 NOT ADD SLT PUSH2 0x115 JUMPI PUSH2 0x15E PUSH2 0x154 PUSH2 0x7DF JUMP JUMPDEST PUSH1 0x24 CALLDATALOAD SWAP1 CALLER PUSH2 0x80B JUMP JUMPDEST PUSH1 0x20 PUSH1 0x40 MLOAD PUSH1 0x1 DUP2 MSTORE RETURN JUMPDEST CALLVALUE PUSH2 0x115 JUMPI PUSH1 0x0 CALLDATASIZE PUSH1 0x3 NOT ADD SLT PUSH2 0x115 JUMPI PUSH1 0x40 MLOAD PUSH1 0x0 PUSH1 0x5 SLOAD DUP1 PUSH1 0x1 SHR SWAP1 PUSH1 0x1 DUP2 AND DUP1 ISZERO PUSH2 0x282 JUMPI JUMPDEST PUSH1 0x20 DUP4 LT DUP2 EQ PUSH2 0x26E JUMPI DUP3 DUP6 MSTORE SWAP1 DUP2 ISZERO PUSH2 0x252 JUMPI POP PUSH1 0x1 EQ PUSH2 0x1FB JUMPI JUMPDEST POP DUP2 SWAP1 SUB PUSH1 0x1F ADD PUSH1 0x1F NOT AND DUP2 ADD SWAP1 PUSH8 0xFFFFFFFFFFFFFFFF DUP3 GT DUP2 DUP4 LT OR PUSH2 0x1E5 JUMPI PUSH1 0x40 DUP3 SWAP1 MSTORE DUP2 SWAP1 PUSH2 0x1E1 SWAP1 DUP3 PUSH2 0x796 JUMP JUMPDEST SUB SWAP1 RETURN JUMPDEST PUSH4 0x4E487B71 PUSH1 0xE0 SHL PUSH1 0x0 MSTORE PUSH1 0x41 PUSH1 0x4 MSTORE PUSH1 0x24 PUSH1 0x0 REVERT JUMPDEST PUSH1 0x5 PUSH1 0x0 SWAP1 DUP2 MSTORE SWAP1 SWAP2 POP PUSH32 0x36B6384B5ECA791C62761152D0C79BB0604C104A5FB6F4EB0703F3154BB3DB0 JUMPDEST DUP3 DUP3 LT PUSH2 0x23C JUMPI POP PUSH1 0x20 SWAP2 POP DUP3 ADD ADD DUP3 PUSH2 0x1AF JUMP JUMPDEST PUSH1 0x1 DUP2 PUSH1 0x20 SWAP3 SLOAD DUP4 DUP6 DUP9 ADD ADD MSTORE ADD SWAP2 ADD SWAP1 PUSH2 0x227 JUMP JUMPDEST SWAP1 POP PUSH1 0x20 SWAP3 POP PUSH1 0xFF NOT AND DUP3 DUP5 ADD MSTORE ISZERO ISZERO PUSH1 0x5 SHL DUP3 ADD ADD DUP3 PUSH2 0x1AF JUMP JUMPDEST PUSH4 0x4E487B71 PUSH1 0xE0 SHL DUP5 MSTORE PUSH1 0x22 PUSH1 0x4 MSTORE PUSH1 0x24 DUP5 REVERT JUMPDEST SWAP2 PUSH1 0x7F AND SWAP2 PUSH2 0x192 JUMP JUMPDEST CALLVALUE PUSH2 0x115 JUMPI PUSH1 0x0 CALLDATASIZE PUSH1 0x3 NOT ADD SLT PUSH2 0x115 JUMPI PUSH1 0x40 MLOAD PUSH1 0x0 PUSH1 0x4 SLOAD DUP1 PUSH1 0x1 SHR SWAP1 PUSH1 0x1 DUP2 AND DUP1 ISZERO PUSH2 0x35A JUMPI JUMPDEST PUSH1 0x20 DUP4 LT DUP2 EQ PUSH2 0x26E JUMPI DUP3 DUP6 MSTORE SWAP1 DUP2 ISZERO PUSH2 0x252 JUMPI POP PUSH1 0x1 EQ PUSH2 0x303 JUMPI POP DUP2 SWAP1 SUB PUSH1 0x1F ADD PUSH1 0x1F NOT AND DUP2 ADD SWAP1 PUSH8 0xFFFFFFFFFFFFFFFF DUP3 GT DUP2 DUP4 LT OR PUSH2 0x1E5 JUMPI PUSH1 0x40 DUP3 SWAP1 MSTORE DUP2 SWAP1 PUSH2 0x1E1 SWAP1 DUP3 PUSH2 0x796 JUMP JUMPDEST PUSH1 0x4 PUSH1 0x0 SWAP1 DUP2 MSTORE SWAP1 SWAP2 POP PUSH32 0x8A35ACFBC15FF81A39AE7D344FD709F28E8600B4AA8C65C6B64BFE7FE36BD19B JUMPDEST DUP3 DUP3 LT PUSH2 0x344 JUMPI POP PUSH1 0x20 SWAP2 POP DUP3 ADD ADD DUP3 PUSH2 0x1AF JUMP JUMPDEST PUSH1 0x1 DUP2 PUSH1 0x20 SWAP3 SLOAD DUP4 DUP6 DUP9 ADD ADD MSTORE ADD SWAP2 ADD SWAP1 PUSH2 0x32F JUMP JUMPDEST SWAP2 PUSH1 0x7F AND SWAP2 PUSH2 0x2B5 JUMP JUMPDEST CALLVALUE PUSH2 0x115 JUMPI PUSH1 0x0 CALLDATASIZE PUSH1 0x3 NOT ADD SLT PUSH2 0x115 JUMPI PUSH1 0x20 PUSH1 0x40 MLOAD PUSH32 0x0 DUP2 MSTORE RETURN JUMPDEST CALLVALUE PUSH2 0x115 JUMPI PUSH1 0x0 CALLDATASIZE PUSH1 0x3 NOT ADD SLT PUSH2 0x115 JUMPI PUSH1 0x40 MLOAD PUSH1 0x0 PUSH1 0x6 SLOAD DUP1 PUSH1 0x1 SHR SWAP1 PUSH1 0x1 DUP2 AND DUP1 ISZERO PUSH2 0x46D JUMPI JUMPDEST PUSH1 0x20 DUP4 LT DUP2 EQ PUSH2 0x26E JUMPI DUP3 DUP6 MSTORE SWAP1 DUP2 ISZERO PUSH2 0x252 JUMPI POP PUSH1 0x1 EQ PUSH2 0x416 JUMPI POP DUP2 SWAP1 SUB PUSH1 0x1F ADD PUSH1 0x1F NOT AND DUP2 ADD SWAP1 PUSH8 0xFFFFFFFFFFFFFFFF DUP3 GT DUP2 DUP4 LT OR PUSH2 0x1E5 JUMPI PUSH1 0x40 DUP3 SWAP1 MSTORE DUP2 SWAP1 PUSH2 0x1E1 SWAP1 DUP3 PUSH2 0x796 JUMP JUMPDEST PUSH1 0x6 PUSH1 0x0 SWAP1 DUP2 MSTORE SWAP1 SWAP2 POP PUSH32 0xF652222313E28459528D920B65115C16C04F3EFC82AAEDC97BE59F3F377C0D3F JUMPDEST DUP3 DUP3 LT PUSH2 0x457 JUMPI POP PUSH1 0x20 SWAP2 POP DUP3 ADD ADD DUP3 PUSH2 0x1AF JUMP JUMPDEST PUSH1 0x1 DUP2 PUSH1 0x20 SWAP3 SLOAD DUP4 DUP6 DUP9 ADD ADD MSTORE ADD SWAP2 ADD SWAP1 PUSH2 0x442 JUMP JUMPDEST SWAP2 PUSH1 0x7F AND SWAP2 PUSH2 0x3C8 JUMP JUMPDEST CALLVALUE PUSH2 0x115 JUMPI PUSH1 0x20 CALLDATASIZE PUSH1 0x3 NOT ADD SLT PUSH2 0x115 JUMPI PUSH1 0x1 PUSH1 0x1 PUSH1 0xA0 SHL SUB PUSH2 0x498 PUSH2 0x7DF JUMP JUMPDEST AND PUSH1 0x0 MSTORE PUSH1 0x0 PUSH1 0x20 MSTORE PUSH1 0x20 PUSH1 0x40 PUSH1 0x0 KECCAK256 SLOAD PUSH1 0x40 MLOAD SWAP1 DUP2 MSTORE RETURN JUMPDEST CALLVALUE PUSH2 0x115 JUMPI PUSH1 0x0 CALLDATASIZE PUSH1 0x3 NOT ADD SLT PUSH2 0x115 JUMPI PUSH1 0x20 PUSH1 0x40 MLOAD PUSH1 0x12 DUP2 MSTORE RETURN JUMPDEST CALLVALUE PUSH2 0x115 JUMPI PUSH1 0x60 CALLDATASIZE PUSH1 0x3 NOT ADD SLT PUSH2 0x115 JUMPI PUSH2 0x4E6 PUSH2 0x7DF JUMP JUMPDEST PUSH2 0x4EE PUSH2 0x7F5 JUMP JUMPDEST PUSH1 0x1 PUSH1 0x1 PUSH1 0xA0 SHL SUB DUP3 AND PUSH1 0x0 DUP2 DUP2 MSTORE PUSH1 0x1 PUSH1 0x20 DUP2 DUP2 MSTORE PUSH1 0x40 DUP1 DUP5 KECCAK256 CALLER DUP6 MSTORE SWAP1 SWAP2 MSTORE SWAP1 SWAP2 KECCAK256 SLOAD SWAP2 SWAP4 PUSH1 0x44 CALLDATALOAD SWAP4 SWAP3 SWAP1 SWAP2 DUP2 ADD PUSH2 0x52E JUMPI JUMPDEST POP PUSH2 0x15E SWAP4 POP PUSH2 0x80B JUMP JUMPDEST DUP4 DUP2 LT PUSH2 0x59D JUMPI DUP5 ISZERO PUSH2 0x587 JUMPI CALLER ISZERO PUSH2 0x571 JUMPI PUSH2 0x15E SWAP5 PUSH1 0x0 MSTORE PUSH1 0x1 PUSH1 0x20 MSTORE PUSH1 0x40 PUSH1 0x0 KECCAK256 PUSH1 0x1 DUP1 PUSH1 0xA0 SHL SUB CALLER AND PUSH1 0x0 MSTORE PUSH1 0x20 MSTORE DUP4 PUSH1 0x40 PUSH1 0x0 KECCAK256 SWAP2 SUB SWAP1 SSTORE DUP5 PUSH2 0x523 JUMP JUMPDEST PUSH4 0x4A1406B1 PUSH1 0xE1 SHL PUSH1 0x0 MSTORE PUSH1 0x0 PUSH1 0x4 MSTORE PUSH1 0x24 PUSH1 0x0 REVERT JUMPDEST PUSH4 0xE602DF05 PUSH1 0xE0 SHL PUSH1 0x0 MSTORE PUSH1 0x0 PUSH1 0x4 MSTORE PUSH1 0x24 PUSH1 0x0 REVERT JUMPDEST DUP4 SWAP1 PUSH4 0x7DC7A0D9 PUSH1 0xE1 SHL PUSH1 0x0 MSTORE CALLER PUSH1 0x4 MSTORE PUSH1 0x24 MSTORE PUSH1 0x44 MSTORE PUSH1 0x64 PUSH1 0x0 REVERT JUMPDEST CALLVALUE PUSH2 0x115 JUMPI PUSH1 0x0 CALLDATASIZE PUSH1 0x3 NOT ADD SLT PUSH2 0x115 JUMPI PUSH1 0x20 PUSH1 0x2 SLOAD PUSH1 0x40 MLOAD SWAP1 DUP2 MSTORE RETURN JUMPDEST CALLVALUE PUSH2 0x115 JUMPI PUSH1 0x0 CALLDATASIZE PUSH1 0x3 NOT ADD SLT PUSH2 0x115 JUMPI PUSH1 0x20 PUSH1 0x7 SLOAD PUSH1 0x40 MLOAD SWAP1 DUP2 MSTORE RETURN JUMPDEST CALLVALUE PUSH2 0x115 JUMPI PUSH1 0x40 CALLDATASIZE PUSH1 0x3 NOT ADD SLT PUSH2 0x115 JUMPI PUSH2 0x60F PUSH2 0x7DF JUMP JUMPDEST PUSH1 0x24 CALLDATALOAD SWAP1 CALLER ISZERO PUSH2 0x587 JUMPI PUSH1 0x1 PUSH1 0x1 PUSH1 0xA0 SHL SUB AND SWAP1 DUP2 ISZERO PUSH2 0x571 JUMPI CALLER PUSH1 0x0 MSTORE PUSH1 0x1 PUSH1 0x20 MSTORE PUSH1 0x40 PUSH1 0x0 KECCAK256 DUP3 PUSH1 0x0 MSTORE PUSH1 0x20 MSTORE DUP1 PUSH1 0x40 PUSH1 0x0 KECCAK256 SSTORE PUSH1 0x40 MLOAD SWAP1 DUP2 MSTORE PUSH32 0x8C5BE1E5EBEC7D5BD14F71427D1E84F3DD0314C0F7B2291E5B200AC8C7C3B925 PUSH1 0x20 CALLER SWAP3 LOG3 PUSH1 0x20 PUSH1 0x40 MLOAD PUSH1 0x1 DUP2 MSTORE RETURN JUMPDEST CALLVALUE PUSH2 0x115 JUMPI PUSH1 0x0 CALLDATASIZE PUSH1 0x3 NOT ADD SLT PUSH2 0x115 JUMPI PUSH1 0x40 MLOAD PUSH1 0x0 PUSH1 0x3 SLOAD DUP1 PUSH1 0x1 SHR SWAP1 PUSH1 0x1 DUP2 AND DUP1 ISZERO PUSH2 0x74A JUMPI JUMPDEST PUSH1 0x20 DUP4 LT DUP2 EQ PUSH2 0x26E JUMPI DUP3 DUP6 MSTORE SWAP1 DUP2 ISZERO PUSH2 0x252 JUMPI POP PUSH1 0x1 EQ PUSH2 0x6F3 JUMPI POP DUP2 SWAP1 SUB PUSH1 0x1F ADD PUSH1 0x1F NOT AND DUP2 ADD SWAP1 PUSH8 0xFFFFFFFFFFFFFFFF DUP3 GT DUP2 DUP4 LT OR PUSH2 0x1E5 JUMPI PUSH1 0x40 DUP3 SWAP1 MSTORE DUP2 SWAP1 PUSH2 0x1E1 SWAP1 DUP3 PUSH2 0x796 JUMP JUMPDEST PUSH1 0x3 PUSH1 0x0 SWAP1 DUP2 MSTORE SWAP1 SWAP2 POP PUSH32 0xC2575A0E9E593C00F959F8C92F12DB2869C3395A3B0502D05E2516446F71F85B JUMPDEST DUP3 DUP3 LT PUSH2 0x734 JUMPI POP PUSH1 0x20 SWAP2 POP DUP3 ADD ADD DUP3 PUSH2 0x1AF JUMP JUMPDEST PUSH1 0x1 DUP2 PUSH1 0x20 SWAP3 SLOAD DUP4 DUP6 DUP9 ADD ADD MSTORE ADD SWAP2 ADD SWAP1 PUSH2 0x71F JUMP JUMPDEST SWAP2 PUSH1 0x7F AND SWAP2 PUSH2 0x6A5 JUMP JUMPDEST CALLVALUE PUSH2 0x115 JUMPI PUSH1 0x0 CALLDATASIZE PUSH1 0x3 NOT ADD SLT PUSH2 0x115 JUMPI PUSH32 0x0 PUSH1 0x1 PUSH1 0x1 PUSH1 0xA0 SHL SUB AND DUP2 MSTORE PUSH1 0x20 SWAP1 RETURN JUMPDEST SWAP2 SWAP1 SWAP2 PUSH1 0x20 DUP2 MSTORE DUP3 MLOAD DUP1 PUSH1 0x20 DUP4 ADD MSTORE PUSH1 0x0 JUMPDEST DUP2 DUP2 LT PUSH2 0x7C9 JUMPI POP PUSH1 0x40 SWAP3 SWAP4 POP PUSH1 0x0 DUP4 DUP3 DUP5 ADD ADD MSTORE PUSH1 0x1F DUP1 NOT SWAP2 ADD AND ADD ADD SWAP1 JUMP JUMPDEST DUP1 PUSH1 0x20 DUP1 SWAP3 DUP8 ADD ADD MLOAD PUSH1 0x40 DUP3 DUP7 ADD ADD MSTORE ADD PUSH2 0x7A8 JUMP JUMPDEST PUSH1 0x4 CALLDATALOAD SWAP1 PUSH1 0x1 PUSH1 0x1 PUSH1 0xA0 SHL SUB DUP3 AND DUP3 SUB PUSH2 0x115 JUMPI JUMP JUMPDEST PUSH1 0x24 CALLDATALOAD SWAP1 PUSH1 0x1 PUSH1 0x1 PUSH1 0xA0 SHL SUB DUP3 AND DUP3 SUB PUSH2 0x115 JUMPI JUMP JUMPDEST PUSH1 0x1 PUSH1 0x1 PUSH1 0xA0 SHL SUB AND SWAP1 DUP2 ISZERO PUSH2 0x8BA JUMPI PUSH1 0x1 PUSH1 0x1 PUSH1 0xA0 SHL SUB AND SWAP2 DUP3 ISZERO PUSH2 0x8A4 JUMPI PUSH1 0x0 DUP3 DUP2 MSTORE DUP1 PUSH1 0x20 MSTORE PUSH1 0x40 DUP2 KECCAK256 SLOAD DUP3 DUP2 LT PUSH2 0x88A JUMPI SWAP2 PUSH1 0x40 DUP3 DUP3 PUSH32 0xDDF252AD1BE2C89B69C2B068FC378DAA952BA7F163C4A11628F55A4DF523B3EF SWAP6 DUP8 PUSH1 0x20 SWAP7 MSTORE DUP3 DUP7 MSTORE SUB DUP3 DUP3 KECCAK256 SSTORE DUP7 DUP2 MSTORE DUP1 DUP5 MSTORE KECCAK256 DUP2 DUP2 SLOAD ADD SWAP1 SSTORE PUSH1 0x40 MLOAD SWAP1 DUP2 MSTORE LOG3 JUMP JUMPDEST SWAP2 PUSH1 0x64 SWAP3 DUP5 PUSH4 0x391434E3 PUSH1 0xE2 SHL DUP5 MSTORE PUSH1 0x4 MSTORE PUSH1 0x24 MSTORE PUSH1 0x44 MSTORE REVERT JUMPDEST PUSH4 0xEC442F05 PUSH1 0xE0 SHL PUSH1 0x0 MSTORE PUSH1 0x0 PUSH1 0x4 MSTORE PUSH1 0x24 PUSH1 0x0 REVERT JUMPDEST PUSH4 0x4B637E8F PUSH1 0xE1 SHL PUSH1 0x0 MSTORE PUSH1 0x0 PUSH1 0x4 MSTORE PUSH1 0x24 PUSH1 0x0 REVERT INVALID LOG2 PUSH5 0x6970667358 0x22 SLT KECCAK256 0xFC 0xCE MULMOD PUSH19 0xB23325BED0CF1B915CB28923B05E52294DB7F 0xC5 SMOD KECCAK256 0xB0 LOG1 0x29 0xEC CODECOPY 0xB9 PUSH5 0x736F6C6343 STOP ADDMOD SHR STOP CALLER LOG2 PUSH5 0x6970667358 0x22 SLT KECCAK256 0xC3 DUP4 PUSH19 0x538F0031DD84BD2C737782F33EABA194C98DF9 PUSH8 0x30C1781338AA11BE 0x2C PUSH5 0x736F6C6343 STOP ADDMOD SHR STOP CALLER "
        },
        "methodIdentifiers": {
          "buyTokens(uint256)": "3610724e",
          "calculateTokenAmount(uint256,uint256)": "03553835",
          "creatorToProjectIds(address,uint256)": "0c71e114",
          "getAllProjects()": "80d03829",
          "getProjectDetails(uint256)": "5f8439e3",
          "getProjectWithUserInfo(uint256,address)": "a13cf6a8",
          "getTargetRaise(uint256)": "8551b2f8",
          "launchToken(string,string,uint256,string,string,uint256,uint256,uint256)": "61476c95",
          "projects(uint256)": "107046bd",
          "purchases(uint256,address,uint256)": "823c9cd9",
          "refundTokens(uint256)": "5dfee9bb",
          "totalRaised(uint256)": "3922e819",
          "withdrawFunds(uint256)": "155dd5ee"
        }
      }
    }
  }
}