{
  "_format": "hh-sol-artifact-1",
  "contractName": "Counter",
  "sourceName": "contracts/Counter.sol",
  "abi": [
    {
      "anonymous": false,
      "inputs": [
        {
          "indexed": false,
          "internalType": "int256",
          "name": "newCount",
          "type": "int256"
        },
        {
          "indexed": false,
          "internalType": "address",
          "name": "triggeredBy",
          "type": "address"
        }
      ],
      "name": "CounterChanged",
      "type": "event"
    },
    {
      "inputs": [],
      "name": "count",
      "outputs": [
        {
          "internalType": "int256",
          "name": "",
          "type": "int256"
        }
      ],
      "stateMutability": "view",
      "type": "function"
    },
    {
      "inputs": [],
      "name": "decrement",
      "outputs": [],
      "stateMutability": "nonpayable",
      "type": "function"
    },
    {
      "inputs": [],
      "name": "increment",
      "outputs": [],
      "stateMutability": "nonpayable",
      "type": "function"
    },
    {
      "inputs": [],
      "name": "reset",
      "outputs": [],
      "stateMutability": "nonpayable",
      "type": "function"
    },
    {
      "inputs": [
        {
          "internalType": "int256",
          "name": "newCount",
          "type": "int256"
        }
      ],
      "name": "setCount",
      "outputs": [],
      "stateMutability": "nonpayable",
      "type": "function"
    }
  ],
  "bytecode": "0x608060405260008055348015601357600080fd5b506103d7806100236000396000f3fe608060405234801561001057600080fd5b50600436106100575760003560e01c806306661abd1461005c5780632baeceb71461007a578063d09de08a14610084578063d826f88f1461008e578063fc583c8d14610098575b600080fd5b6100646100b4565b6040516100719190610208565b60405180910390f35b6100826100ba565b005b61008c610110565b005b610096610166565b005b6100b260048036038101906100ad9190610254565b6101aa565b005b60005481565b60016000808282546100cc91906102b0565b925050819055507f2371416f596f7d178bec752835988464a33cfb2abf3864a94aa9b3a0ad6099e960005433604051610106929190610334565b60405180910390a1565b6001600080828254610122919061035d565b925050819055507f2371416f596f7d178bec752835988464a33cfb2abf3864a94aa9b3a0ad6099e96000543360405161015c929190610334565b60405180910390a1565b600080819055507f2371416f596f7d178bec752835988464a33cfb2abf3864a94aa9b3a0ad6099e9600054336040516101a0929190610334565b60405180910390a1565b806000819055507f2371416f596f7d178bec752835988464a33cfb2abf3864a94aa9b3a0ad6099e9600054336040516101e4929190610334565b60405180910390a150565b6000819050919050565b610202816101ef565b82525050565b600060208201905061021d60008301846101f9565b92915050565b600080fd5b610231816101ef565b811461023c57600080fd5b50565b60008135905061024e81610228565b92915050565b60006020828403121561026a57610269610223565b5b60006102788482850161023f565b91505092915050565b7f4e487b7100000000000000000000000000000000000000000000000000000000600052601160045260246000fd5b60006102bb826101ef565b91506102c6836101ef565b92508282039050818112600084121682821360008512151617156102ed576102ec610281565b5b92915050565b600073ffffffffffffffffffffffffffffffffffffffff82169050919050565b600061031e826102f3565b9050919050565b61032e81610313565b82525050565b600060408201905061034960008301856101f9565b6103566020830184610325565b9392505050565b6000610368826101ef565b9150610373836101ef565b92508282019050828112156000831216838212600084121516171561039b5761039a610281565b5b9291505056fea2646970667358221220619f6d1051681ebc89c991433f49535abb28e9798fc62b4c8f44e8866736227564736f6c634300081c0033",
  "linkReferences": {},
  "deployedLinkReferences": {}
}