{
  "_format": "hh-sol-artifact-1",
  "contractName": "TokenLauncher",
  "sourceName": "contracts/Launch.sol",
  "abi": [
    {
      "inputs": [],
      "name": "ETHRefundFailed",
      "type": "error"
    },
    {
      "inputs": [],
      "name": "EndDateMustBeAfterStart",
      "type": "error"
    },
    {
      "inputs": [],
      "name": "InsufficientLaunchpadTokens",
      "type": "error"
    },
    {
      "inputs": [],
      "name": "InvalidTokenPrice",
      "type": "error"
    },
    {
      "inputs": [],
      "name": "InvalidTotalSupply",
      "type": "error"
    },
    {
      "inputs": [],
      "name": "MinimumDurationNotMet",
      "type": "error"
    },
    {
      "inputs": [],
      "name": "NoFundsToWithdraw",
      "type": "error"
    },
    {
      "inputs": [],
      "name": "NoPayment",
      "type": "error"
    },
    {
      "inputs": [],
      "name": "NoRefundsAvailable",
      "type": "error"
    },
    {
      "inputs": [],
      "name": "NoTokensToRefund",
      "type": "error"
    },
    {
      "inputs": [
        {
          "internalType": "address",
          "name": "caller",
          "type": "address"
        },
        {
          "internalType": "address",
          "name": "creator",
          "type": "address"
        }
      ],
      "name": "NotProjectCreator",
      "type": "error"
    },
    {
      "inputs": [
        {
          "internalType": "uint256",
          "name": "projectId",
          "type": "uint256"
        }
      ],
      "name": "ProjectNotFound",
      "type": "error"
    },
    {
      "inputs": [],
      "name": "ReentrancyGuardReentrantCall",
      "type": "error"
    },
    {
      "inputs": [],
      "name": "RefundTooEarly",
      "type": "error"
    },
    {
      "inputs": [],
      "name": "SaleNotStarted",
      "type": "error"
    },
    {
      "inputs": [],
      "name": "StartDateMustBeFuture",
      "type": "error"
    },
    {
      "inputs": [],
      "name": "TargetRaiseAchieved",
      "type": "error"
    },
    {
      "inputs": [
        {
          "internalType": "uint256",
          "name": "current",
          "type": "uint256"
        },
        {
          "internalType": "uint256",
          "name": "target",
          "type": "uint256"
        }
      ],
      "name": "TargetRaiseNotMet",
      "type": "error"
    },
    {
      "inputs": [],
      "name": "TransferFailed",
      "type": "error"
    },
    {
      "inputs": [
        {
          "internalType": "address",
          "name": "creator",
          "type": "address"
        },
        {
          "internalType": "uint256",
          "name": "amount",
          "type": "uint256"
        }
      ],
      "name": "WithdrawalFailed",
      "type": "error"
    },
    {
      "anonymous": false,
      "inputs": [
        {
          "indexed": false,
          "internalType": "uint256",
          "name": "projectId",
          "type": "uint256"
        },
        {
          "indexed": false,
          "internalType": "address",
          "name": "creator",
          "type": "address"
        },
        {
          "indexed": false,
          "internalType": "uint256",
          "name": "withdrawAmount",
          "type": "uint256"
        },
        {
          "indexed": false,
          "internalType": "uint256",
          "name": "launchpadFee",
          "type": "uint256"
        }
      ],
      "name": "CreatorWithdraw",
      "type": "event"
    },
    {
      "anonymous": false,
      "inputs": [
        {
          "indexed": false,
          "internalType": "address",
          "name": "tokenAddress",
          "type": "address"
        },
        {
          "indexed": false,
          "internalType": "string",
          "name": "name",
          "type": "string"
        },
        {
          "indexed": false,
          "internalType": "string",
          "name": "symbol",
          "type": "string"
        },
        {
          "indexed": false,
          "internalType": "uint256",
          "name": "totalSupply",
          "type": "uint256"
        },
        {
          "indexed": false,
          "internalType": "string",
          "name": "projectName",
          "type": "string"
        },
        {
          "indexed": false,
          "internalType": "string",
          "name": "projectDescription",
          "type": "string"
        },
        {
          "indexed": false,
          "internalType": "uint256",
          "name": "startDate",
          "type": "uint256"
        },
        {
          "indexed": false,
          "internalType": "uint256",
          "name": "endDate",
          "type": "uint256"
        },
        {
          "indexed": false,
          "internalType": "uint256",
          "name": "tokenPrice",
          "type": "uint256"
        },
        {
          "indexed": false,
          "internalType": "address",
          "name": "creator",
          "type": "address"
        },
        {
          "indexed": false,
          "internalType": "uint256",
          "name": "projectId",
          "type": "uint256"
        }
      ],
      "name": "TokenLaunched",
      "type": "event"
    },
    {
      "anonymous": false,
      "inputs": [
        {
          "indexed": false,
          "internalType": "uint256",
          "name": "projectId",
          "type": "uint256"
        },
        {
          "indexed": false,
          "internalType": "address",
          "name": "buyer",
          "type": "address"
        },
        {
          "indexed": false,
          "internalType": "uint256",
          "name": "amount",
          "type": "uint256"
        },
        {
          "indexed": false,
          "internalType": "uint256",
          "name": "cost",
          "type": "uint256"
        },
        {
          "indexed": false,
          "internalType": "uint256",
          "name": "purchaseId",
          "type": "uint256"
        }
      ],
      "name": "TokensPurchased",
      "type": "event"
    },
    {
      "anonymous": false,
      "inputs": [
        {
          "indexed": false,
          "internalType": "uint256",
          "name": "projectId",
          "type": "uint256"
        },
        {
          "indexed": false,
          "internalType": "address",
          "name": "refunder",
          "type": "address"
        },
        {
          "indexed": false,
          "internalType": "uint256",
          "name": "totalRefundAmount",
          "type": "uint256"
        }
      ],
      "name": "TokensRefunded",
      "type": "event"
    },
    {
      "inputs": [
        {
          "internalType": "uint256",
          "name": "projectId",
          "type": "uint256"
        }
      ],
      "name": "buyTokens",
      "outputs": [],
      "stateMutability": "payable",
      "type": "function"
    },
    {
      "inputs": [
        {
          "internalType": "uint256",
          "name": "projectId",
          "type": "uint256"
        },
        {
          "internalType": "uint256",
          "name": "paymentAmount",
          "type": "uint256"
        }
      ],
      "name": "calculateTokenAmount",
      "outputs": [
        {
          "internalType": "uint256",
          "name": "tokenAmount",
          "type": "uint256"
        }
      ],
      "stateMutability": "view",
      "type": "function"
    },
    {
      "inputs": [
        {
          "internalType": "address",
          "name": "",
          "type": "address"
        },
        {
          "internalType": "uint256",
          "name": "",
          "type": "uint256"
        }
      ],
      "name": "creatorToProjectIds",
      "outputs": [
        {
          "internalType": "uint256",
          "name": "",
          "type": "uint256"
        }
      ],
      "stateMutability": "view",
      "type": "function"
    },
    {
      "inputs": [],
      "name": "getAllProjects",
      "outputs": [
        {
          "components": [
            {
              "internalType": "uint256",
              "name": "projectId",
              "type": "uint256"
            },
            {
              "internalType": "address",
              "name": "tokenAddress",
              "type": "address"
            },
            {
              "internalType": "string",
              "name": "name",
              "type": "string"
            },
            {
              "internalType": "string",
              "name": "symbol",
              "type": "string"
            },
            {
              "internalType": "uint256",
              "name": "totalSupply",
              "type": "uint256"
            },
            {
              "internalType": "string",
              "name": "projectName",
              "type": "string"
            },
            {
              "internalType": "string",
              "name": "projectDescription",
              "type": "string"
            },
            {
              "internalType": "uint256",
              "name": "startDate",
              "type": "uint256"
            },
            {
              "internalType": "uint256",
              "name": "endDate",
              "type": "uint256"
            },
            {
              "internalType": "uint256",
              "name": "tokenPrice",
              "type": "uint256"
            },
            {
              "internalType": "address",
              "name": "creator",
              "type": "address"
            },
            {
              "internalType": "uint256",
              "name": "launchDate",
              "type": "uint256"
            },
            {
              "internalType": "uint256",
              "name": "participantCount",
              "type": "uint256"
            }
          ],
          "internalType": "struct TokenLauncher.Project[]",
          "name": "",
          "type": "tuple[]"
        }
      ],
      "stateMutability": "view",
      "type": "function"
    },
    {
      "inputs": [
        {
          "internalType": "uint256",
          "name": "projectId",
          "type": "uint256"
        }
      ],
      "name": "getProjectDetails",
      "outputs": [
        {
          "components": [
            {
              "components": [
                {
                  "internalType": "uint256",
                  "name": "projectId",
                  "type": "uint256"
                },
                {
                  "internalType": "address",
                  "name": "tokenAddress",
                  "type": "address"
                },
                {
                  "internalType": "string",
                  "name": "name",
                  "type": "string"
                },
                {
                  "internalType": "string",
                  "name": "symbol",
                  "type": "string"
                },
                {
                  "internalType": "uint256",
                  "name": "totalSupply",
                  "type": "uint256"
                },
                {
                  "internalType": "string",
                  "name": "projectName",
                  "type": "string"
                },
                {
                  "internalType": "string",
                  "name": "projectDescription",
                  "type": "string"
                },
                {
                  "internalType": "uint256",
                  "name": "startDate",
                  "type": "uint256"
                },
                {
                  "internalType": "uint256",
                  "name": "endDate",
                  "type": "uint256"
                },
                {
                  "internalType": "uint256",
                  "name": "tokenPrice",
                  "type": "uint256"
                },
                {
                  "internalType": "address",
                  "name": "creator",
                  "type": "address"
                },
                {
                  "internalType": "uint256",
                  "name": "launchDate",
                  "type": "uint256"
                },
                {
                  "internalType": "uint256",
                  "name": "participantCount",
                  "type": "uint256"
                }
              ],
              "internalType": "struct TokenLauncher.Project",
              "name": "project",
              "type": "tuple"
            },
            {
              "internalType": "uint256",
              "name": "totalSpent",
              "type": "uint256"
            },
            {
              "components": [
                {
                  "internalType": "uint256",
                  "name": "amount",
                  "type": "uint256"
                },
                {
                  "internalType": "uint256",
                  "name": "cost",
                  "type": "uint256"
                },
                {
                  "internalType": "uint256",
                  "name": "purchaseDate",
                  "type": "uint256"
                },
                {
                  "internalType": "bool",
                  "name": "refunded",
                  "type": "bool"
                }
              ],
              "internalType": "struct TokenLauncher.Purchase[]",
              "name": "purchases",
              "type": "tuple[]"
            },
            {
              "internalType": "bool",
              "name": "hasParticipated",
              "type": "bool"
            }
          ],
          "internalType": "struct TokenLauncher.ProjectWithUserInfo",
          "name": "",
          "type": "tuple"
        }
      ],
      "stateMutability": "view",
      "type": "function"
    },
    {
      "inputs": [
        {
          "internalType": "uint256",
          "name": "projectId",
          "type": "uint256"
        },
        {
          "internalType": "address",
          "name": "user",
          "type": "address"
        }
      ],
      "name": "getProjectWithUserInfo",
      "outputs": [
        {
          "components": [
            {
              "components": [
                {
                  "internalType": "uint256",
                  "name": "projectId",
                  "type": "uint256"
                },
                {
                  "internalType": "address",
                  "name": "tokenAddress",
                  "type": "address"
                },
                {
                  "internalType": "string",
                  "name": "name",
                  "type": "string"
                },
                {
                  "internalType": "string",
                  "name": "symbol",
                  "type": "string"
                },
                {
                  "internalType": "uint256",
                  "name": "totalSupply",
                  "type": "uint256"
                },
                {
                  "internalType": "string",
                  "name": "projectName",
                  "type": "string"
                },
                {
                  "internalType": "string",
                  "name": "projectDescription",
                  "type": "string"
                },
                {
                  "internalType": "uint256",
                  "name": "startDate",
                  "type": "uint256"
                },
                {
                  "internalType": "uint256",
                  "name": "endDate",
                  "type": "uint256"
                },
                {
                  "internalType": "uint256",
                  "name": "tokenPrice",
                  "type": "uint256"
                },
                {
                  "internalType": "address",
                  "name": "creator",
                  "type": "address"
                },
                {
                  "internalType": "uint256",
                  "name": "launchDate",
                  "type": "uint256"
                },
                {
                  "internalType": "uint256",
                  "name": "participantCount",
                  "type": "uint256"
                }
              ],
              "internalType": "struct TokenLauncher.Project",
              "name": "project",
              "type": "tuple"
            },
            {
              "internalType": "uint256",
              "name": "totalSpent",
              "type": "uint256"
            },
            {
              "components": [
                {
                  "internalType": "uint256",
                  "name": "amount",
                  "type": "uint256"
                },
                {
                  "internalType": "uint256",
                  "name": "cost",
                  "type": "uint256"
                },
                {
                  "internalType": "uint256",
                  "name": "purchaseDate",
                  "type": "uint256"
                },
                {
                  "internalType": "bool",
                  "name": "refunded",
                  "type": "bool"
                }
              ],
              "internalType": "struct TokenLauncher.Purchase[]",
              "name": "purchases",
              "type": "tuple[]"
            },
            {
              "internalType": "bool",
              "name": "hasParticipated",
              "type": "bool"
            }
          ],
          "internalType": "struct TokenLauncher.ProjectWithUserInfo",
          "name": "",
          "type": "tuple"
        }
      ],
      "stateMutability": "view",
      "type": "function"
    },
    {
      "inputs": [
        {
          "internalType": "uint256",
          "name": "projectId",
          "type": "uint256"
        }
      ],
      "name": "getTargetRaise",
      "outputs": [
        {
          "internalType": "uint256",
          "name": "",
          "type": "uint256"
        }
      ],
      "stateMutability": "view",
      "type": "function"
    },
    {
      "inputs": [
        {
          "internalType": "string",
          "name": "name",
          "type": "string"
        },
        {
          "internalType": "string",
          "name": "symbol",
          "type": "string"
        },
        {
          "internalType": "uint256",
          "name": "totalSupply",
          "type": "uint256"
        },
        {
          "internalType": "string",
          "name": "projectName",
          "type": "string"
        },
        {
          "internalType": "string",
          "name": "projectDescription",
          "type": "string"
        },
        {
          "internalType": "uint256",
          "name": "startDate",
          "type": "uint256"
        },
        {
          "internalType": "uint256",
          "name": "endDate",
          "type": "uint256"
        },
        {
          "internalType": "uint256",
          "name": "tokenPrice",
          "type": "uint256"
        }
      ],
      "name": "launchToken",
      "outputs": [
        {
          "internalType": "address",
          "name": "",
          "type": "address"
        }
      ],
      "stateMutability": "nonpayable",
      "type": "function"
    },
    {
      "inputs": [
        {
          "internalType": "uint256",
          "name": "",
          "type": "uint256"
        }
      ],
      "name": "projects",
      "outputs": [
        {
          "internalType": "uint256",
          "name": "projectId",
          "type": "uint256"
        },
        {
          "internalType": "address",
          "name": "tokenAddress",
          "type": "address"
        },
        {
          "internalType": "string",
          "name": "name",
          "type": "string"
        },
        {
          "internalType": "string",
          "name": "symbol",
          "type": "string"
        },
        {
          "internalType": "uint256",
          "name": "totalSupply",
          "type": "uint256"
        },
        {
          "internalType": "string",
          "name": "projectName",
          "type": "string"
        },
        {
          "internalType": "string",
          "name": "projectDescription",
          "type": "string"
        },
        {
          "internalType": "uint256",
          "name": "startDate",
          "type": "uint256"
        },
        {
          "internalType": "uint256",
          "name": "endDate",
          "type": "uint256"
        },
        {
          "internalType": "uint256",
          "name": "tokenPrice",
          "type": "uint256"
        },
        {
          "internalType": "address",
          "name": "creator",
          "type": "address"
        },
        {
          "internalType": "uint256",
          "name": "launchDate",
          "type": "uint256"
        },
        {
          "internalType": "uint256",
          "name": "participantCount",
          "type": "uint256"
        }
      ],
      "stateMutability": "view",
      "type": "function"
    },
    {
      "inputs": [
        {
          "internalType": "uint256",
          "name": "",
          "type": "uint256"
        },
        {
          "internalType": "address",
          "name": "",
          "type": "address"
        },
        {
          "internalType": "uint256",
          "name": "",
          "type": "uint256"
        }
      ],
      "name": "purchases",
      "outputs": [
        {
          "internalType": "uint256",
          "name": "amount",
          "type": "uint256"
        },
        {
          "internalType": "uint256",
          "name": "cost",
          "type": "uint256"
        },
        {
          "internalType": "uint256",
          "name": "purchaseDate",
          "type": "uint256"
        },
        {
          "internalType": "bool",
          "name": "refunded",
          "type": "bool"
        }
      ],
      "stateMutability": "view",
      "type": "function"
    },
    {
      "inputs": [
        {
          "internalType": "uint256",
          "name": "projectId",
          "type": "uint256"
        }
      ],
      "name": "refundTokens",
      "outputs": [],
      "stateMutability": "nonpayable",
      "type": "function"
    },
    {
      "inputs": [
        {
          "internalType": "uint256",
          "name": "",
          "type": "uint256"
        }
      ],
      "name": "totalRaised",
      "outputs": [
        {
          "internalType": "uint256",
          "name": "",
          "type": "uint256"
        }
      ],
      "stateMutability": "view",
      "type": "function"
    },
    {
      "inputs": [
        {
          "internalType": "uint256",
          "name": "projectId",
          "type": "uint256"
        }
      ],
      "name": "withdrawFunds",
      "outputs": [],
      "stateMutability": "nonpayable",
      "type": "function"
    }
  ],
  "bytecode": "0x60808060405234601a576001600055612f8790816100208239f35b600080fdfe6080604052600436101561001257600080fd5b60003560e01c8063035538351461183b5780630c71e114146117e0578063107046bd146116c2578063155dd5ee146115665780633610724e146111275780633922e819146110fb5780635dfee9bb14610e0b5780635f8439e314610d6157806361476c951461049757806380d0382914610366578063823c9cd9146102df5780638551b2f8146102b95763a13cf6a8146100ab57600080fd5b346102b45760403660031901126102b4576004356100c761185c565b6000906100d2611d3c565b50828252600560205260408220600101546001600160a01b0316156102a15781926020926040516101038582611911565b8181529092909183916001600160a01b038116610162575b508160409161015e9793526005865220936101416040519561013c876118da565b611d93565b855284015260408301521515606082015260405191829182611ae1565b0390f35b8183526008865260408084206001600160a01b03831680865290885281852054848652600989528286209186529088529084205460ff90911695501561011b578183526009865260408084206001600160a01b0390921684529086528220805491959490935091906101d381611d68565b936101e16040519586611911565b81855282528482208290868087015b84841061025a5750505050508290805b84518110156102495760606102158287611d7f565b51015115610226575b600101610200565b96610241600191876102388b89611d7f565b51015190611ccc565b97905061021e565b50939491939092509061015e61011b565b60019160049160405161026c816118da565b8554815284860154838201526002860154604082015260ff6003870154161515606082015281520192019201919087906101f0565b5060249163a89b369d60e01b8252600452fd5b600080fd5b346102b45760203660031901126102b45760206102d7600435611e55565b604051908152f35b346102b45760603660031901126102b4576102f861185c565b60443590600435600052600960205260406000209060018060a01b0316600052602052604060002080548210156102b45760809161033591611bdd565b5080549060018101549060ff6003600283015492015416916040519384526020840152604083015215156060820152f35b346102b45760003660031901126102b45760035461038381611d68565b906103916040519283611911565b8082526103a0601f1991611d68565b0160005b8181106104805760045483908060005b81811061042357836040518091602082016020835281518091526040830190602060408260051b8601019301916000905b8282106103f457505050500390f35b919360019193955060206104138192603f198a82030186528851611a17565b96019201920185949391926103e5565b60008382101561046c57906104506040826020856004600197522001600090548152600560205220611d93565b61045a8287611d7f565b526104658186611d7f565b50016103b4565b634e487b7160e01b81526032600452602490fd5b60209061048b611cd9565b828286010152016103a4565b346102b4576101003660031901126102b4576004356001600160401b0381116102b4576104c8903690600401611b96565b6024356001600160401b0381116102b4576104e7903690600401611b96565b90604435916064356001600160401b0381116102b45761050b903690600401611b96565b906084356001600160401b0381116102b45761052b903690600401611b96565b9060a43560c43560e43582821115610d505762278d008301808411610d3a578210610d29578715610d18578015610d07576040516110b78082018281106001600160401b038211176109d9578291611e9b833961014081526105cb6105bd6105a961059b8d6101408601906119d6565b84810360208601528a6119d6565b8d604085015283810360608501528b6119d6565b8281036080840152896119d6565b908660a08201528560c08201528460e0820152336101008201526101203091015203906000f0918215610cfb57610603600154611c7b565b8060015560405161064a8161063c6020820194334287916054939183526001600160601b03199060601b16602083015260348201520190565b03601f198101835282611911565b51902060a01c9260018060a01b031697604051610666816118f5565b84815284602082018b8152604083018481528d60608501908b8252608086019081528d60a087019081528d60c0880190815260e08801918d83526101008901938b85526101208a01958d87526101408b01973389526101608c0199428b526101808d019b60008d52600052600560205260406000209c518d5560018060a01b0390511660018d019060018060a01b03166001600160601b0360a01b82541617905560028c0190518051906001600160401b0382116109d957819061072a84546118a0565b601f8111610ca8575b50602090601f8311600114610c4357600092610c38575b50508160011b916000199060031b1c19161790555b51805160038c01916001600160401b0382116109d957819061078184546118a0565b601f8111610be5575b50602090601f8311600114610b8057600092610b75575b50508160011b916000199060031b1c19161790555b5160048a015551805160058a01916001600160401b0382116109d95781906107de84546118a0565b601f8111610b22575b50602090601f8311600114610abd57600092610ab2575b50508160011b916000199060031b1c19161790555b51805160068901916001600160401b0382116109d95761083383546118a0565b601f8111610a6a575b50602090601f83116001146109fa57600c999897969594939291600091836109ef575b50508160011b916000199060031b1c19161790555b51600788015551600887015551600986015551600a850180546001600160a01b0319166001600160a01b039290921691909117905551600b84015551910155600454600160401b8110156109d957846108d88260016108f194016004556004611872565b90919082549060031b91821b91600019901b1916179055565b336000526006602052604060002096875491600160401b8310156109d95760209b7f699920b00afa5868f5bbbb98f98355cdbf8f5466a705966b1764c5fa6be056629a61098f8d9a6109816109a29561095b6101609f6108d88b8f9260016109b09e018155611872565b610966600354611c7b565b6003556040519e8f9e8f9081526020829082015201906119d6565b8c810360408e0152906119d6565b9160608b015289820360808b01526119d6565b9087820360a08901526119d6565b9360c086015260e0850152610100840152336101208401526101408301520390a1604051908152f35b634e487b7160e01b600052604160045260246000fd5b01519050388061085f565b90601f1983169184600052816000209260005b818110610a525750916001939185600c9d9c9b9a999897969410610a39575b505050811b019055610874565b015160001960f88460031b161c19169055388080610a2c565b92936020600181928786015181550195019301610a0d565b836000526020600020601f840160051c81019160208510610aa8575b601f0160051c01905b818110610a9c575061083c565b60008155600101610a8f565b9091508190610a86565b0151905038806107fe565b60008581528281209350601f198516905b818110610b0a5750908460019594939210610af1575b505050811b019055610813565b015160001960f88460031b161c19169055388080610ae4565b92936020600181928786015181550195019301610ace565b909150836000526020600020601f840160051c81019160208510610b6b575b90601f859493920160051c01905b818110610b5c57506107e7565b60008155849350600101610b4f565b9091508190610b41565b0151905038806107a1565b60008581528281209350601f198516905b818110610bcd5750908460019594939210610bb4575b505050811b0190556107b6565b015160001960f88460031b161c19169055388080610ba7565b92936020600181928786015181550195019301610b91565b909150836000526020600020601f840160051c81019160208510610c2e575b90601f859493920160051c01905b818110610c1f575061078a565b60008155849350600101610c12565b9091508190610c04565b01519050388061074a565b60008581528281209350601f198516905b818110610c905750908460019594939210610c77575b505050811b01905561075f565b015160001960f88460031b161c19169055388080610c6a565b92936020600181928786015181550195019301610c54565b909150836000526020600020601f840160051c81019160208510610cf1575b90601f859493920160051c01905b818110610ce25750610733565b60008155849350600101610cd5565b9091508190610cc7565b6040513d6000823e3d90fd5b637841c2c960e11b60005260046000fd5b6334bbd58560e01b60005260046000fd5b63031f12f360e01b60005260046000fd5b634e487b7160e01b600052601160045260246000fd5b63319d1af960e11b60005260046000fd5b346102b45760203660031901126102b457600435610d7d611d3c565b506000610d88611d3c565b50818152600560205260408120600101546001600160a01b031615610df95760405161015e92909190610dbc602084611911565b818352815260056020526040812091610ddb6040519361013c856118da565b83528160208401526040830152606082015260405191829182611ae1565b60249163a89b369d60e01b8252600452fd5b346102b45760203660031901126102b457600435610e27611e78565b80600052600560205260076040600020015462278d008101809111610d3a5742106110ea5780600052600a602052604060002054610e6482611e55565b11156110d9576000818152600560205260409020600101546001600160a01b031680156110c457600082815260086020908152604080832033845290915290205460ff16156110b35760008281526009602090815260408083203384529091528120815b8154811015610fc657610edb8183611bdd565b50600381019081549160ff831615610ef9575b505050600101610ec8565b8160019182610f15959894549860ff1916179055015490611ccc565b92604051906323b872dd60e01b825233600483015230602483015260448201526020816064816000895af1908115610cfb57600091610f98575b5015610f5d57858080610eee565b60405162461bcd60e51b8152602060048201526013602482015272151bdad95b881c995d1d5c9b8819985a5b1959606a1b6044820152606490fd5b610fb9915060203d8111610fbf575b610fb18183611911565b810190611cb4565b86610f4f565b503d610fa7565b848380156110775781600052600a6020526040600020610fe7828254611c6e565b9055600080808084335af1610ffa611c3e565b501561103e577f6bdccf7c73e342b75a862529622158cc3e873ad016babc6efaef7c758da4125e916060916040519182523360208301526040820152a16001600055005b60405162461bcd60e51b8152602060048201526011602482015270115512081c99599d5b990819985a5b1959607a1b6044820152606490fd5b60405162461bcd60e51b81526020600482015260146024820152734e6f20726566756e647320617661696c61626c6560601b6044820152606490fd5b6366eabd0760e01b60005260046000fd5b5063a89b369d60e01b60005260045260246000fd5b63547f093760e01b60005260046000fd5b634a01daaf60e11b60005260046000fd5b346102b45760203660031901126102b457600435600052600a6020526020604060002054604051908152f35b60203660031901126102b45760043561113e611e78565b60008181526005602052604090206001810180549091906001600160a01b03161561155157600781015442111561154057341561152f57600083815260086020908152604080832033845290915290205460ff16156114af575b506111a33483611bf9565b90546040516370a0823160e01b81523060048201526001600160a01b039091169290602081602481875afa908115610cfb5760009161147d575b5060405163313ce56760e01b8152602081600481885afa908115610cfb57611217916112119160009161144d575b50611ca3565b84611c2b565b1161146c57611227600254611c7b565b806002556040516112608161063c6020820194334287916054939183526001600160601b03199060601b16602083015260348201520190565b51902060a01c9260405163313ce56760e01b8152602081600481855afa908115610cfb57611299916112119160009161144d5750611ca3565b604051906112a6826118da565b81523460208083019182524260408085019182526000606086018181528882526009855282822033835290945220805492949392600160401b8110156109d9576112f591600182018155611bdd565b92909261143757600393518355516001830155516002820155019051151560ff801983541691161790556040519063313ce56760e01b8252602082600481845afa908115610cfb57604461135d611357602094600096879161140a5750611ca3565b87611c2b565b604051948593849263a9059cbb60e01b845233600485015260248401525af1908115610cfb576000916113eb575b50156113da577f75f77114b0b88da95841d46a17da78c266e2c6cfbeafaf83dc456ad9669c33c39260a09260405192835233602084015260408301523460608301526080820152a16001600055005b6312171d8360e31b60005260046000fd5b611404915060203d602011610fbf57610fb18183611911565b8461138b565b61142a9150863d8811611430575b6114228183611911565b810190611c8a565b8a61120b565b503d611418565b634e487b7160e01b600052600060045260246000fd5b611466915060203d602011611430576114228183611911565b8761120b565b6324aef33160e11b60005260046000fd5b90506020813d6020116114a7575b8161149860209383611911565b810103126102b45751846111dd565b3d915061148b565b60008381526008602090815260408083203384528252808320805460ff191660011790558583526007909152902080549190600160401b8310156109d957826114ff916001600c95018155611872565b81546001600160a01b0360039290921b91821b19163390911b17905501805461152790611c7b565b905582611198565b63bd1fa9d360e01b60005260046000fd5b6316851a3760e11b60005260046000fd5b8263a89b369d60e01b60005260045260246000fd5b346102b45760203660031901126102b457600435611582611e78565b600081815260056020526040902060018101546001600160a01b0316156110c457600a0180546001600160a01b03169190338390036116a95781600052600a602052604060002054906115d483611e55565b808310611691575081156116805760638202828104606303610d3a5760008080606481940480985af1611605611c3e565b501561166757547f8946817b7f4dc96368878328f63b61efddac421daaf0d041668e7566f067a0e193608093926001600160a01b0390921691611649908290611c6e565b91604051938452602084015260408301526060820152a16001600055005b836392873d1360e01b6000523360045260245260446000fd5b6367e3990d60e01b60005260046000fd5b82630e39a22560e31b60005260045260245260446000fd5b82630bcf9e5b60e41b6000523360045260245260446000fd5b346102b45760203660031901126102b4576004356000908152600560205260409020805460018201546001600160a01b03169161170160028201611932565b61170d60038301611932565b6004830154929061172060058301611932565b9361172d60068401611932565b94600784015495600885015491600986015493600160a01b60019003600a8801541695600b88015497600c0154986040519c8d9c8d5260208d015260408c016101a090526101a08c0161177f916119d6565b8b810360608d0152611790916119d6565b9060808b015289810360a08b01526117a7916119d6565b88810360c08a01526117b8916119d6565b9560e08801526101008701526101208601526101408501526101608401526101808301520390f35b346102b45760403660031901126102b4576004356001600160a01b038116908190036102b457602435906000526006602052604060002080548210156102b45760209161182c91611872565b90549060031b1c604051908152f35b346102b45760403660031901126102b45760206102d7602435600435611bf9565b602435906001600160a01b03821682036102b457565b805482101561188a5760005260206000200190600090565b634e487b7160e01b600052603260045260246000fd5b90600182811c921680156118d0575b60208310146118ba57565b634e487b7160e01b600052602260045260246000fd5b91607f16916118af565b608081019081106001600160401b038211176109d957604052565b6101a081019081106001600160401b038211176109d957604052565b90601f801991011681019081106001600160401b038211176109d957604052565b9060405191826000825492611946846118a0565b80845293600181169081156119b4575060011461196d575b5061196b92500383611911565b565b90506000929192526020600020906000915b81831061199857505090602061196b928201013861195e565b602091935080600191548385890101520191019091849261197f565b90506020925061196b94915060ff191682840152151560051b8201013861195e565b919082519283825260005b848110611a02575050826000602080949584010152601f8019910116010190565b806020809284010151828286010152016119e1565b908151815260018060a01b03602083015116602082015261018080611a96611a84611a68611a5660408801516101a060408901526101a08801906119d6565b606088015187820360608901526119d6565b6080870151608087015260a087015186820360a08801526119d6565b60c086015185820360c08701526119d6565b9360e081015160e085015261010081015161010085015261012081015161012085015260018060a01b0361014082015116610140850152610160810151610160850152015191015290565b60208152611afb82516080602084015260a0830190611a17565b9160208101516040830152604081015192601f198382030160608401526020808551928381520194019060005b818110611b415750505060606080910151151591015290565b9091946020608060019260608951805183528481015185840152604081015160408401520151151560608201520196019101919091611b28565b6001600160401b0381116109d957601f01601f191660200190565b81601f820112156102b457803590611bad82611b7b565b92611bbb6040519485611911565b828452602083830101116102b457816000926020809301838601378301015290565b805482101561188a5760005260206000209060021b0190600090565b6000526005602052600960406000200154908115611c15570490565b634e487b7160e01b600052601260045260246000fd5b81810292918115918404141715610d3a57565b3d15611c69573d90611c4f82611b7b565b91611c5d6040519384611911565b82523d6000602084013e565b606090565b91908203918211610d3a57565b6000198114610d3a5760010190565b908160209103126102b4575160ff811681036102b45790565b60ff16604d8111610d3a57600a0a90565b908160209103126102b4575180151581036102b45790565b91908201809211610d3a57565b60405190611ce6826118f5565b60006101808382815282602082015260606040820152606080820152826080820152606060a0820152606060c08201528260e0820152826101008201528261012082015282610140820152826101608201520152565b60405190611d49826118da565b6000606083611d56611cd9565b81528260208201528160408201520152565b6001600160401b0381116109d95760051b60200190565b805182101561188a5760209160051b010190565b90604051611da0816118f5565b8254815260018301546001600160a01b0316602082015291829061018090600c90611dcd60028201611932565b6040850152611dde60038201611932565b606085015260048101546080850152611df960058201611932565b60a0850152611e0a60068201611932565b60c0850152600781015460e085015260088101546101008501526009810154610120850152600a8101546001600160a01b0316610140850152600b8101546101608501520154910152565b6000526005602052611e7560406000206009600482015491015490611c2b565b90565b600260005414611e89576002600055565b633ee5aeb560e01b60005260046000fdfe60c060405234610707576110b7803803806100198161070c565b928339810190610140818303126107075780516001600160401b0381116107075782610046918301610731565b60208201519091906001600160401b0381116107075783610068918301610731565b604082015160608301519094906001600160401b038111610707578161008f918501610731565b608084015190916001600160401b038211610707576100af918501610731565b60a08401519060c08501519260e0860151946100db6101206100d46101008a0161079c565b980161079c565b885190986001600160401b0382116104465760035490600182811c921680156106fd575b60208310146104265781601f84931161068d575b50602090601f83116001146106255760009261061a575b50508160011b916000199060031b1c1916176003555b8051906001600160401b0382116104465760045490600182811c92168015610610575b60208310146104265781601f8493116105a0575b50602090601f83116001146105385760009261052d575b50508160011b916000199060031b1c1916176004555b8051906001600160401b0382116104465760055490600182811c92168015610523575b60208310146104265781601f8493116104cf575b50602090601f83116001146104675760009261045c575b50508160011b916000199060031b1c1916176005555b8051906001600160401b0382116104465760065490600182811c9216801561043c575b60208310146104265781601f8493116103b6575b50602090601f831160011461034e57600092610343575b50508160011b916000199060031b1c1916176006555b60075560085560805260a052670de0b6b3a7640000820291808304670de0b6b3a76400001490151715610317576001600160a01b031690811561032d57600254818101809111610317576002557fddf252ad1be2c89b69c2b068fc378daa952ba7f163c4a11628f55a4df523b3ef602060009284845283825260408420818154019055604051908152a360405161090690816107b182396080518161037c015260a051816107670152f35b634e487b7160e01b600052601160045260246000fd5b63ec442f0560e01b600052600060045260246000fd5b015190503880610256565b600660009081528281209350601f198516905b81811061039e5750908460019594939210610385575b505050811b0160065561026c565b015160001960f88460031b161c19169055388080610377565b92936020600181928786015181550195019301610361565b60066000529091507ff652222313e28459528d920b65115c16c04f3efc82aaedc97be59f3f377c0d3f601f840160051c8101916020851061041c575b90601f859493920160051c01905b81811061040d575061023f565b60008155849350600101610400565b90915081906103f2565b634e487b7160e01b600052602260045260246000fd5b91607f169161022b565b634e487b7160e01b600052604160045260246000fd5b0151905038806101f2565b600560009081528281209350601f198516905b8181106104b7575090846001959493921061049e575b505050811b01600555610208565b015160001960f88460031b161c19169055388080610490565b9293602060018192878601518155019501930161047a565b90915060056000526020600020601f840160051c81019160208510610519575b90601f859493920160051c01905b81811061050a57506101db565b600081558493506001016104fd565b90915081906104ef565b91607f16916101c7565b01519050388061018e565b600460009081528281209350601f198516905b818110610588575090846001959493921061056f575b505050811b016004556101a4565b015160001960f88460031b161c19169055388080610561565b9293602060018192878601518155019501930161054b565b60046000529091507f8a35acfbc15ff81a39ae7d344fd709f28e8600b4aa8c65c6b64bfe7fe36bd19b601f840160051c81019160208510610606575b90601f859493920160051c01905b8181106105f75750610177565b600081558493506001016105ea565b90915081906105dc565b91607f1691610163565b01519050388061012a565b600360009081528281209350601f198516905b818110610675575090846001959493921061065c575b505050811b01600355610140565b015160001960f88460031b161c1916905538808061064e565b92936020600181928786015181550195019301610638565b60036000529091507fc2575a0e9e593c00f959f8c92f12db2869c3395a3b0502d05e2516446f71f85b601f840160051c810191602085106106f3575b90601f859493920160051c01905b8181106106e45750610113565b600081558493506001016106d7565b90915081906106c9565b91607f16916100ff565b600080fd5b6040519190601f01601f191682016001600160401b0381118382101761044657604052565b81601f82011215610707578051906001600160401b03821161044657610760601f8301601f191660200161070c565b92828452602083830101116107075760005b82811061078757505060206000918301015290565b80602080928401015182828701015201610772565b51906001600160a01b03821682036107075756fe608080604052600436101561001357600080fd5b60003560e01c90816302d05d3f146107545750806306fdde031461067c578063095ea7b3146105f65780630b97bc86146105d857806318160ddd146105ba57806323b872dd146104cd578063313ce567146104b157806370a0823114610477578063755f047b1461039f5780637ff9b5961461036457806395d89b411461028c5780639a33e30014610169578063a9059cbb14610138578063c24a0f8b1461011a5763dd62ed3e146100c457600080fd5b34610115576040366003190112610115576100dd6107df565b6100e56107f5565b6001600160a01b039182166000908152600160209081526040808320949093168252928352819020549051908152f35b600080fd5b34610115576000366003190112610115576020600854604051908152f35b346101155760403660031901126101155761015e6101546107df565b602435903361080b565b602060405160018152f35b346101155760003660031901126101155760405160006005548060011c90600181168015610282575b60208310811461026e5782855290811561025257506001146101fb575b50819003601f01601f191681019067ffffffffffffffff8211818310176101e557604082905281906101e19082610796565b0390f35b634e487b7160e01b600052604160045260246000fd5b600560009081529091507f036b6384b5eca791c62761152d0c79bb0604c104a5fb6f4eb0703f3154bb3db05b82821061023c575060209150820101826101af565b6001816020925483858801015201910190610227565b90506020925060ff191682840152151560051b820101826101af565b634e487b7160e01b84526022600452602484fd5b91607f1691610192565b346101155760003660031901126101155760405160006004548060011c9060018116801561035a575b60208310811461026e5782855290811561025257506001146103035750819003601f01601f191681019067ffffffffffffffff8211818310176101e557604082905281906101e19082610796565b600460009081529091507f8a35acfbc15ff81a39ae7d344fd709f28e8600b4aa8c65c6b64bfe7fe36bd19b5b828210610344575060209150820101826101af565b600181602092548385880101520191019061032f565b91607f16916102b5565b346101155760003660031901126101155760206040517f00000000000000000000000000000000000000000000000000000000000000008152f35b346101155760003660031901126101155760405160006006548060011c9060018116801561046d575b60208310811461026e5782855290811561025257506001146104165750819003601f01601f191681019067ffffffffffffffff8211818310176101e557604082905281906101e19082610796565b600660009081529091507ff652222313e28459528d920b65115c16c04f3efc82aaedc97be59f3f377c0d3f5b828210610457575060209150820101826101af565b6001816020925483858801015201910190610442565b91607f16916103c8565b34610115576020366003190112610115576001600160a01b036104986107df565b1660005260006020526020604060002054604051908152f35b3461011557600036600319011261011557602060405160128152f35b34610115576060366003190112610115576104e66107df565b6104ee6107f5565b6001600160a01b038216600081815260016020818152604080842033855290915290912054919360443593929091810161052e575b5061015e935061080b565b83811061059d5784156105875733156105715761015e946000526001602052604060002060018060a01b0333166000526020528360406000209103905584610523565b634a1406b160e11b600052600060045260246000fd5b63e602df0560e01b600052600060045260246000fd5b8390637dc7a0d960e11b6000523360045260245260445260646000fd5b34610115576000366003190112610115576020600254604051908152f35b34610115576000366003190112610115576020600754604051908152f35b346101155760403660031901126101155761060f6107df565b602435903315610587576001600160a01b031690811561057157336000526001602052604060002082600052602052806040600020556040519081527f8c5be1e5ebec7d5bd14f71427d1e84f3dd0314c0f7b2291e5b200ac8c7c3b92560203392a3602060405160018152f35b346101155760003660031901126101155760405160006003548060011c9060018116801561074a575b60208310811461026e5782855290811561025257506001146106f35750819003601f01601f191681019067ffffffffffffffff8211818310176101e557604082905281906101e19082610796565b600360009081529091507fc2575a0e9e593c00f959f8c92f12db2869c3395a3b0502d05e2516446f71f85b5b828210610734575060209150820101826101af565b600181602092548385880101520191019061071f565b91607f16916106a5565b34610115576000366003190112610115577f00000000000000000000000000000000000000000000000000000000000000006001600160a01b03168152602090f35b91909160208152825180602083015260005b8181106107c9575060409293506000838284010152601f8019910116010190565b80602080928701015160408286010152016107a8565b600435906001600160a01b038216820361011557565b602435906001600160a01b038216820361011557565b6001600160a01b03169081156108ba576001600160a01b03169182156108a457600082815280602052604081205482811061088a5791604082827fddf252ad1be2c89b69c2b068fc378daa952ba7f163c4a11628f55a4df523b3ef958760209652828652038282205586815280845220818154019055604051908152a3565b916064928463391434e360e21b8452600452602452604452fd5b63ec442f0560e01b600052600060045260246000fd5b634b637e8f60e11b600052600060045260246000fdfea2646970667358221220346b13c14df52f50fd689308856d80e4f19a5e62b245a72d49a6c9a3f7b6a90c64736f6c634300081c0033a2646970667358221220abadd4cfc3ed74cd56684bbc6085413562d5f280c5ba9363b42ef61aa19e4e3d64736f6c634300081c0033",
  "linkReferences": {},
  "deployedLinkReferences": {}
}