{
  "_format": "hh-sol-artifact-1",
  "contractName": "TokenLauncher",
  "sourceName": "contracts/Launch.sol",
  "abi": [
    {
      "anonymous": false,
      "inputs": [
        {
          "indexed": false,
          "internalType": "address",
          "name": "tokenAddress",
          "type": "address"
        },
        {
          "indexed": false,
          "internalType": "string",
          "name": "name",
          "type": "string"
        },
        {
          "indexed": false,
          "internalType": "string",
          "name": "symbol",
          "type": "string"
        },
        {
          "indexed": false,
          "internalType": "uint256",
          "name": "totalSupply",
          "type": "uint256"
        },
        {
          "indexed": false,
          "internalType": "string",
          "name": "projectName",
          "type": "string"
        },
        {
          "indexed": false,
          "internalType": "string",
          "name": "projectDescription",
          "type": "string"
        },
        {
          "indexed": false,
          "internalType": "uint256",
          "name": "startDate",
          "type": "uint256"
        },
        {
          "indexed": false,
          "internalType": "uint256",
          "name": "endDate",
          "type": "uint256"
        },
        {
          "indexed": false,
          "internalType": "uint256",
          "name": "tokenPrice",
          "type": "uint256"
        },
        {
          "indexed": false,
          "internalType": "address",
          "name": "creator",
          "type": "address"
        },
        {
          "indexed": false,
          "internalType": "uint256",
          "name": "projectId",
          "type": "uint256"
        }
      ],
      "name": "TokenLaunched",
      "type": "event"
    },
    {
      "inputs": [
        {
          "internalType": "address",
          "name": "",
          "type": "address"
        },
        {
          "internalType": "uint256",
          "name": "",
          "type": "uint256"
        }
      ],
      "name": "creatorToProjectIds",
      "outputs": [
        {
          "internalType": "uint256",
          "name": "",
          "type": "uint256"
        }
      ],
      "stateMutability": "view",
      "type": "function"
    },
    {
      "inputs": [],
      "name": "getAllProjects",
      "outputs": [
        {
          "components": [
            {
              "internalType": "address",
              "name": "tokenAddress",
              "type": "address"
            },
            {
              "internalType": "string",
              "name": "name",
              "type": "string"
            },
            {
              "internalType": "string",
              "name": "symbol",
              "type": "string"
            },
            {
              "internalType": "uint256",
              "name": "totalSupply",
              "type": "uint256"
            },
            {
              "internalType": "string",
              "name": "projectName",
              "type": "string"
            },
            {
              "internalType": "string",
              "name": "projectDescription",
              "type": "string"
            },
            {
              "internalType": "uint256",
              "name": "startDate",
              "type": "uint256"
            },
            {
              "internalType": "uint256",
              "name": "endDate",
              "type": "uint256"
            },
            {
              "internalType": "uint256",
              "name": "tokenPrice",
              "type": "uint256"
            },
            {
              "internalType": "address",
              "name": "creator",
              "type": "address"
            },
            {
              "internalType": "uint256",
              "name": "launchDate",
              "type": "uint256"
            }
          ],
          "internalType": "struct TokenLauncher.Project[]",
          "name": "",
          "type": "tuple[]"
        }
      ],
      "stateMutability": "view",
      "type": "function"
    },
    {
      "inputs": [
        {
          "internalType": "uint256",
          "name": "projectId",
          "type": "uint256"
        }
      ],
      "name": "getProject",
      "outputs": [
        {
          "components": [
            {
              "internalType": "address",
              "name": "tokenAddress",
              "type": "address"
            },
            {
              "internalType": "string",
              "name": "name",
              "type": "string"
            },
            {
              "internalType": "string",
              "name": "symbol",
              "type": "string"
            },
            {
              "internalType": "uint256",
              "name": "totalSupply",
              "type": "uint256"
            },
            {
              "internalType": "string",
              "name": "projectName",
              "type": "string"
            },
            {
              "internalType": "string",
              "name": "projectDescription",
              "type": "string"
            },
            {
              "internalType": "uint256",
              "name": "startDate",
              "type": "uint256"
            },
            {
              "internalType": "uint256",
              "name": "endDate",
              "type": "uint256"
            },
            {
              "internalType": "uint256",
              "name": "tokenPrice",
              "type": "uint256"
            },
            {
              "internalType": "address",
              "name": "creator",
              "type": "address"
            },
            {
              "internalType": "uint256",
              "name": "launchDate",
              "type": "uint256"
            }
          ],
          "internalType": "struct TokenLauncher.Project",
          "name": "",
          "type": "tuple"
        }
      ],
      "stateMutability": "view",
      "type": "function"
    },
    {
      "inputs": [],
      "name": "getProjectCount",
      "outputs": [
        {
          "internalType": "uint256",
          "name": "",
          "type": "uint256"
        }
      ],
      "stateMutability": "view",
      "type": "function"
    },
    {
      "inputs": [
        {
          "internalType": "string",
          "name": "name",
          "type": "string"
        },
        {
          "internalType": "string",
          "name": "symbol",
          "type": "string"
        },
        {
          "internalType": "uint256",
          "name": "totalSupply",
          "type": "uint256"
        },
        {
          "internalType": "string",
          "name": "projectName",
          "type": "string"
        },
        {
          "internalType": "string",
          "name": "projectDescription",
          "type": "string"
        },
        {
          "internalType": "uint256",
          "name": "startDate",
          "type": "uint256"
        },
        {
          "internalType": "uint256",
          "name": "endDate",
          "type": "uint256"
        },
        {
          "internalType": "uint256",
          "name": "tokenPrice",
          "type": "uint256"
        }
      ],
      "name": "launchToken",
      "outputs": [
        {
          "internalType": "address",
          "name": "",
          "type": "address"
        }
      ],
      "stateMutability": "nonpayable",
      "type": "function"
    },
    {
      "inputs": [
        {
          "internalType": "uint256",
          "name": "",
          "type": "uint256"
        }
      ],
      "name": "projects",
      "outputs": [
        {
          "internalType": "address",
          "name": "tokenAddress",
          "type": "address"
        },
        {
          "internalType": "string",
          "name": "name",
          "type": "string"
        },
        {
          "internalType": "string",
          "name": "symbol",
          "type": "string"
        },
        {
          "internalType": "uint256",
          "name": "totalSupply",
          "type": "uint256"
        },
        {
          "internalType": "string",
          "name": "projectName",
          "type": "string"
        },
        {
          "internalType": "string",
          "name": "projectDescription",
          "type": "string"
        },
        {
          "internalType": "uint256",
          "name": "startDate",
          "type": "uint256"
        },
        {
          "internalType": "uint256",
          "name": "endDate",
          "type": "uint256"
        },
        {
          "internalType": "uint256",
          "name": "tokenPrice",
          "type": "uint256"
        },
        {
          "internalType": "address",
          "name": "creator",
          "type": "address"
        },
        {
          "internalType": "uint256",
          "name": "launchDate",
          "type": "uint256"
        }
      ],
      "stateMutability": "view",
      "type": "function"
    }
  ],
  "bytecode": "0x6080604052348015600f57600080fd5b50613d118061001f6000396000f3fe608060405234801561001057600080fd5b50600436106100625760003560e01c80630c71e11414610067578063107046bd146100975780633bcff3b0146100d157806361476c95146100ef57806380d038291461011f578063f0f3f2c81461013d575b600080fd5b610081600480360381019061007c91906110d2565b61016d565b60405161008e9190611121565b60405180910390f35b6100b160048036038101906100ac919061113c565b61019e565b6040516100c89b9a99989796959493929190611208565b60405180910390f35b6100d9610468565b6040516100e69190611121565b60405180910390f35b61010960048036038101906101049190611404565b610474565b604051610116919061152a565b60405180910390f35b610127610867565b6040516101349190611773565b60405180910390f35b6101576004803603810190610152919061113c565b610bed565b6040516101649190611899565b60405180910390f35b6001602052816000526040600020818154811061018957600080fd5b90600052602060002001600091509150505481565b600081815481106101ae57600080fd5b90600052602060002090600b02016000915090508060000160009054906101000a900473ffffffffffffffffffffffffffffffffffffffff16908060010180546101f7906118ea565b80601f0160208091040260200160405190810160405280929190818152602001828054610223906118ea565b80156102705780601f1061024557610100808354040283529160200191610270565b820191906000526020600020905b81548152906001019060200180831161025357829003601f168201915b505050505090806002018054610285906118ea565b80601f01602080910402602001604051908101604052809291908181526020018280546102b1906118ea565b80156102fe5780601f106102d3576101008083540402835291602001916102fe565b820191906000526020600020905b8154815290600101906020018083116102e157829003601f168201915b505050505090806003015490806004018054610319906118ea565b80601f0160208091040260200160405190810160405280929190818152602001828054610345906118ea565b80156103925780601f1061036757610100808354040283529160200191610392565b820191906000526020600020905b81548152906001019060200180831161037557829003601f168201915b5050505050908060050180546103a7906118ea565b80601f01602080910402602001604051908101604052809291908181526020018280546103d3906118ea565b80156104205780601f106103f557610100808354040283529160200191610420565b820191906000526020600020905b81548152906001019060200180831161040357829003601f168201915b5050505050908060060154908060070154908060080154908060090160009054906101000a900473ffffffffffffffffffffffffffffffffffffffff169080600a015490508b565b60008080549050905090565b6000428410156104b9576040517f08c379a00000000000000000000000000000000000000000000000000000000081526004016104b090611967565b60405180910390fd5b8383116104fb576040517f08c379a00000000000000000000000000000000000000000000000000000000081526004016104f2906119f9565b60405180910390fd5b6000871161053e576040517f08c379a000000000000000000000000000000000000000000000000000000000815260040161053590611a8b565b60405180910390fd5b60008211610581576040517f08c379a000000000000000000000000000000000000000000000000000000000815260040161057890611b1d565b60405180910390fd5b600089898989898989893360405161059890610f97565b6105aa99989796959493929190611b3d565b604051809103906000f0801580156105c6573d6000803e3d6000fd5b50905060006040518061016001604052808373ffffffffffffffffffffffffffffffffffffffff1681526020018c81526020018b81526020018a81526020018981526020018881526020018781526020018681526020018581526020013373ffffffffffffffffffffffffffffffffffffffff16815260200142815250905060008190806001815401808255809150506001900390600052602060002090600b020160009091909190915060008201518160000160006101000a81548173ffffffffffffffffffffffffffffffffffffffff021916908373ffffffffffffffffffffffffffffffffffffffff16021790555060208201518160010190816106cd9190611d92565b5060408201518160020190816106e39190611d92565b506060820151816003015560808201518160040190816107039190611d92565b5060a08201518160050190816107199190611d92565b5060c0820151816006015560e0820151816007015561010082015181600801556101208201518160090160006101000a81548173ffffffffffffffffffffffffffffffffffffffff021916908373ffffffffffffffffffffffffffffffffffffffff16021790555061014082015181600a01555050600060016000805490506107a29190611e93565b9050600160003373ffffffffffffffffffffffffffffffffffffffff1673ffffffffffffffffffffffffffffffffffffffff1681526020019081526020016000208190806001815401808255809150506001900390600052602060002001600090919091909150557f699920b00afa5868f5bbbb98f98355cdbf8f5466a705966b1764c5fa6be05662838d8d8d8d8d8d8d8d338b60405161084d9b9a99989796959493929190611208565b60405180910390a182935050505098975050505050505050565b60606000805480602002602001604051908101604052809291908181526020016000905b82821015610be457838290600052602060002090600b0201604051806101600160405290816000820160009054906101000a900473ffffffffffffffffffffffffffffffffffffffff1673ffffffffffffffffffffffffffffffffffffffff1673ffffffffffffffffffffffffffffffffffffffff168152602001600182018054610915906118ea565b80601f0160208091040260200160405190810160405280929190818152602001828054610941906118ea565b801561098e5780601f106109635761010080835404028352916020019161098e565b820191906000526020600020905b81548152906001019060200180831161097157829003601f168201915b505050505081526020016002820180546109a7906118ea565b80601f01602080910402602001604051908101604052809291908181526020018280546109d3906118ea565b8015610a205780601f106109f557610100808354040283529160200191610a20565b820191906000526020600020905b815481529060010190602001808311610a0357829003601f168201915b5050505050815260200160038201548152602001600482018054610a43906118ea565b80601f0160208091040260200160405190810160405280929190818152602001828054610a6f906118ea565b8015610abc5780601f10610a9157610100808354040283529160200191610abc565b820191906000526020600020905b815481529060010190602001808311610a9f57829003601f168201915b50505050508152602001600582018054610ad5906118ea565b80601f0160208091040260200160405190810160405280929190818152602001828054610b01906118ea565b8015610b4e5780601f10610b2357610100808354040283529160200191610b4e565b820191906000526020600020905b815481529060010190602001808311610b3157829003601f168201915b505050505081526020016006820154815260200160078201548152602001600882015481526020016009820160009054906101000a900473ffffffffffffffffffffffffffffffffffffffff1673ffffffffffffffffffffffffffffffffffffffff1673ffffffffffffffffffffffffffffffffffffffff168152602001600a820154815250508152602001906001019061088b565b50505050905090565b610bf5610fa4565b6000805490508210610c3c576040517f08c379a0000000000000000000000000000000000000000000000000000000008152600401610c3390611f13565b60405180910390fd5b60008281548110610c5057610c4f611f33565b5b90600052602060002090600b0201604051806101600160405290816000820160009054906101000a900473ffffffffffffffffffffffffffffffffffffffff1673ffffffffffffffffffffffffffffffffffffffff1673ffffffffffffffffffffffffffffffffffffffff168152602001600182018054610cd0906118ea565b80601f0160208091040260200160405190810160405280929190818152602001828054610cfc906118ea565b8015610d495780601f10610d1e57610100808354040283529160200191610d49565b820191906000526020600020905b815481529060010190602001808311610d2c57829003601f168201915b50505050508152602001600282018054610d62906118ea565b80601f0160208091040260200160405190810160405280929190818152602001828054610d8e906118ea565b8015610ddb5780601f10610db057610100808354040283529160200191610ddb565b820191906000526020600020905b815481529060010190602001808311610dbe57829003601f168201915b5050505050815260200160038201548152602001600482018054610dfe906118ea565b80601f0160208091040260200160405190810160405280929190818152602001828054610e2a906118ea565b8015610e775780601f10610e4c57610100808354040283529160200191610e77565b820191906000526020600020905b815481529060010190602001808311610e5a57829003601f168201915b50505050508152602001600582018054610e90906118ea565b80601f0160208091040260200160405190810160405280929190818152602001828054610ebc906118ea565b8015610f095780601f10610ede57610100808354040283529160200191610f09565b820191906000526020600020905b815481529060010190602001808311610eec57829003601f168201915b505050505081526020016006820154815260200160078201548152602001600882015481526020016009820160009054906101000a900473ffffffffffffffffffffffffffffffffffffffff1673ffffffffffffffffffffffffffffffffffffffff1673ffffffffffffffffffffffffffffffffffffffff168152602001600a820154815250509050919050565b611d7980611f6383390190565b604051806101600160405280600073ffffffffffffffffffffffffffffffffffffffff1681526020016060815260200160608152602001600081526020016060815260200160608152602001600081526020016000815260200160008152602001600073ffffffffffffffffffffffffffffffffffffffff168152602001600081525090565b6000604051905090565b600080fd5b600080fd5b600073ffffffffffffffffffffffffffffffffffffffff82169050919050565b60006110698261103e565b9050919050565b6110798161105e565b811461108457600080fd5b50565b60008135905061109681611070565b92915050565b6000819050919050565b6110af8161109c565b81146110ba57600080fd5b50565b6000813590506110cc816110a6565b92915050565b600080604083850312156110e9576110e8611034565b5b60006110f785828601611087565b9250506020611108858286016110bd565b9150509250929050565b61111b8161109c565b82525050565b60006020820190506111366000830184611112565b92915050565b60006020828403121561115257611151611034565b5b6000611160848285016110bd565b91505092915050565b6111728161105e565b82525050565b600081519050919050565b600082825260208201905092915050565b60005b838110156111b2578082015181840152602081019050611197565b60008484015250505050565b6000601f19601f8301169050919050565b60006111da82611178565b6111e48185611183565b93506111f4818560208601611194565b6111fd816111be565b840191505092915050565b60006101608201905061121e600083018e611169565b8181036020830152611230818d6111cf565b90508181036040830152611244818c6111cf565b9050611253606083018b611112565b8181036080830152611265818a6111cf565b905081810360a083015261127981896111cf565b905061128860c0830188611112565b61129560e0830187611112565b6112a3610100830186611112565b6112b1610120830185611169565b6112bf610140830184611112565b9c9b505050505050505050505050565b600080fd5b600080fd5b7f4e487b7100000000000000000000000000000000000000000000000000000000600052604160045260246000fd5b611311826111be565b810181811067ffffffffffffffff821117156113305761132f6112d9565b5b80604052505050565b600061134361102a565b905061134f8282611308565b919050565b600067ffffffffffffffff82111561136f5761136e6112d9565b5b611378826111be565b9050602081019050919050565b82818337600083830152505050565b60006113a76113a284611354565b611339565b9050828152602081018484840111156113c3576113c26112d4565b5b6113ce848285611385565b509392505050565b600082601f8301126113eb576113ea6112cf565b5b81356113fb848260208601611394565b91505092915050565b600080600080600080600080610100898b03121561142557611424611034565b5b600089013567ffffffffffffffff81111561144357611442611039565b5b61144f8b828c016113d6565b985050602089013567ffffffffffffffff8111156114705761146f611039565b5b61147c8b828c016113d6565b975050604061148d8b828c016110bd565b965050606089013567ffffffffffffffff8111156114ae576114ad611039565b5b6114ba8b828c016113d6565b955050608089013567ffffffffffffffff8111156114db576114da611039565b5b6114e78b828c016113d6565b94505060a06114f88b828c016110bd565b93505060c06115098b828c016110bd565b92505060e061151a8b828c016110bd565b9150509295985092959890939650565b600060208201905061153f6000830184611169565b92915050565b600081519050919050565b600082825260208201905092915050565b6000819050602082019050919050565b61157a8161105e565b82525050565b600082825260208201905092915050565b600061159c82611178565b6115a68185611580565b93506115b6818560208601611194565b6115bf816111be565b840191505092915050565b6115d38161109c565b82525050565b6000610160830160008301516115f26000860182611571565b506020830151848203602086015261160a8282611591565b915050604083015184820360408601526116248282611591565b915050606083015161163960608601826115ca565b50608083015184820360808601526116518282611591565b91505060a083015184820360a086015261166b8282611591565b91505060c083015161168060c08601826115ca565b5060e083015161169360e08601826115ca565b506101008301516116a86101008601826115ca565b506101208301516116bd610120860182611571565b506101408301516116d26101408601826115ca565b508091505092915050565b60006116e983836115d9565b905092915050565b6000602082019050919050565b600061170982611545565b6117138185611550565b93508360208202850161172585611561565b8060005b85811015611761578484038952815161174285826116dd565b945061174d836116f1565b925060208a01995050600181019050611729565b50829750879550505050505092915050565b6000602082019050818103600083015261178d81846116fe565b905092915050565b6000610160830160008301516117ae6000860182611571565b50602083015184820360208601526117c68282611591565b915050604083015184820360408601526117e08282611591565b91505060608301516117f560608601826115ca565b506080830151848203608086015261180d8282611591565b91505060a083015184820360a08601526118278282611591565b91505060c083015161183c60c08601826115ca565b5060e083015161184f60e08601826115ca565b506101008301516118646101008601826115ca565b50610120830151611879610120860182611571565b5061014083015161188e6101408601826115ca565b508091505092915050565b600060208201905081810360008301526118b38184611795565b905092915050565b7f4e487b7100000000000000000000000000000000000000000000000000000000600052602260045260246000fd5b6000600282049050600182168061190257607f821691505b602082108103611915576119146118bb565b5b50919050565b7f53746172742064617465206d75737420626520696e2074686520667574757265600082015250565b6000611951602083611183565b915061195c8261191b565b602082019050919050565b6000602082019050818103600083015261198081611944565b9050919050565b7f456e642064617465206d7573742062652061667465722073746172742064617460008201527f6500000000000000000000000000000000000000000000000000000000000000602082015250565b60006119e3602183611183565b91506119ee82611987565b604082019050919050565b60006020820190508181036000830152611a12816119d6565b9050919050565b7f546f74616c20737570706c79206d75737420626520677265617465722074686160008201527f6e20300000000000000000000000000000000000000000000000000000000000602082015250565b6000611a75602383611183565b9150611a8082611a19565b604082019050919050565b60006020820190508181036000830152611aa481611a68565b9050919050565b7f546f6b656e207072696365206d7573742062652067726561746572207468616e60008201527f2030000000000000000000000000000000000000000000000000000000000000602082015250565b6000611b07602283611183565b9150611b1282611aab565b604082019050919050565b60006020820190508181036000830152611b3681611afa565b9050919050565b6000610120820190508181036000830152611b58818c6111cf565b90508181036020830152611b6c818b6111cf565b9050611b7b604083018a611112565b8181036060830152611b8d81896111cf565b90508181036080830152611ba181886111cf565b9050611bb060a0830187611112565b611bbd60c0830186611112565b611bca60e0830185611112565b611bd8610100830184611169565b9a9950505050505050505050565b60008190508160005260206000209050919050565b60006020601f8301049050919050565b600082821b905092915050565b600060088302611c487fffffffffffffffffffffffffffffffffffffffffffffffffffffffffffffffff82611c0b565b611c528683611c0b565b95508019841693508086168417925050509392505050565b6000819050919050565b6000611c8f611c8a611c858461109c565b611c6a565b61109c565b9050919050565b6000819050919050565b611ca983611c74565b611cbd611cb582611c96565b848454611c18565b825550505050565b600090565b611cd2611cc5565b611cdd818484611ca0565b505050565b5b81811015611d0157611cf6600082611cca565b600181019050611ce3565b5050565b601f821115611d4657611d1781611be6565b611d2084611bfb565b81016020851015611d2f578190505b611d43611d3b85611bfb565b830182611ce2565b50505b505050565b600082821c905092915050565b6000611d6960001984600802611d4b565b1980831691505092915050565b6000611d828383611d58565b9150826002028217905092915050565b611d9b82611178565b67ffffffffffffffff811115611db457611db36112d9565b5b611dbe82546118ea565b611dc9828285611d05565b600060209050601f831160018114611dfc5760008415611dea578287015190505b611df48582611d76565b865550611e5c565b601f198416611e0a86611be6565b60005b82811015611e3257848901518255600182019150602085019450602081019050611e0d565b86831015611e4f5784890151611e4b601f891682611d58565b8355505b6001600288020188555050505b505050505050565b7f4e487b7100000000000000000000000000000000000000000000000000000000600052601160045260246000fd5b6000611e9e8261109c565b9150611ea98361109c565b9250828203905081811115611ec157611ec0611e64565b5b92915050565b7f50726f6a65637420646f6573206e6f7420657869737400000000000000000000600082015250565b6000611efd601683611183565b9150611f0882611ec7565b602082019050919050565b60006020820190508181036000830152611f2c81611ef0565b9050919050565b7f4e487b7100000000000000000000000000000000000000000000000000000000600052603260045260246000fdfe608060405234801561001057600080fd5b50604051611d79380380611d79833981810160405281019061003291906105cd565b88888160039081610043919061091e565b508060049081610053919061091e565b5050508560059081610065919061091e565b508460069081610075919061091e565b5083600781905550826008819055508160098190555080600a60006101000a81548173ffffffffffffffffffffffffffffffffffffffff021916908373ffffffffffffffffffffffffffffffffffffffff160217905550610100816100de61010e60201b60201c565b600a6100ea9190610b5f565b896100f59190610baa565b61011760201b60201c565b505050505050505050610cab565b60006012905090565b600073ffffffffffffffffffffffffffffffffffffffff168273ffffffffffffffffffffffffffffffffffffffff16036101895760006040517fec442f050000000000000000000000000000000000000000000000000000000081526004016101809190610bfb565b60405180910390fd5b61019b6000838361019f60201b60201c565b5050565b600073ffffffffffffffffffffffffffffffffffffffff168373ffffffffffffffffffffffffffffffffffffffff16036101f15780600260008282546101e59190610c16565b925050819055506102c4565b60008060008573ffffffffffffffffffffffffffffffffffffffff1673ffffffffffffffffffffffffffffffffffffffff1681526020019081526020016000205490508181101561027d578381836040517fe450d38c00000000000000000000000000000000000000000000000000000000815260040161027493929190610c59565b60405180910390fd5b8181036000808673ffffffffffffffffffffffffffffffffffffffff1673ffffffffffffffffffffffffffffffffffffffff16815260200190815260200160002081905550505b600073ffffffffffffffffffffffffffffffffffffffff168273ffffffffffffffffffffffffffffffffffffffff160361030d578060026000828254039250508190555061035a565b806000808473ffffffffffffffffffffffffffffffffffffffff1673ffffffffffffffffffffffffffffffffffffffff168152602001908152602001600020600082825401925050819055505b8173ffffffffffffffffffffffffffffffffffffffff168373ffffffffffffffffffffffffffffffffffffffff167fddf252ad1be2c89b69c2b068fc378daa952ba7f163c4a11628f55a4df523b3ef836040516103b79190610c90565b60405180910390a3505050565b6000604051905090565b600080fd5b600080fd5b600080fd5b600080fd5b6000601f19601f8301169050919050565b7f4e487b7100000000000000000000000000000000000000000000000000000000600052604160045260246000fd5b61042b826103e2565b810181811067ffffffffffffffff8211171561044a576104496103f3565b5b80604052505050565b600061045d6103c4565b90506104698282610422565b919050565b600067ffffffffffffffff821115610489576104886103f3565b5b610492826103e2565b9050602081019050919050565b60005b838110156104bd5780820151818401526020810190506104a2565b60008484015250505050565b60006104dc6104d78461046e565b610453565b9050828152602081018484840111156104f8576104f76103dd565b5b61050384828561049f565b509392505050565b600082601f8301126105205761051f6103d8565b5b81516105308482602086016104c9565b91505092915050565b6000819050919050565b61054c81610539565b811461055757600080fd5b50565b60008151905061056981610543565b92915050565b600073ffffffffffffffffffffffffffffffffffffffff82169050919050565b600061059a8261056f565b9050919050565b6105aa8161058f565b81146105b557600080fd5b50565b6000815190506105c7816105a1565b92915050565b60008060008060008060008060006101208a8c0312156105f0576105ef6103ce565b5b60008a015167ffffffffffffffff81111561060e5761060d6103d3565b5b61061a8c828d0161050b565b99505060208a015167ffffffffffffffff81111561063b5761063a6103d3565b5b6106478c828d0161050b565b98505060406106588c828d0161055a565b97505060608a015167ffffffffffffffff811115610679576106786103d3565b5b6106858c828d0161050b565b96505060808a015167ffffffffffffffff8111156106a6576106a56103d3565b5b6106b28c828d0161050b565b95505060a06106c38c828d0161055a565b94505060c06106d48c828d0161055a565b93505060e06106e58c828d0161055a565b9250506101006106f78c828d016105b8565b9150509295985092959850929598565b600081519050919050565b7f4e487b7100000000000000000000000000000000000000000000000000000000600052602260045260246000fd5b6000600282049050600182168061075957607f821691505b60208210810361076c5761076b610712565b5b50919050565b60008190508160005260206000209050919050565b60006020601f8301049050919050565b600082821b905092915050565b6000600883026107d47fffffffffffffffffffffffffffffffffffffffffffffffffffffffffffffffff82610797565b6107de8683610797565b95508019841693508086168417925050509392505050565b6000819050919050565b600061081b61081661081184610539565b6107f6565b610539565b9050919050565b6000819050919050565b61083583610800565b61084961084182610822565b8484546107a4565b825550505050565b600090565b61085e610851565b61086981848461082c565b505050565b5b8181101561088d57610882600082610856565b60018101905061086f565b5050565b601f8211156108d2576108a381610772565b6108ac84610787565b810160208510156108bb578190505b6108cf6108c785610787565b83018261086e565b50505b505050565b600082821c905092915050565b60006108f5600019846008026108d7565b1980831691505092915050565b600061090e83836108e4565b9150826002028217905092915050565b61092782610707565b67ffffffffffffffff8111156109405761093f6103f3565b5b61094a8254610741565b610955828285610891565b600060209050601f8311600181146109885760008415610976578287015190505b6109808582610902565b8655506109e8565b601f19841661099686610772565b60005b828110156109be57848901518255600182019150602085019450602081019050610999565b868310156109db57848901516109d7601f8916826108e4565b8355505b6001600288020188555050505b505050505050565b7f4e487b7100000000000000000000000000000000000000000000000000000000600052601160045260246000fd5b60008160011c9050919050565b6000808291508390505b6001851115610a7657808604811115610a5257610a516109f0565b5b6001851615610a615780820291505b8081029050610a6f85610a1f565b9450610a36565b94509492505050565b600082610a8f5760019050610b4b565b81610a9d5760009050610b4b565b8160018114610ab35760028114610abd57610aec565b6001915050610b4b565b60ff841115610acf57610ace6109f0565b5b8360020a915084821115610ae657610ae56109f0565b5b50610b4b565b5060208310610133831016604e8410600b8410161715610b215782820a905083811115610b1c57610b1b6109f0565b5b610b4b565b610b2e8484846001610a2c565b92509050818404811115610b4557610b446109f0565b5b81810290505b9392505050565b600060ff82169050919050565b6000610b6a82610539565b9150610b7583610b52565b9250610ba27fffffffffffffffffffffffffffffffffffffffffffffffffffffffffffffffff8484610a7f565b905092915050565b6000610bb582610539565b9150610bc083610539565b9250828202610bce81610539565b91508282048414831517610be557610be46109f0565b5b5092915050565b610bf58161058f565b82525050565b6000602082019050610c106000830184610bec565b92915050565b6000610c2182610539565b9150610c2c83610539565b9250828201905080821115610c4457610c436109f0565b5b92915050565b610c5381610539565b82525050565b6000606082019050610c6e6000830186610bec565b610c7b6020830185610c4a565b610c886040830184610c4a565b949350505050565b6000602082019050610ca56000830184610c4a565b92915050565b6110bf80610cba6000396000f3fe608060405234801561001057600080fd5b50600436106100f55760003560e01c806370a08231116100975780639a33e300116100665780639a33e3001461027a578063a9059cbb14610298578063c24a0f8b146102c8578063dd62ed3e146102e6576100f5565b806370a08231146101f0578063755f047b146102205780637ff9b5961461023e57806395d89b411461025c576100f5565b80630b97bc86116100d35780630b97bc861461016657806318160ddd1461018457806323b872dd146101a2578063313ce567146101d2576100f5565b806302d05d3f146100fa57806306fdde0314610118578063095ea7b314610136575b600080fd5b610102610316565b60405161010f9190610cc4565b60405180910390f35b61012061033c565b60405161012d9190610d6f565b60405180910390f35b610150600480360381019061014b9190610df8565b6103ce565b60405161015d9190610e53565b60405180910390f35b61016e6103f1565b60405161017b9190610e7d565b60405180910390f35b61018c6103f7565b6040516101999190610e7d565b60405180910390f35b6101bc60048036038101906101b79190610e98565b610401565b6040516101c99190610e53565b60405180910390f35b6101da610430565b6040516101e79190610f07565b60405180910390f35b61020a60048036038101906102059190610f22565b610439565b6040516102179190610e7d565b60405180910390f35b610228610481565b6040516102359190610d6f565b60405180910390f35b61024661050f565b6040516102539190610e7d565b60405180910390f35b610264610515565b6040516102719190610d6f565b60405180910390f35b6102826105a7565b60405161028f9190610d6f565b60405180910390f35b6102b260048036038101906102ad9190610df8565b610635565b6040516102bf9190610e53565b60405180910390f35b6102d0610658565b6040516102dd9190610e7d565b60405180910390f35b61030060048036038101906102fb9190610f4f565b61065e565b60405161030d9190610e7d565b60405180910390f35b600a60009054906101000a900473ffffffffffffffffffffffffffffffffffffffff1681565b60606003805461034b90610fbe565b80601f016020809104026020016040519081016040528092919081815260200182805461037790610fbe565b80156103c45780601f10610399576101008083540402835291602001916103c4565b820191906000526020600020905b8154815290600101906020018083116103a757829003601f168201915b5050505050905090565b6000806103d96106e5565b90506103e68185856106ed565b600191505092915050565b60075481565b6000600254905090565b60008061040c6106e5565b90506104198582856106ff565b610424858585610793565b60019150509392505050565b60006012905090565b60008060008373ffffffffffffffffffffffffffffffffffffffff1673ffffffffffffffffffffffffffffffffffffffff168152602001908152602001600020549050919050565b6006805461048e90610fbe565b80601f01602080910402602001604051908101604052809291908181526020018280546104ba90610fbe565b80156105075780601f106104dc57610100808354040283529160200191610507565b820191906000526020600020905b8154815290600101906020018083116104ea57829003601f168201915b505050505081565b60095481565b60606004805461052490610fbe565b80601f016020809104026020016040519081016040528092919081815260200182805461055090610fbe565b801561059d5780601f106105725761010080835404028352916020019161059d565b820191906000526020600020905b81548152906001019060200180831161058057829003601f168201915b5050505050905090565b600580546105b490610fbe565b80601f01602080910402602001604051908101604052809291908181526020018280546105e090610fbe565b801561062d5780601f106106025761010080835404028352916020019161062d565b820191906000526020600020905b81548152906001019060200180831161061057829003601f168201915b505050505081565b6000806106406106e5565b905061064d818585610793565b600191505092915050565b60085481565b6000600160008473ffffffffffffffffffffffffffffffffffffffff1673ffffffffffffffffffffffffffffffffffffffff16815260200190815260200160002060008373ffffffffffffffffffffffffffffffffffffffff1673ffffffffffffffffffffffffffffffffffffffff16815260200190815260200160002054905092915050565b600033905090565b6106fa8383836001610887565b505050565b600061070b848461065e565b90507fffffffffffffffffffffffffffffffffffffffffffffffffffffffffffffffff811461078d578181101561077d578281836040517ffb8f41b200000000000000000000000000000000000000000000000000000000815260040161077493929190610fef565b60405180910390fd5b61078c84848484036000610887565b5b50505050565b600073ffffffffffffffffffffffffffffffffffffffff168373ffffffffffffffffffffffffffffffffffffffff16036108055760006040517f96c6fd1e0000000000000000000000000000000000000000000000000000000081526004016107fc9190610cc4565b60405180910390fd5b600073ffffffffffffffffffffffffffffffffffffffff168273ffffffffffffffffffffffffffffffffffffffff16036108775760006040517fec442f0500000000000000000000000000000000000000000000000000000000815260040161086e9190610cc4565b60405180910390fd5b610882838383610a5e565b505050565b600073ffffffffffffffffffffffffffffffffffffffff168473ffffffffffffffffffffffffffffffffffffffff16036108f95760006040517fe602df050000000000000000000000000000000000000000000000000000000081526004016108f09190610cc4565b60405180910390fd5b600073ffffffffffffffffffffffffffffffffffffffff168373ffffffffffffffffffffffffffffffffffffffff160361096b5760006040517f94280d620000000000000000000000000000000000000000000000000000000081526004016109629190610cc4565b60405180910390fd5b81600160008673ffffffffffffffffffffffffffffffffffffffff1673ffffffffffffffffffffffffffffffffffffffff16815260200190815260200160002060008573ffffffffffffffffffffffffffffffffffffffff1673ffffffffffffffffffffffffffffffffffffffff168152602001908152602001600020819055508015610a58578273ffffffffffffffffffffffffffffffffffffffff168473ffffffffffffffffffffffffffffffffffffffff167f8c5be1e5ebec7d5bd14f71427d1e84f3dd0314c0f7b2291e5b200ac8c7c3b92584604051610a4f9190610e7d565b60405180910390a35b50505050565b600073ffffffffffffffffffffffffffffffffffffffff168373ffffffffffffffffffffffffffffffffffffffff1603610ab0578060026000828254610aa49190611055565b92505081905550610b83565b60008060008573ffffffffffffffffffffffffffffffffffffffff1673ffffffffffffffffffffffffffffffffffffffff16815260200190815260200160002054905081811015610b3c578381836040517fe450d38c000000000000000000000000000000000000000000000000000000008152600401610b3393929190610fef565b60405180910390fd5b8181036000808673ffffffffffffffffffffffffffffffffffffffff1673ffffffffffffffffffffffffffffffffffffffff16815260200190815260200160002081905550505b600073ffffffffffffffffffffffffffffffffffffffff168273ffffffffffffffffffffffffffffffffffffffff1603610bcc5780600260008282540392505081905550610c19565b806000808473ffffffffffffffffffffffffffffffffffffffff1673ffffffffffffffffffffffffffffffffffffffff168152602001908152602001600020600082825401925050819055505b8173ffffffffffffffffffffffffffffffffffffffff168373ffffffffffffffffffffffffffffffffffffffff167fddf252ad1be2c89b69c2b068fc378daa952ba7f163c4a11628f55a4df523b3ef83604051610c769190610e7d565b60405180910390a3505050565b600073ffffffffffffffffffffffffffffffffffffffff82169050919050565b6000610cae82610c83565b9050919050565b610cbe81610ca3565b82525050565b6000602082019050610cd96000830184610cb5565b92915050565b600081519050919050565b600082825260208201905092915050565b60005b83811015610d19578082015181840152602081019050610cfe565b60008484015250505050565b6000601f19601f8301169050919050565b6000610d4182610cdf565b610d4b8185610cea565b9350610d5b818560208601610cfb565b610d6481610d25565b840191505092915050565b60006020820190508181036000830152610d898184610d36565b905092915050565b600080fd5b610d9f81610ca3565b8114610daa57600080fd5b50565b600081359050610dbc81610d96565b92915050565b6000819050919050565b610dd581610dc2565b8114610de057600080fd5b50565b600081359050610df281610dcc565b92915050565b60008060408385031215610e0f57610e0e610d91565b5b6000610e1d85828601610dad565b9250506020610e2e85828601610de3565b9150509250929050565b60008115159050919050565b610e4d81610e38565b82525050565b6000602082019050610e686000830184610e44565b92915050565b610e7781610dc2565b82525050565b6000602082019050610e926000830184610e6e565b92915050565b600080600060608486031215610eb157610eb0610d91565b5b6000610ebf86828701610dad565b9350506020610ed086828701610dad565b9250506040610ee186828701610de3565b9150509250925092565b600060ff82169050919050565b610f0181610eeb565b82525050565b6000602082019050610f1c6000830184610ef8565b92915050565b600060208284031215610f3857610f37610d91565b5b6000610f4684828501610dad565b91505092915050565b60008060408385031215610f6657610f65610d91565b5b6000610f7485828601610dad565b9250506020610f8585828601610dad565b9150509250929050565b7f4e487b7100000000000000000000000000000000000000000000000000000000600052602260045260246000fd5b60006002820490506001821680610fd657607f821691505b602082108103610fe957610fe8610f8f565b5b50919050565b60006060820190506110046000830186610cb5565b6110116020830185610e6e565b61101e6040830184610e6e565b949350505050565b7f4e487b7100000000000000000000000000000000000000000000000000000000600052601160045260246000fd5b600061106082610dc2565b915061106b83610dc2565b925082820190508082111561108357611082611026565b5b9291505056fea26469706673582212202145eb07b29f2dc3beac7ee61c45fe03ad24c273011bcb9a574d272808acc56064736f6c634300081c0033a2646970667358221220e3326f95fc5fe334c2b0381927c9036c19a926cabe32e7bf7972bca7f16750d964736f6c634300081c0033",
  "linkReferences": {},
  "deployedLinkReferences": {}
}