{
  "_format": "hh-sol-artifact-1",
  "contractName": "TokenLauncher",
  "sourceName": "contracts/Launch.sol",
  "abi": [
    {
      "anonymous": false,
      "inputs": [
        {
          "indexed": false,
          "internalType": "address",
          "name": "tokenAddress",
          "type": "address"
        },
        {
          "indexed": false,
          "internalType": "string",
          "name": "name",
          "type": "string"
        },
        {
          "indexed": false,
          "internalType": "string",
          "name": "symbol",
          "type": "string"
        },
        {
          "indexed": false,
          "internalType": "uint256",
          "name": "totalSupply",
          "type": "uint256"
        },
        {
          "indexed": false,
          "internalType": "string",
          "name": "projectName",
          "type": "string"
        },
        {
          "indexed": false,
          "internalType": "string",
          "name": "projectDescription",
          "type": "string"
        },
        {
          "indexed": false,
          "internalType": "uint256",
          "name": "startDate",
          "type": "uint256"
        },
        {
          "indexed": false,
          "internalType": "uint256",
          "name": "endDate",
          "type": "uint256"
        },
        {
          "indexed": false,
          "internalType": "uint256",
          "name": "tokenPrice",
          "type": "uint256"
        },
        {
          "indexed": false,
          "internalType": "address",
          "name": "creator",
          "type": "address"
        },
        {
          "indexed": false,
          "internalType": "uint256",
          "name": "projectId",
          "type": "uint256"
        }
      ],
      "name": "TokenLaunched",
      "type": "event"
    },
    {
      "inputs": [
        {
          "internalType": "address",
          "name": "",
          "type": "address"
        },
        {
          "internalType": "uint256",
          "name": "",
          "type": "uint256"
        }
      ],
      "name": "creatorToProjectIds",
      "outputs": [
        {
          "internalType": "uint256",
          "name": "",
          "type": "uint256"
        }
      ],
      "stateMutability": "view",
      "type": "function"
    },
    {
      "inputs": [],
      "name": "getAllProjects",
      "outputs": [
        {
          "components": [
            {
              "internalType": "uint256",
              "name": "projectId",
              "type": "uint256"
            },
            {
              "internalType": "address",
              "name": "tokenAddress",
              "type": "address"
            },
            {
              "internalType": "string",
              "name": "name",
              "type": "string"
            },
            {
              "internalType": "string",
              "name": "symbol",
              "type": "string"
            },
            {
              "internalType": "uint256",
              "name": "totalSupply",
              "type": "uint256"
            },
            {
              "internalType": "string",
              "name": "projectName",
              "type": "string"
            },
            {
              "internalType": "string",
              "name": "projectDescription",
              "type": "string"
            },
            {
              "internalType": "uint256",
              "name": "startDate",
              "type": "uint256"
            },
            {
              "internalType": "uint256",
              "name": "endDate",
              "type": "uint256"
            },
            {
              "internalType": "uint256",
              "name": "tokenPrice",
              "type": "uint256"
            },
            {
              "internalType": "address",
              "name": "creator",
              "type": "address"
            },
            {
              "internalType": "uint256",
              "name": "launchDate",
              "type": "uint256"
            }
          ],
          "internalType": "struct TokenLauncher.Project[]",
          "name": "",
          "type": "tuple[]"
        }
      ],
      "stateMutability": "view",
      "type": "function"
    },
    {
      "inputs": [
        {
          "internalType": "uint256",
          "name": "projectId",
          "type": "uint256"
        }
      ],
      "name": "getProject",
      "outputs": [
        {
          "components": [
            {
              "internalType": "uint256",
              "name": "projectId",
              "type": "uint256"
            },
            {
              "internalType": "address",
              "name": "tokenAddress",
              "type": "address"
            },
            {
              "internalType": "string",
              "name": "name",
              "type": "string"
            },
            {
              "internalType": "string",
              "name": "symbol",
              "type": "string"
            },
            {
              "internalType": "uint256",
              "name": "totalSupply",
              "type": "uint256"
            },
            {
              "internalType": "string",
              "name": "projectName",
              "type": "string"
            },
            {
              "internalType": "string",
              "name": "projectDescription",
              "type": "string"
            },
            {
              "internalType": "uint256",
              "name": "startDate",
              "type": "uint256"
            },
            {
              "internalType": "uint256",
              "name": "endDate",
              "type": "uint256"
            },
            {
              "internalType": "uint256",
              "name": "tokenPrice",
              "type": "uint256"
            },
            {
              "internalType": "address",
              "name": "creator",
              "type": "address"
            },
            {
              "internalType": "uint256",
              "name": "launchDate",
              "type": "uint256"
            }
          ],
          "internalType": "struct TokenLauncher.Project",
          "name": "",
          "type": "tuple"
        }
      ],
      "stateMutability": "view",
      "type": "function"
    },
    {
      "inputs": [],
      "name": "getProjectCount",
      "outputs": [
        {
          "internalType": "uint256",
          "name": "",
          "type": "uint256"
        }
      ],
      "stateMutability": "view",
      "type": "function"
    },
    {
      "inputs": [
        {
          "internalType": "string",
          "name": "name",
          "type": "string"
        },
        {
          "internalType": "string",
          "name": "symbol",
          "type": "string"
        },
        {
          "internalType": "uint256",
          "name": "totalSupply",
          "type": "uint256"
        },
        {
          "internalType": "string",
          "name": "projectName",
          "type": "string"
        },
        {
          "internalType": "string",
          "name": "projectDescription",
          "type": "string"
        },
        {
          "internalType": "uint256",
          "name": "startDate",
          "type": "uint256"
        },
        {
          "internalType": "uint256",
          "name": "endDate",
          "type": "uint256"
        },
        {
          "internalType": "uint256",
          "name": "tokenPrice",
          "type": "uint256"
        }
      ],
      "name": "launchToken",
      "outputs": [
        {
          "internalType": "address",
          "name": "",
          "type": "address"
        }
      ],
      "stateMutability": "nonpayable",
      "type": "function"
    },
    {
      "inputs": [
        {
          "internalType": "uint256",
          "name": "",
          "type": "uint256"
        }
      ],
      "name": "projects",
      "outputs": [
        {
          "internalType": "uint256",
          "name": "projectId",
          "type": "uint256"
        },
        {
          "internalType": "address",
          "name": "tokenAddress",
          "type": "address"
        },
        {
          "internalType": "string",
          "name": "name",
          "type": "string"
        },
        {
          "internalType": "string",
          "name": "symbol",
          "type": "string"
        },
        {
          "internalType": "uint256",
          "name": "totalSupply",
          "type": "uint256"
        },
        {
          "internalType": "string",
          "name": "projectName",
          "type": "string"
        },
        {
          "internalType": "string",
          "name": "projectDescription",
          "type": "string"
        },
        {
          "internalType": "uint256",
          "name": "startDate",
          "type": "uint256"
        },
        {
          "internalType": "uint256",
          "name": "endDate",
          "type": "uint256"
        },
        {
          "internalType": "uint256",
          "name": "tokenPrice",
          "type": "uint256"
        },
        {
          "internalType": "address",
          "name": "creator",
          "type": "address"
        },
        {
          "internalType": "uint256",
          "name": "launchDate",
          "type": "uint256"
        }
      ],
      "stateMutability": "view",
      "type": "function"
    }
  ],
  "bytecode": "0x6080604052348015600f57600080fd5b506141628061001f6000396000f3fe608060405234801561001057600080fd5b50600436106100625760003560e01c80630c71e11414610067578063107046bd146100975780633bcff3b0146100d257806361476c95146100f057806380d0382914610120578063f0f3f2c81461013e575b600080fd5b610081600480360381019061007c919061127d565b61016e565b60405161008e91906112cc565b60405180910390f35b6100b160048036038101906100ac91906112e7565b61019f565b6040516100c99c9b9a999897969594939291906113b3565b60405180910390f35b6100da61045f565b6040516100e791906112cc565b60405180910390f35b61010a600480360381019061010591906115be565b610469565b60405161011791906116e4565b60405180910390f35b6101286108de565b6040516101359190611942565b60405180910390f35b610158600480360381019061015391906112e7565b610cea565b6040516101659190611a7d565b60405180910390f35b6002602052816000526040600020818154811061018a57600080fd5b90600052602060002001600091509150505481565b60016020528060005260406000206000915090508060000154908060010160009054906101000a900473ffffffffffffffffffffffffffffffffffffffff16908060020180546101ee90611ace565b80601f016020809104026020016040519081016040528092919081815260200182805461021a90611ace565b80156102675780601f1061023c57610100808354040283529160200191610267565b820191906000526020600020905b81548152906001019060200180831161024a57829003601f168201915b50505050509080600301805461027c90611ace565b80601f01602080910402602001604051908101604052809291908181526020018280546102a890611ace565b80156102f55780601f106102ca576101008083540402835291602001916102f5565b820191906000526020600020905b8154815290600101906020018083116102d857829003601f168201915b50505050509080600401549080600501805461031090611ace565b80601f016020809104026020016040519081016040528092919081815260200182805461033c90611ace565b80156103895780601f1061035e57610100808354040283529160200191610389565b820191906000526020600020905b81548152906001019060200180831161036c57829003601f168201915b50505050509080600601805461039e90611ace565b80601f01602080910402602001604051908101604052809291908181526020018280546103ca90611ace565b80156104175780601f106103ec57610100808354040283529160200191610417565b820191906000526020600020905b8154815290600101906020018083116103fa57829003601f168201915b50505050509080600701549080600801549080600901549080600a0160009054906101000a900473ffffffffffffffffffffffffffffffffffffffff169080600b015490508c565b6000600354905090565b6000428410156104ae576040517f08c379a00000000000000000000000000000000000000000000000000000000081526004016104a590611b4b565b60405180910390fd5b8383116104f0576040517f08c379a00000000000000000000000000000000000000000000000000000000081526004016104e790611bdd565b60405180910390fd5b62278d00846104ff9190611c2c565b831015610541576040517f08c379a000000000000000000000000000000000000000000000000000000000815260040161053890611cd2565b60405180910390fd5b60008711610584576040517f08c379a000000000000000000000000000000000000000000000000000000000815260040161057b90611d64565b60405180910390fd5b600082116105c7576040517f08c379a00000000000000000000000000000000000000000000000000000000081526004016105be90611df6565b60405180910390fd5b60008989898989898989336040516105de9061113b565b6105f099989796959493929190611e16565b604051809103906000f08015801561060c573d6000803e3d6000fd5b50905060006106196110ed565b905060006040518061018001604052808381526020018473ffffffffffffffffffffffffffffffffffffffff1681526020018d81526020018c81526020018b81526020018a81526020018981526020018881526020018781526020018681526020013373ffffffffffffffffffffffffffffffffffffffff16815260200142815250905080600160008481526020019081526020016000206000820151816000015560208201518160010160006101000a81548173ffffffffffffffffffffffffffffffffffffffff021916908373ffffffffffffffffffffffffffffffffffffffff1602179055506040820151816002019081610717919061206b565b50606082015181600301908161072d919061206b565b506080820151816004015560a082015181600501908161074d919061206b565b5060c0820151816006019081610763919061206b565b5060e082015181600701556101008201518160080155610120820151816009015561014082015181600a0160006101000a81548173ffffffffffffffffffffffffffffffffffffffff021916908373ffffffffffffffffffffffffffffffffffffffff16021790555061016082015181600b01559050506004829080600181540180825580915050600190039060005260206000200160009091909190915055600260003373ffffffffffffffffffffffffffffffffffffffff1673ffffffffffffffffffffffffffffffffffffffff1681526020019081526020016000208290806001815401808255809150506001900390600052602060002001600090919091909150556003600081548092919061087c9061213d565b91905055507f699920b00afa5868f5bbbb98f98355cdbf8f5466a705966b1764c5fa6be05662838d8d8d8d8d8d8d8d338c6040516108c49b9a99989796959493929190612185565b60405180910390a182935050505098975050505050505050565b6060600060035467ffffffffffffffff8111156108fe576108fd611493565b5b60405190808252806020026020018201604052801561093757816020015b610924611148565b81526020019060019003908161091c5790505b50905060005b600480549050811015610ce25760016000600483815481106109625761096161224c565b5b9060005260206000200154815260200190815260200160002060405180610180016040529081600082015481526020016001820160009054906101000a900473ffffffffffffffffffffffffffffffffffffffff1673ffffffffffffffffffffffffffffffffffffffff1673ffffffffffffffffffffffffffffffffffffffff1681526020016002820180546109f790611ace565b80601f0160208091040260200160405190810160405280929190818152602001828054610a2390611ace565b8015610a705780601f10610a4557610100808354040283529160200191610a70565b820191906000526020600020905b815481529060010190602001808311610a5357829003601f168201915b50505050508152602001600382018054610a8990611ace565b80601f0160208091040260200160405190810160405280929190818152602001828054610ab590611ace565b8015610b025780601f10610ad757610100808354040283529160200191610b02565b820191906000526020600020905b815481529060010190602001808311610ae557829003601f168201915b5050505050815260200160048201548152602001600582018054610b2590611ace565b80601f0160208091040260200160405190810160405280929190818152602001828054610b5190611ace565b8015610b9e5780601f10610b7357610100808354040283529160200191610b9e565b820191906000526020600020905b815481529060010190602001808311610b8157829003601f168201915b50505050508152602001600682018054610bb790611ace565b80601f0160208091040260200160405190810160405280929190818152602001828054610be390611ace565b8015610c305780601f10610c0557610100808354040283529160200191610c30565b820191906000526020600020905b815481529060010190602001808311610c1357829003601f168201915b50505050508152602001600782015481526020016008820154815260200160098201548152602001600a820160009054906101000a900473ffffffffffffffffffffffffffffffffffffffff1673ffffffffffffffffffffffffffffffffffffffff1673ffffffffffffffffffffffffffffffffffffffff168152602001600b82015481525050828281518110610cca57610cc961224c565b5b6020026020010181905250808060010191505061093d565b508091505090565b610cf2611148565b600073ffffffffffffffffffffffffffffffffffffffff166001600084815260200190815260200160002060010160009054906101000a900473ffffffffffffffffffffffffffffffffffffffff1673ffffffffffffffffffffffffffffffffffffffff1603610d97576040517f08c379a0000000000000000000000000000000000000000000000000000000008152600401610d8e906122c7565b60405180910390fd5b6001600083815260200190815260200160002060405180610180016040529081600082015481526020016001820160009054906101000a900473ffffffffffffffffffffffffffffffffffffffff1673ffffffffffffffffffffffffffffffffffffffff1673ffffffffffffffffffffffffffffffffffffffff168152602001600282018054610e2690611ace565b80601f0160208091040260200160405190810160405280929190818152602001828054610e5290611ace565b8015610e9f5780601f10610e7457610100808354040283529160200191610e9f565b820191906000526020600020905b815481529060010190602001808311610e8257829003601f168201915b50505050508152602001600382018054610eb890611ace565b80601f0160208091040260200160405190810160405280929190818152602001828054610ee490611ace565b8015610f315780601f10610f0657610100808354040283529160200191610f31565b820191906000526020600020905b815481529060010190602001808311610f1457829003601f168201915b5050505050815260200160048201548152602001600582018054610f5490611ace565b80601f0160208091040260200160405190810160405280929190818152602001828054610f8090611ace565b8015610fcd5780601f10610fa257610100808354040283529160200191610fcd565b820191906000526020600020905b815481529060010190602001808311610fb057829003601f168201915b50505050508152602001600682018054610fe690611ace565b80601f016020809104026020016040519081016040528092919081815260200182805461101290611ace565b801561105f5780601f106110345761010080835404028352916020019161105f565b820191906000526020600020905b81548152906001019060200180831161104257829003601f168201915b50505050508152602001600782015481526020016008820154815260200160098201548152602001600a820160009054906101000a900473ffffffffffffffffffffffffffffffffffffffff1673ffffffffffffffffffffffffffffffffffffffff1673ffffffffffffffffffffffffffffffffffffffff168152602001600b820154815250509050919050565b60008060008154809291906111019061213d565b9190505550423360005460405160200161111d93929190612350565b6040516020818303038152906040528051906020012060001c905090565b611d9f8061238e83390190565b60405180610180016040528060008152602001600073ffffffffffffffffffffffffffffffffffffffff1681526020016060815260200160608152602001600081526020016060815260200160608152602001600081526020016000815260200160008152602001600073ffffffffffffffffffffffffffffffffffffffff168152602001600081525090565b6000604051905090565b600080fd5b600080fd5b600073ffffffffffffffffffffffffffffffffffffffff82169050919050565b6000611214826111e9565b9050919050565b61122481611209565b811461122f57600080fd5b50565b6000813590506112418161121b565b92915050565b6000819050919050565b61125a81611247565b811461126557600080fd5b50565b60008135905061127781611251565b92915050565b60008060408385031215611294576112936111df565b5b60006112a285828601611232565b92505060206112b385828601611268565b9150509250929050565b6112c681611247565b82525050565b60006020820190506112e160008301846112bd565b92915050565b6000602082840312156112fd576112fc6111df565b5b600061130b84828501611268565b91505092915050565b61131d81611209565b82525050565b600081519050919050565b600082825260208201905092915050565b60005b8381101561135d578082015181840152602081019050611342565b60008484015250505050565b6000601f19601f8301169050919050565b600061138582611323565b61138f818561132e565b935061139f81856020860161133f565b6113a881611369565b840191505092915050565b6000610180820190506113c9600083018f6112bd565b6113d6602083018e611314565b81810360408301526113e8818d61137a565b905081810360608301526113fc818c61137a565b905061140b608083018b6112bd565b81810360a083015261141d818a61137a565b905081810360c0830152611431818961137a565b905061144060e08301886112bd565b61144e6101008301876112bd565b61145c6101208301866112bd565b61146a610140830185611314565b6114786101608301846112bd565b9d9c50505050505050505050505050565b600080fd5b600080fd5b7f4e487b7100000000000000000000000000000000000000000000000000000000600052604160045260246000fd5b6114cb82611369565b810181811067ffffffffffffffff821117156114ea576114e9611493565b5b80604052505050565b60006114fd6111d5565b905061150982826114c2565b919050565b600067ffffffffffffffff82111561152957611528611493565b5b61153282611369565b9050602081019050919050565b82818337600083830152505050565b600061156161155c8461150e565b6114f3565b90508281526020810184848401111561157d5761157c61148e565b5b61158884828561153f565b509392505050565b600082601f8301126115a5576115a4611489565b5b81356115b584826020860161154e565b91505092915050565b600080600080600080600080610100898b0312156115df576115de6111df565b5b600089013567ffffffffffffffff8111156115fd576115fc6111e4565b5b6116098b828c01611590565b985050602089013567ffffffffffffffff81111561162a576116296111e4565b5b6116368b828c01611590565b97505060406116478b828c01611268565b965050606089013567ffffffffffffffff811115611668576116676111e4565b5b6116748b828c01611590565b955050608089013567ffffffffffffffff811115611695576116946111e4565b5b6116a18b828c01611590565b94505060a06116b28b828c01611268565b93505060c06116c38b828c01611268565b92505060e06116d48b828c01611268565b9150509295985092959890939650565b60006020820190506116f96000830184611314565b92915050565b600081519050919050565b600082825260208201905092915050565b6000819050602082019050919050565b61173481611247565b82525050565b61174381611209565b82525050565b600082825260208201905092915050565b600061176582611323565b61176f8185611749565b935061177f81856020860161133f565b61178881611369565b840191505092915050565b6000610180830160008301516117ac600086018261172b565b5060208301516117bf602086018261173a565b50604083015184820360408601526117d7828261175a565b915050606083015184820360608601526117f1828261175a565b9150506080830151611806608086018261172b565b5060a083015184820360a086015261181e828261175a565b91505060c083015184820360c0860152611838828261175a565b91505060e083015161184d60e086018261172b565b5061010083015161186261010086018261172b565b5061012083015161187761012086018261172b565b5061014083015161188c61014086018261173a565b506101608301516118a161016086018261172b565b508091505092915050565b60006118b88383611793565b905092915050565b6000602082019050919050565b60006118d8826116ff565b6118e2818561170a565b9350836020820285016118f48561171b565b8060005b85811015611930578484038952815161191185826118ac565b945061191c836118c0565b925060208a019950506001810190506118f8565b50829750879550505050505092915050565b6000602082019050818103600083015261195c81846118cd565b905092915050565b60006101808301600083015161197d600086018261172b565b506020830151611990602086018261173a565b50604083015184820360408601526119a8828261175a565b915050606083015184820360608601526119c2828261175a565b91505060808301516119d7608086018261172b565b5060a083015184820360a08601526119ef828261175a565b91505060c083015184820360c0860152611a09828261175a565b91505060e0830151611a1e60e086018261172b565b50610100830151611a3361010086018261172b565b50610120830151611a4861012086018261172b565b50610140830151611a5d61014086018261173a565b50610160830151611a7261016086018261172b565b508091505092915050565b60006020820190508181036000830152611a978184611964565b905092915050565b7f4e487b7100000000000000000000000000000000000000000000000000000000600052602260045260246000fd5b60006002820490506001821680611ae657607f821691505b602082108103611af957611af8611a9f565b5b50919050565b7f53746172742064617465206d75737420626520696e2074686520667574757265600082015250565b6000611b3560208361132e565b9150611b4082611aff565b602082019050919050565b60006020820190508181036000830152611b6481611b28565b9050919050565b7f456e642064617465206d7573742062652061667465722073746172742064617460008201527f6500000000000000000000000000000000000000000000000000000000000000602082015250565b6000611bc760218361132e565b9150611bd282611b6b565b604082019050919050565b60006020820190508181036000830152611bf681611bba565b9050919050565b7f4e487b7100000000000000000000000000000000000000000000000000000000600052601160045260246000fd5b6000611c3782611247565b9150611c4283611247565b9250828201905080821115611c5a57611c59611bfd565b5b92915050565b7f456e642064617465206d757374206265206174206c656173742033302064617960008201527f7320616674657220737461727420646174650000000000000000000000000000602082015250565b6000611cbc60328361132e565b9150611cc782611c60565b604082019050919050565b60006020820190508181036000830152611ceb81611caf565b9050919050565b7f546f74616c20737570706c79206d75737420626520677265617465722074686160008201527f6e20300000000000000000000000000000000000000000000000000000000000602082015250565b6000611d4e60238361132e565b9150611d5982611cf2565b604082019050919050565b60006020820190508181036000830152611d7d81611d41565b9050919050565b7f546f6b656e207072696365206d7573742062652067726561746572207468616e60008201527f2030000000000000000000000000000000000000000000000000000000000000602082015250565b6000611de060228361132e565b9150611deb82611d84565b604082019050919050565b60006020820190508181036000830152611e0f81611dd3565b9050919050565b6000610120820190508181036000830152611e31818c61137a565b90508181036020830152611e45818b61137a565b9050611e54604083018a6112bd565b8181036060830152611e66818961137a565b90508181036080830152611e7a818861137a565b9050611e8960a08301876112bd565b611e9660c08301866112bd565b611ea360e08301856112bd565b611eb1610100830184611314565b9a9950505050505050505050565b60008190508160005260206000209050919050565b60006020601f8301049050919050565b600082821b905092915050565b600060088302611f217fffffffffffffffffffffffffffffffffffffffffffffffffffffffffffffffff82611ee4565b611f2b8683611ee4565b95508019841693508086168417925050509392505050565b6000819050919050565b6000611f68611f63611f5e84611247565b611f43565b611247565b9050919050565b6000819050919050565b611f8283611f4d565b611f96611f8e82611f6f565b848454611ef1565b825550505050565b600090565b611fab611f9e565b611fb6818484611f79565b505050565b5b81811015611fda57611fcf600082611fa3565b600181019050611fbc565b5050565b601f82111561201f57611ff081611ebf565b611ff984611ed4565b81016020851015612008578190505b61201c61201485611ed4565b830182611fbb565b50505b505050565b600082821c905092915050565b600061204260001984600802612024565b1980831691505092915050565b600061205b8383612031565b9150826002028217905092915050565b61207482611323565b67ffffffffffffffff81111561208d5761208c611493565b5b6120978254611ace565b6120a2828285611fde565b600060209050601f8311600181146120d557600084156120c3578287015190505b6120cd858261204f565b865550612135565b601f1984166120e386611ebf565b60005b8281101561210b578489015182556001820191506020850194506020810190506120e6565b868310156121285784890151612124601f891682612031565b8355505b6001600288020188555050505b505050505050565b600061214882611247565b91507fffffffffffffffffffffffffffffffffffffffffffffffffffffffffffffffff820361217a57612179611bfd565b5b600182019050919050565b60006101608201905061219b600083018e611314565b81810360208301526121ad818d61137a565b905081810360408301526121c1818c61137a565b90506121d0606083018b6112bd565b81810360808301526121e2818a61137a565b905081810360a08301526121f6818961137a565b905061220560c08301886112bd565b61221260e08301876112bd565b6122206101008301866112bd565b61222e610120830185611314565b61223c6101408301846112bd565b9c9b505050505050505050505050565b7f4e487b7100000000000000000000000000000000000000000000000000000000600052603260045260246000fd5b7f50726f6a65637420646f6573206e6f7420657869737400000000000000000000600082015250565b60006122b160168361132e565b91506122bc8261227b565b602082019050919050565b600060208201905081810360008301526122e0816122a4565b9050919050565b6000819050919050565b6123026122fd82611247565b6122e7565b82525050565b60008160601b9050919050565b600061232082612308565b9050919050565b600061233282612315565b9050919050565b61234a61234582611209565b612327565b82525050565b600061235c82866122f1565b60208201915061236c8285612339565b60148201915061237c82846122f1565b60208201915081905094935050505056fe60c060405234801561001057600080fd5b50604051611d9f380380611d9f833981810160405281019061003291906105c1565b888881600390816100439190610912565b5080600490816100539190610912565b50505085600590816100659190610912565b5084600690816100759190610912565b50836007819055508260088190555081608081815250508073ffffffffffffffffffffffffffffffffffffffff1660a08173ffffffffffffffffffffffffffffffffffffffff16815250506100f4816100d261010260201b60201c565b600a6100de9190610b53565b896100e99190610b9e565b61010b60201b60201c565b505050505050505050610c9f565b60006012905090565b600073ffffffffffffffffffffffffffffffffffffffff168273ffffffffffffffffffffffffffffffffffffffff160361017d5760006040517fec442f050000000000000000000000000000000000000000000000000000000081526004016101749190610bef565b60405180910390fd5b61018f6000838361019360201b60201c565b5050565b600073ffffffffffffffffffffffffffffffffffffffff168373ffffffffffffffffffffffffffffffffffffffff16036101e55780600260008282546101d99190610c0a565b925050819055506102b8565b60008060008573ffffffffffffffffffffffffffffffffffffffff1673ffffffffffffffffffffffffffffffffffffffff16815260200190815260200160002054905081811015610271578381836040517fe450d38c00000000000000000000000000000000000000000000000000000000815260040161026893929190610c4d565b60405180910390fd5b8181036000808673ffffffffffffffffffffffffffffffffffffffff1673ffffffffffffffffffffffffffffffffffffffff16815260200190815260200160002081905550505b600073ffffffffffffffffffffffffffffffffffffffff168273ffffffffffffffffffffffffffffffffffffffff1603610301578060026000828254039250508190555061034e565b806000808473ffffffffffffffffffffffffffffffffffffffff1673ffffffffffffffffffffffffffffffffffffffff168152602001908152602001600020600082825401925050819055505b8173ffffffffffffffffffffffffffffffffffffffff168373ffffffffffffffffffffffffffffffffffffffff167fddf252ad1be2c89b69c2b068fc378daa952ba7f163c4a11628f55a4df523b3ef836040516103ab9190610c84565b60405180910390a3505050565b6000604051905090565b600080fd5b600080fd5b600080fd5b600080fd5b6000601f19601f8301169050919050565b7f4e487b7100000000000000000000000000000000000000000000000000000000600052604160045260246000fd5b61041f826103d6565b810181811067ffffffffffffffff8211171561043e5761043d6103e7565b5b80604052505050565b60006104516103b8565b905061045d8282610416565b919050565b600067ffffffffffffffff82111561047d5761047c6103e7565b5b610486826103d6565b9050602081019050919050565b60005b838110156104b1578082015181840152602081019050610496565b60008484015250505050565b60006104d06104cb84610462565b610447565b9050828152602081018484840111156104ec576104eb6103d1565b5b6104f7848285610493565b509392505050565b600082601f830112610514576105136103cc565b5b81516105248482602086016104bd565b91505092915050565b6000819050919050565b6105408161052d565b811461054b57600080fd5b50565b60008151905061055d81610537565b92915050565b600073ffffffffffffffffffffffffffffffffffffffff82169050919050565b600061058e82610563565b9050919050565b61059e81610583565b81146105a957600080fd5b50565b6000815190506105bb81610595565b92915050565b60008060008060008060008060006101208a8c0312156105e4576105e36103c2565b5b60008a015167ffffffffffffffff811115610602576106016103c7565b5b61060e8c828d016104ff565b99505060208a015167ffffffffffffffff81111561062f5761062e6103c7565b5b61063b8c828d016104ff565b985050604061064c8c828d0161054e565b97505060608a015167ffffffffffffffff81111561066d5761066c6103c7565b5b6106798c828d016104ff565b96505060808a015167ffffffffffffffff81111561069a576106996103c7565b5b6106a68c828d016104ff565b95505060a06106b78c828d0161054e565b94505060c06106c88c828d0161054e565b93505060e06106d98c828d0161054e565b9250506101006106eb8c828d016105ac565b9150509295985092959850929598565b600081519050919050565b7f4e487b7100000000000000000000000000000000000000000000000000000000600052602260045260246000fd5b6000600282049050600182168061074d57607f821691505b6020821081036107605761075f610706565b5b50919050565b60008190508160005260206000209050919050565b60006020601f8301049050919050565b600082821b905092915050565b6000600883026107c87fffffffffffffffffffffffffffffffffffffffffffffffffffffffffffffffff8261078b565b6107d2868361078b565b95508019841693508086168417925050509392505050565b6000819050919050565b600061080f61080a6108058461052d565b6107ea565b61052d565b9050919050565b6000819050919050565b610829836107f4565b61083d61083582610816565b848454610798565b825550505050565b600090565b610852610845565b61085d818484610820565b505050565b5b818110156108815761087660008261084a565b600181019050610863565b5050565b601f8211156108c65761089781610766565b6108a08461077b565b810160208510156108af578190505b6108c36108bb8561077b565b830182610862565b50505b505050565b600082821c905092915050565b60006108e9600019846008026108cb565b1980831691505092915050565b600061090283836108d8565b9150826002028217905092915050565b61091b826106fb565b67ffffffffffffffff811115610934576109336103e7565b5b61093e8254610735565b610949828285610885565b600060209050601f83116001811461097c576000841561096a578287015190505b61097485826108f6565b8655506109dc565b601f19841661098a86610766565b60005b828110156109b25784890151825560018201915060208501945060208101905061098d565b868310156109cf57848901516109cb601f8916826108d8565b8355505b6001600288020188555050505b505050505050565b7f4e487b7100000000000000000000000000000000000000000000000000000000600052601160045260246000fd5b60008160011c9050919050565b6000808291508390505b6001851115610a6a57808604811115610a4657610a456109e4565b5b6001851615610a555780820291505b8081029050610a6385610a13565b9450610a2a565b94509492505050565b600082610a835760019050610b3f565b81610a915760009050610b3f565b8160018114610aa75760028114610ab157610ae0565b6001915050610b3f565b60ff841115610ac357610ac26109e4565b5b8360020a915084821115610ada57610ad96109e4565b5b50610b3f565b5060208310610133831016604e8410600b8410161715610b155782820a905083811115610b1057610b0f6109e4565b5b610b3f565b610b228484846001610a20565b92509050818404811115610b3957610b386109e4565b5b81810290505b9392505050565b600060ff82169050919050565b6000610b5e8261052d565b9150610b6983610b46565b9250610b967fffffffffffffffffffffffffffffffffffffffffffffffffffffffffffffffff8484610a73565b905092915050565b6000610ba98261052d565b9150610bb48361052d565b9250828202610bc28161052d565b91508282048414831517610bd957610bd86109e4565b5b5092915050565b610be981610583565b82525050565b6000602082019050610c046000830184610be0565b92915050565b6000610c158261052d565b9150610c208361052d565b9250828201905080821115610c3857610c376109e4565b5b92915050565b610c478161052d565b82525050565b6000606082019050610c626000830186610be0565b610c6f6020830185610c3e565b610c7c6040830184610c3e565b949350505050565b6000602082019050610c996000830184610c3e565b92915050565b60805160a0516110db610cc460003960006103180152600061050f01526110db6000f3fe608060405234801561001057600080fd5b50600436106100f55760003560e01c806370a08231116100975780639a33e300116100665780639a33e3001461027a578063a9059cbb14610298578063c24a0f8b146102c8578063dd62ed3e146102e6576100f5565b806370a08231146101f0578063755f047b146102205780637ff9b5961461023e57806395d89b411461025c576100f5565b80630b97bc86116100d35780630b97bc861461016657806318160ddd1461018457806323b872dd146101a2578063313ce567146101d2576100f5565b806302d05d3f146100fa57806306fdde0314610118578063095ea7b314610136575b600080fd5b610102610316565b60405161010f9190610ce0565b60405180910390f35b61012061033a565b60405161012d9190610d8b565b60405180910390f35b610150600480360381019061014b9190610e14565b6103cc565b60405161015d9190610e6f565b60405180910390f35b61016e6103ef565b60405161017b9190610e99565b60405180910390f35b61018c6103f5565b6040516101999190610e99565b60405180910390f35b6101bc60048036038101906101b79190610eb4565b6103ff565b6040516101c99190610e6f565b60405180910390f35b6101da61042e565b6040516101e79190610f23565b60405180910390f35b61020a60048036038101906102059190610f3e565b610437565b6040516102179190610e99565b60405180910390f35b61022861047f565b6040516102359190610d8b565b60405180910390f35b61024661050d565b6040516102539190610e99565b60405180910390f35b610264610531565b6040516102719190610d8b565b60405180910390f35b6102826105c3565b60405161028f9190610d8b565b60405180910390f35b6102b260048036038101906102ad9190610e14565b610651565b6040516102bf9190610e6f565b60405180910390f35b6102d0610674565b6040516102dd9190610e99565b60405180910390f35b61030060048036038101906102fb9190610f6b565b61067a565b60405161030d9190610e99565b60405180910390f35b7f000000000000000000000000000000000000000000000000000000000000000081565b60606003805461034990610fda565b80601f016020809104026020016040519081016040528092919081815260200182805461037590610fda565b80156103c25780601f10610397576101008083540402835291602001916103c2565b820191906000526020600020905b8154815290600101906020018083116103a557829003601f168201915b5050505050905090565b6000806103d7610701565b90506103e4818585610709565b600191505092915050565b60075481565b6000600254905090565b60008061040a610701565b905061041785828561071b565b6104228585856107af565b60019150509392505050565b60006012905090565b60008060008373ffffffffffffffffffffffffffffffffffffffff1673ffffffffffffffffffffffffffffffffffffffff168152602001908152602001600020549050919050565b6006805461048c90610fda565b80601f01602080910402602001604051908101604052809291908181526020018280546104b890610fda565b80156105055780601f106104da57610100808354040283529160200191610505565b820191906000526020600020905b8154815290600101906020018083116104e857829003601f168201915b505050505081565b7f000000000000000000000000000000000000000000000000000000000000000081565b60606004805461054090610fda565b80601f016020809104026020016040519081016040528092919081815260200182805461056c90610fda565b80156105b95780601f1061058e576101008083540402835291602001916105b9565b820191906000526020600020905b81548152906001019060200180831161059c57829003601f168201915b5050505050905090565b600580546105d090610fda565b80601f01602080910402602001604051908101604052809291908181526020018280546105fc90610fda565b80156106495780601f1061061e57610100808354040283529160200191610649565b820191906000526020600020905b81548152906001019060200180831161062c57829003601f168201915b505050505081565b60008061065c610701565b90506106698185856107af565b600191505092915050565b60085481565b6000600160008473ffffffffffffffffffffffffffffffffffffffff1673ffffffffffffffffffffffffffffffffffffffff16815260200190815260200160002060008373ffffffffffffffffffffffffffffffffffffffff1673ffffffffffffffffffffffffffffffffffffffff16815260200190815260200160002054905092915050565b600033905090565b61071683838360016108a3565b505050565b6000610727848461067a565b90507fffffffffffffffffffffffffffffffffffffffffffffffffffffffffffffffff81146107a95781811015610799578281836040517ffb8f41b20000000000000000000000000000000000000000000000000000000081526004016107909392919061100b565b60405180910390fd5b6107a8848484840360006108a3565b5b50505050565b600073ffffffffffffffffffffffffffffffffffffffff168373ffffffffffffffffffffffffffffffffffffffff16036108215760006040517f96c6fd1e0000000000000000000000000000000000000000000000000000000081526004016108189190610ce0565b60405180910390fd5b600073ffffffffffffffffffffffffffffffffffffffff168273ffffffffffffffffffffffffffffffffffffffff16036108935760006040517fec442f0500000000000000000000000000000000000000000000000000000000815260040161088a9190610ce0565b60405180910390fd5b61089e838383610a7a565b505050565b600073ffffffffffffffffffffffffffffffffffffffff168473ffffffffffffffffffffffffffffffffffffffff16036109155760006040517fe602df0500000000000000000000000000000000000000000000000000000000815260040161090c9190610ce0565b60405180910390fd5b600073ffffffffffffffffffffffffffffffffffffffff168373ffffffffffffffffffffffffffffffffffffffff16036109875760006040517f94280d6200000000000000000000000000000000000000000000000000000000815260040161097e9190610ce0565b60405180910390fd5b81600160008673ffffffffffffffffffffffffffffffffffffffff1673ffffffffffffffffffffffffffffffffffffffff16815260200190815260200160002060008573ffffffffffffffffffffffffffffffffffffffff1673ffffffffffffffffffffffffffffffffffffffff168152602001908152602001600020819055508015610a74578273ffffffffffffffffffffffffffffffffffffffff168473ffffffffffffffffffffffffffffffffffffffff167f8c5be1e5ebec7d5bd14f71427d1e84f3dd0314c0f7b2291e5b200ac8c7c3b92584604051610a6b9190610e99565b60405180910390a35b50505050565b600073ffffffffffffffffffffffffffffffffffffffff168373ffffffffffffffffffffffffffffffffffffffff1603610acc578060026000828254610ac09190611071565b92505081905550610b9f565b60008060008573ffffffffffffffffffffffffffffffffffffffff1673ffffffffffffffffffffffffffffffffffffffff16815260200190815260200160002054905081811015610b58578381836040517fe450d38c000000000000000000000000000000000000000000000000000000008152600401610b4f9392919061100b565b60405180910390fd5b8181036000808673ffffffffffffffffffffffffffffffffffffffff1673ffffffffffffffffffffffffffffffffffffffff16815260200190815260200160002081905550505b600073ffffffffffffffffffffffffffffffffffffffff168273ffffffffffffffffffffffffffffffffffffffff1603610be85780600260008282540392505081905550610c35565b806000808473ffffffffffffffffffffffffffffffffffffffff1673ffffffffffffffffffffffffffffffffffffffff168152602001908152602001600020600082825401925050819055505b8173ffffffffffffffffffffffffffffffffffffffff168373ffffffffffffffffffffffffffffffffffffffff167fddf252ad1be2c89b69c2b068fc378daa952ba7f163c4a11628f55a4df523b3ef83604051610c929190610e99565b60405180910390a3505050565b600073ffffffffffffffffffffffffffffffffffffffff82169050919050565b6000610cca82610c9f565b9050919050565b610cda81610cbf565b82525050565b6000602082019050610cf56000830184610cd1565b92915050565b600081519050919050565b600082825260208201905092915050565b60005b83811015610d35578082015181840152602081019050610d1a565b60008484015250505050565b6000601f19601f8301169050919050565b6000610d5d82610cfb565b610d678185610d06565b9350610d77818560208601610d17565b610d8081610d41565b840191505092915050565b60006020820190508181036000830152610da58184610d52565b905092915050565b600080fd5b610dbb81610cbf565b8114610dc657600080fd5b50565b600081359050610dd881610db2565b92915050565b6000819050919050565b610df181610dde565b8114610dfc57600080fd5b50565b600081359050610e0e81610de8565b92915050565b60008060408385031215610e2b57610e2a610dad565b5b6000610e3985828601610dc9565b9250506020610e4a85828601610dff565b9150509250929050565b60008115159050919050565b610e6981610e54565b82525050565b6000602082019050610e846000830184610e60565b92915050565b610e9381610dde565b82525050565b6000602082019050610eae6000830184610e8a565b92915050565b600080600060608486031215610ecd57610ecc610dad565b5b6000610edb86828701610dc9565b9350506020610eec86828701610dc9565b9250506040610efd86828701610dff565b9150509250925092565b600060ff82169050919050565b610f1d81610f07565b82525050565b6000602082019050610f386000830184610f14565b92915050565b600060208284031215610f5457610f53610dad565b5b6000610f6284828501610dc9565b91505092915050565b60008060408385031215610f8257610f81610dad565b5b6000610f9085828601610dc9565b9250506020610fa185828601610dc9565b9150509250929050565b7f4e487b7100000000000000000000000000000000000000000000000000000000600052602260045260246000fd5b60006002820490506001821680610ff257607f821691505b60208210810361100557611004610fab565b5b50919050565b60006060820190506110206000830186610cd1565b61102d6020830185610e8a565b61103a6040830184610e8a565b949350505050565b7f4e487b7100000000000000000000000000000000000000000000000000000000600052601160045260246000fd5b600061107c82610dde565b915061108783610dde565b925082820190508082111561109f5761109e611042565b5b9291505056fea264697066735822122048ecf53ef99b574f316a25003a3052064ef82b140220c2161beaeda6caea382864736f6c634300081c0033a26469706673582212200c08c7d3993e1e3bb20c41b639048a6d09bbd4aa644b61cf03fdb4305361113964736f6c634300081c0033",
  "linkReferences": {},
  "deployedLinkReferences": {}
}